:020000040800F2
:100000000050002069190008ED150008F1150008DE
:10001000F5150008F9150008FD150008000000009E
:1000200000000000000000000000000001160008B1
:100030000516000800000000091600080D1600084B
:10004000B1190008B1190008B1190008B119000868
:10005000B1190008B1190008B1190008B119000858
:10006000B1190008B1190008B1190008B119000848
:10007000B1190008B1190008211600082D16000852
:10008000B1190008B1190008B1190008B119000828
:10009000B1190008B1190008B11900083916000893
:1000A000B1190008B1190008B1190008B119000808
:1000B00049160008B1190008B1190008B119000863
:1000C000B1190008B1190008B11900085516000847
:1000D000B11900085D190008B1190008B11900082C
:1000E000B1190008B1190008B1190008000000009A
:1000F0000000000000000000000000000000000000
:0C01000000000000000000005FF808F1A3
:1001100010B5054C237833B9044B13B10448AFF341
:1001200000800123237010BD480E00200000000055
:10013000BCC1000808B5034B1BB103490348AFF32A
:10014000008008BD000000004C0E0020BCC100086B
:10015000034613F8012B002AFBD1181A0138704707
:1001600081F0004102E000BF83F0004330B54FEA68
:1001700041044FEA430594EA050F08BF90EA020FD5
:100180001FBF54EA000C55EA020C7FEA645C7FEA68
:10019000655C00F0E2804FEA5454D4EB5555B8BF8B
:1001A0006D420CDD2C4480EA020281EA030382EAFC
:1001B000000083EA010180EA020281EA0303362D8E
:1001C00088BF30BD11F0004F4FEA01314FF4801C61
:1001D0004CEA113102D0404261EB410113F0004F73
:1001E0004FEA03334CEA133302D0524263EB43032A
:1001F00094EA050F00F0A780A4F10104D5F1200EC8
:100200000DDB02FA0EFC22FA05F2801841F1000122
:1002100003FA0EF2801843FA05F359410EE0A5F1F6
:1002200020050EF1200E012A03FA0EFC28BF4CF027
:10023000020C43FA05F3C01851EBE37101F00045DD
:1002400007D54FF0000EDCF1000C7EEB00006EEBEA
:100250000101B1F5801F1BD3B1F5001F0CD3490874
:100260005FEA30004FEA3C0C04F101044FEA4452CB
:1002700012F5800F80F09A80BCF1004F08BF5FEA52
:10028000500C50F1000041EB045141EA050130BD32
:100290005FEA4C0C404141EB0101013C28BFB1F544
:1002A000801FE9D291F0000F04BF01460020B1FA8F
:1002B00081F308BF2033A3F10B03B3F120020CDA62
:1002C0000C3208DD02F1140CC2F10C0201FA0CF040
:1002D00021FA02F10CE002F11402D8BFC2F1200CA5
:1002E00001FA02F120FA0CFCDCBF41EA0C0190405B
:1002F000E41AA2BF01EB0451294330BD6FEA0404A4
:100300001F3C1CDA0C340EDC04F11404C4F120028E
:1003100020FA04F001FA02F340EA030021FA04F3A0
:1003200045EA030130BDC4F10C04C4F1200220FAF7
:1003300002F001FA04F340EA0300294630BD21FA35
:1003400004F0294630BD94F0000F83F4801306BFFB
:1003500081F480110134013D4EE77FEA645C18BFEF
:100360007FEA655C29D094EA050F08BF90EA020F86
:1003700005D054EA000C04BF1946104630BD91EA7E
:10038000030F1EBF0021002030BD5FEA545C05D181
:100390004000494128BF41F0004130BD14F58004C0
:1003A0003CBF01F5801130BD01F0004545F0FE4134
:1003B00041F470014FF0000030BD7FEA645C1ABF69
:1003C000194610467FEA655C1CBF0B46024650EAA0
:1003D000013406BF52EA033591EA030F41F40021CC
:1003E00030BD00BF90F0000F04BF0021704730B552
:1003F0004FF4806404F132044FF000054FF0000127
:1004000050E700BF90F0000F04BF0021704730B5E7
:100410004FF4806404F1320410F0004548BF4042BC
:100420004FF000013EE700BF42004FEAE2014FEA11
:1004300031014FEA02701FBF12F07F4393F07F4FEC
:1004400081F06051704732F07F4208BF704793F0EF
:100450007F4F04BF41F40021704730B54FF4607402
:1004600001F0004521F000411CE700BF50EA010205
:1004700008BF704730B54FF000050AE050EA0102AE
:1004800008BF704730B511F0004502D5404261EB1E
:1004900041014FF4806404F132045FEA915C3FF45F
:1004A000D8AE4FF003025FEADC0C18BF03325FEAFC
:1004B000DC0C18BF033202EBDC02C2F1200300FAAD
:1004C00003FC20FA02F001FA03FE40EA0E0021FAD2
:1004D00002F11444BDE600BF70B54FF0FF0C4CF4C0
:1004E000E06C1CEA11541DBF1CEA135594EA0C0F72
:1004F00095EA0C0F00F0DEF82C4481EA030621EAAD
:100500004C5123EA4C5350EA013518BF52EA0335E7
:1005100041F4801143F4801338D0A0FB02CE4FF099
:100520000005E1FB02E506F00042E0FB03E54FF0C9
:100530000006E1FB03569CF0000F18BF4EF0010EC1
:10054000A4F1FF04B6F5007F64F5407404D25FEABD
:100550004E0E6D4146EB060642EAC62141EA555170
:100560004FEAC52040EA5E504FEACE2EB4F1FD0CB2
:1005700088BFBCF5E06F1ED8BEF1004F08BF5FEA30
:10058000500E50F1000041EB045170BD06F00046E2
:1005900046EA010140EA020081EA0301B4EB5C048F
:1005A000C2BFD4EB0C0541EA045170BD41F4801187
:1005B0004FF0000E013C00F3AB8014F1360FDEBFAC
:1005C000002001F0004170BDC4F10004203C35DA88
:1005D0000C341BDC04F11404C4F1200500FA05F30B
:1005E00020FA04F001FA05F240EA020001F00042AC
:1005F00021F0004110EBD37021FA04F642EB060122
:100600005EEA430E08BF20EAD37070BDC4F10C044B
:10061000C4F1200500FA04F320FA05F001FA04F20F
:1006200040EA020001F0004110EBD37041F10001FB
:100630005EEA430E08BF20EAD37070BDC4F1200506
:1006400000FA05F24EEA020E20FA04F301FA05F26E
:1006500043EA020321FA04F001F0004121FA04F216
:1006600020EA020000EBD3705EEA430E08BF20EAE6
:10067000D37070BD94F0000F0FD101F00046400020
:1006800041EB010111F4801F08BF013CF7D041EAA2
:10069000060195F0000F18BF704703F000465200A6
:1006A00043EB030313F4801F08BF013DF7D043EA77
:1006B0000603704794EA0C0F0CEA135518BF95EA2D
:1006C0000C0F0CD050EA410618BF52EA4306D1D1B4
:1006D00081EA030101F000414FF0000070BD50EAD3
:1006E000410606BF1046194652EA430619D094EA5D
:1006F0000C0F02D150EA013613D195EA0C0F05D147
:1007000052EA03361CBF104619460AD181EA03019A
:1007100001F0004141F0FE4141F470014FF0000052
:1007200070BD41F0FE4141F4780170BD70B54FF0ED
:10073000FF0C4CF4E06C1CEA11541DBF1CEA13556D
:1007400094EA0C0F95EA0C0F00F0A7F8A4EB05044F
:1007500081EA030E52EA03354FEA013100F0888046
:100760004FEA03334FF0805545EA131343EA12630F
:100770004FEA022245EA111545EA10654FEA0026C4
:100780000EF000419D4208BF964244F1FD0404F57D
:10079000407402D25B084FEA3202B61A65EB0305D9
:1007A0005B084FEA32024FF480104FF4002CB6EB96
:1007B000020E75EB030E22BFB61A754640EA0C0016
:1007C0005B084FEA3202B6EB020E75EB030E22BF56
:1007D000B61A754640EA5C005B084FEA3202B6EB97
:1007E000020E75EB030E22BFB61A754640EA9C0056
:1007F0005B084FEA3202B6EB020E75EB030E22BF26
:10080000B61A754640EADC0055EA060E18D04FEAE3
:10081000051545EA16754FEA06164FEAC30343EA83
:1008200052734FEAC2025FEA1C1CC0D111F4801F50
:100830000BD141EA00014FF000004FF0004CB6E749
:1008400011F4801F04BF01430020B4F1FD0C88BFE8
:10085000BCF5E06F3FF6AFAEB5EB030C04BFB6EBF3
:10086000020C5FEA500C50F1000041EB045170BDE6
:100870000EF0004E4EEA113114EB5C04C2BFD4EB13
:100880000C0541EA045170BD41F480114FF0000E97
:10089000013C90E645EA060E8DE60CEA135594EA13
:1008A0000C0F08BF95EA0C0F3FF43BAF94EA0C0F16
:1008B0000AD150EA01347FF434AF95EA0C0F7FF48B
:1008C00025AF104619462CE795EA0C0F06D152EADF
:1008D00003353FF4FDAE1046194622E750EA4106C3
:1008E00018BF52EA43067FF4C5AE50EA41047FF4D4
:1008F0000DAF52EA43057FF4EBAE12E74FF0FF3C39
:1009000006E000BF4FF0010C02E000BF4FF0010C09
:100910004DF804CD4FEA410C7FEA6C5C4FEA430C82
:1009200018BF7FEA6C5C1BD001B050EA410C0CBFD1
:1009300052EA430C91EA030F02BF90EA020F002033
:10094000704710F1000F91EA030F58BF994208BF9A
:1009500090422CBFD8176FEAE37040F00100704757
:100960004FEA410C7FEA6C5C02D150EA013C07D1AE
:100970004FEA430C7FEA6C5CD6D152EA033CD3D0F9
:100980005DF8040B704700BF8446104662468C46F3
:100990001946634600E000BF01B5FFF7B7FF002826
:1009A00048BF10F1000F01BD4DF808EDFFF7F4FF4F
:1009B0000CBF012000205DF808FB00BF4DF808EDDA
:1009C000FFF7EAFF34BF012000205DF808FB00BFFD
:1009D0004DF808EDFFF7E0FF94BF012000205DF81F
:1009E00008FB00BF4DF808EDFFF7CEFF94BF0120D4
:1009F00000205DF808FB00BF4DF808EDFFF7C4FFCD
:100A000034BF012000205DF808FB00BF4FEA410C15
:100A10007FEA6C5C02D150EA013C0AD14FEA430CF8
:100A20007FEA6C5C02D152EA033C02D14FF0000035
:100A300070474FF0010070474FEA410212F5001273
:100A400015D211D56FF47873B3EB625212D94FEA15
:100A5000C12343F0004343EA505311F0004F23FAFF
:100A600002F018BF404270474FF00000704750EA54
:100A7000013005D111F0004008BF6FF00040704711
:100A80004FF00000704700BF4A0011D212F500126B
:100A900011D20DD56FF47873B3EB62520ED44FEAD6
:100AA000C12343F0004343EA505323FA02F0704756
:100AB0004FF00000704750EA013002D14FF0FF3094
:100AC00070474FF0000070474FEA4102B2F1E04337
:100AD00024BFB3F5001CDCF1FE5C0DD901F0004C25
:100AE0004FEAC0024CEA5070B2F1004F40EB830075
:100AF00008BF20F00100704711F0804F21D113F1A1
:100B00003872BCBF01F00040704741F480114FEAD9
:100B10005252C2F11802C2F1200C10FA0CF320FA62
:100B200002F018BF40F001004FEAC1234FEAD3237F
:100B300003FA0CFC40EA0C0023FA02F34FEA4303E9
:100B4000CCE77FEA625307D150EA01331EBF4FF072
:100B5000FE4040F44000704701F0004040F0FE408D
:100B600040F40000704700BF80F0004002E000BF8A
:100B700081F0004142001FBF5FEA410392EA030F88
:100B80007FEA226C7FEA236C6AD04FEA1262D2EBD2
:100B90001363C1BFD218414048404140B8BF5B42D7
:100BA000192B88BF704710F0004F40F4000020F070
:100BB0007F4018BF404211F0004F41F4000121F086
:100BC0007F4118BF494292EA030F3FD0A2F10102D0
:100BD00041FA03FC10EB0C00C3F1200301FA03F10E
:100BE00000F0004302D5494260EB4000B0F5000F31
:100BF00013D3B0F1807F06D340084FEA310102F1F0
:100C00000102FE2A51D2B1F1004F40EBC25008BFA1
:100C100020F0010040EA03007047490040EB00006B
:100C2000013A28BFB0F5000FEDD2B0FA80FCACF16C
:100C3000080CB2EB0C0200FA0CF0AABF00EBC25099
:100C400052421843BCBFD0401843704792F0000F87
:100C500081F4000106BF80F400000132013BB5E7DA
:100C60004FEA41037FEA226C18BF7FEA236C21D050
:100C700092EA030F04D092F0000F08BF08467047B5
:100C800090EA010F1CBF0020704712F07F4F04D183
:100C9000400028BF40F00040704712F100723CBF96
:100CA00000F50000704700F0004343F0FE4040F4C0
:100CB000000070477FEA226216BF08467FEA23637E
:100CC0000146420206BF5FEA412390EA010F40F469
:100CD000800070474FF0000304E000BF10F00043B5
:100CE00048BF40425FEA000C08BF704743F096439C
:100CF00001464FF000001CE050EA010208BF7047B7
:100D00004FF000030AE000BF50EA010208BF70473D
:100D100011F0004302D5404261EB41015FEA010C52
:100D200002BF84460146002043F0B64308BFA3F14A
:100D30008053A3F50003BCFA8CF2083AA3EBC2532C
:100D400010DB01FA02FC634400FA02FCC2F120024B
:100D5000BCF1004F20FA02F243EB020008BF20F082
:100D60000100704702F1200201FA02FCC2F12002E8
:100D700050EA4C0021FA02F243EB020008BF20EADD
:100D8000DC7070474FF0FF0C1CEAD0521EBF1CEA0B
:100D9000D15392EA0C0F93EA0C0F6FD01A4480EAF9
:100DA000010C400218BF5FEA41211ED04FF00063E2
:100DB00043EA501043EA5111A0FB01310CF000400E
:100DC000B1F5000F3EBF490041EAD3715B0040EA34
:100DD000010062F17F02FD2A1DD8B3F1004F40EB04
:100DE000C25008BF20F00100704790F0000F0CF0D7
:100DF000004C08BF49024CEA502040EA51207F3A9B
:100E0000C2BFD2F1FF0340EAC250704740F4000075
:100E10004FF00003013A5DDC12F1190FDCBF00F066
:100E200000407047C2F10002410021FA02F1C2F114
:100E3000200200FA02FC5FEA310040F1000053EAB0
:100E40004C0308BF20EADC70704792F0000F00F0FE
:100E5000004C02BF400010F4000F013AF9D040EA04
:100E60000C0093F0000F01F0004C02BF490011F498
:100E7000000F013BF9D041EA0C018FE70CEAD15396
:100E800092EA0C0F18BF93EA0C0F0AD030F0004C16
:100E900018BF31F0004CD8D180EA010000F00040CA
:100EA000704790F0000F17BF90F0004F084691F088
:100EB000000F91F0004F14D092EA0C0F01D14202C2
:100EC0000FD193EA0C0F03D14B0218BF084608D18B
:100ED00080EA010000F0004040F0FE4040F40000D5
:100EE000704740F0FE4040F4400070474FF0FF0C68
:100EF0001CEAD0521EBF1CEAD15392EA0C0F93EAAF
:100F00000C0F69D0A2EB030280EA010C49024FEA00
:100F1000402037D04FF0805343EA111143EA1013B9
:100F20000CF000408B4238BF5B0042F17D024FF471
:100F3000000C8B4224BF5B1A40EA0C00B3EB510F4C
:100F400024BFA3EB510340EA5C00B3EB910F24BF35
:100F5000A3EB910340EA9C00B3EBD10F24BFA3EBBA
:100F6000D10340EADC001B0118BF5FEA1C1CE0D182
:100F7000FD2A3FF650AF8B4240EBC25008BF20F035
:100F8000010070470CF0004C4CEA50207F32C2BF89
:100F9000D2F1FF0340EAC250704740F400004FF026
:100FA0000003013A37E792F0000F00F0004C02BF57
:100FB000400010F4000F013AF9D040EA0C0093F021
:100FC000000F01F0004C02BF490011F4000F013B7B
:100FD000F9D041EA0C0195E70CEAD15392EA0C0FE3
:100FE00008D142027FF47DAF93EA0C0F7FF470AF1B
:100FF000084676E793EA0C0F04D14B023FF44CAF5E
:1010000008466EE730F0004C18BF31F0004CCAD1F2
:1010100030F000427FF45CAF31F000437FF43CAF2E
:101020005FE700BF4FEA4002B2F1FE4F0FD34FF02F
:101030009E03B3EB12620DD94FEA002343F0004345
:1010400010F0004F23FA02F018BF404270474FF0F3
:101050000000704712F1610F01D1420205D110F07A
:10106000004008BF6FF0004070474FF0000070472D
:1010700038B50022002304460D46FFF79FFC28B92F
:1010800020462946BDE8384000F00AB8204605F160
:10109000004100F005F8404261EB410138BD00BF5E
:1010A000D0B500220B4B06460F46FFF715FAFFF7A7
:1010B000EBFC0446FFF796F90022074BFFF70CFA0A
:1010C00002460B4630463946FFF74EF8FFF7DCFC88
:1010D0002146D0BD0000F03D0000F041284B0268E1
:1010E0009A4200D0704770B50446264D0122264929
:1010F0002648C0B003F0DCFDB5F9001022680029D5
:101100002B88526806DB5904D2B229D50A2A03D0AB
:1011100000232B8040B070BD1FAE43F400448222F8
:10112000002130462C8007F05FFDE2B218490DF136
:101130007E008DF87D2007F0F4FD22A97622684616
:1011400007F0EFFD96E80E00124804F041F9002187
:1011500040220F48298040B0BDE8704007F044BDF0
:101160000D2A09D0C3F30D0101339BB208483F2B70
:1011700042542B80CCD8CDE743F480432B80C9E781
:1011800000380140A40E002018120020D0110020C9
:10119000640E0020A80E0020704700BF00B50F4B62
:1011A00083B05869002240F0010058615B690A2150
:1011B00003F0010301930E20019B00F089FF0E2034
:1011C00000F0C2FF00220A210F2000F081FF0F2053
:1011D00003B05DF804EB00F0B7BF00BF00100240A1
:1011E000F0B5002489B0CDE90444CDE90644294B8B
:1011F00002269D69284F45F010059D619D690122D9
:1012000005F010050095009D9D69384645F02005C4
:101210009D619D69122105F020050195019D9D6943
:1012200045F004059D619D6905F004050295029D48
:101230009D6945F008059D6101259B6903F0080340
:101240000393039B01F02CFC384604A9CDE9046507
:10125000CDE9065601F02EF91023049303233846F6
:1012600004A90793CDE9055401F024F920220B4B82
:1012700004A90B48CDE90423069601F01BF9224688
:101280002946172000F024FF172000F05DFF09B069
:10129000F0BD00BF00100240000801400000111026
:1012A000000C014000234FF4804210B509480A4C5D
:1012B0000A49C0E90233C0E90041C0E90423C0E99A
:1012C0000633036201F00EFD00B910BDBDE8104009
:1012D00000F0A6B84010002000540040801A06001C
:1012E0000023D0B5144A016886B09142CDE902339B
:1012F000CDE9043301D006B0D0BD0322C0261227A9
:101300000E4C0F48A36902A943F00803A361A36927
:10131000CDE9026703F008030093009B059201F0FA
:10132000C9F8E36943F40013E361E36903F40013CC
:101330000193019B06B0D0BD005400400010024054
:10134000000C014010B50446642000F09DFE03F03F
:10135000C1FCFF2003F01EFE00220121102003F03B
:101360009BFF01222020114603F096FF022201215B
:10137000302003F091FF03220121402003F08CFF75
:101380002246BDE8104002230121512003F050BE47
:101390000023012230B5092091B04FF4803102249E
:1013A000CDE90233CDE90433089301930A920C92FC
:1013B00009934FF480320B934FF4E013CDE906010B
:1013C00006A8CDE90E230D9401F070FE08B172B6A7
:1013D000FEE703460F254FF48062214601A80294E0
:1013E000039305930195049202F04EF808B172B68A
:1013F000FEE711B030BD00BF08B500F021FEFFF7D9
:10140000C7FFFFF7EDFEFFF7C9FE00F00BF800F095
:10141000E1F900F087F9FFF745FF00F065FCFCE714
:1014200072B6FEE7F0B500242026022587B0274BD0
:1014300005949A69264F42F004029A619A692548F8
:1014400002F004020092009A9A6902A942F008028E
:101450009A619B69CDE9026703F0080301931026A6
:10146000019B0127049501F025F803231A4802A9DE
:101470000593CDE9026701F01DF8012210211648FD
:1014800001F00EFB22460121172000F021FE0A2365
:101490004FF482764FF4007138221048C362104B2B
:1014A000C0E90164C0E90344C0E90541C0E907247B
:1014B000C0E90944036002F035F908B907B0F0BD8E
:1014C00007B0BDE8F040FFF7ABBF00BF001002401F
:1014D00000001110000C014000080140981000208D
:1014E0000030014030B500241E4B026889B09A429A
:1014F000CDE90444CDE9064401D009B030BD03F57F
:1015000060439A69032542F480529A619A691648A9
:1015100002F480520192019A9A6942F001029A61A2
:101520009A6902F001020292029A9A6942F0040258
:101530009A619B69A02203F0040303930223039999
:1015400004A9CDE90423079500F0B4FF402201234C
:10155000054804A9CDE90424CDE9063500F0AAFF29
:1015600009B030BD003001400008014008B50268F4
:101570000A4B9A4200D008BD094AE0219369094804
:1015800023F48053936101F09BF9232000F0EAFDDE
:10159000BDE80840172000F0E5BD00BF0030014065
:1015A00000100240000801400E4B82B09A690E49BB
:1015B00042F001029A619A6902F001020092009AD7
:1015C000DA6942F08052DA61DB6903F080530193FB
:1015D000019B4B6823F0E06343F000734B6002B063
:1015E000704700BF0010024000000140FEE700BF4E
:1015F000FEE700BFFEE700BFFEE700BFFEE700BF5B
:10160000704700BF704700BF704700BF08B500F0CB
:1016100029FD024A13680133136008BD94100020AD
:10162000014800F0B1BE00BF40110020014800F0A9
:10163000ABBE00BF8811002008B500F0CFFCBDE8AC
:101640000840202001F032BA014802F047BE00BF36
:10165000F4100020014802F07DBC00BF981000206B
:101660000120704708B507F021FB162203464FF012
:10167000FF301A6008BD00BF08B507F017FB16233E
:101680000360FEE770B5161E07DD0C468D19AFF33B
:10169000008004F8010BA542F9D1304670BD00BFAF
:1016A00070B5161E07DD0C468D1914F8010BAFF34B
:1016B0000080A542F9D1304670BD00BF4FF0FF3029
:1016C000704700BF4FF4005300204B60704700BFCD
:1016D00001207047002070470D49034610B50D4AA0
:1016E0000D4C0868121B20B10344934207D80B60CD
:1016F00010BD0A4C2046034493420C60F7D907F012
:10170000D5FA0C2203464FF0FF301A6010BD00BF1F
:10171000F0100020005000200004000008160020F7
:10172000704700BF30B500234FF0804541F61F449D
:1017300040F2E7318022174887B0CDE90333C0E992
:101740000054C0E902310293009303618261059362
:10175000019302F0A1FC90B94FF480530D4802A907
:10176000029302F007FD88B9002200236946094868
:10177000CDE9002302F04EFE20B907B030BDFFF7DF
:101780004FFEE9E7FFF74CFE07B030BDFFF748FE1C
:10179000EAE700BFF41000200368B3F1804F00D0E7
:1017A000704700B503F50433D86983B040F00100F9
:1017B000D861DB69002203F0010301930B211C2097
:1017C000019B00F085FC1C2003B05DF804EB00F0E9
:1017D000BBBC00BF00234FF4E1310C2210B5094817
:1017E000094CC0E90113C0E90333C0E905230460D3
:1017F000C36102F045FE00B910BDBDE81040FFF71F
:101800000FBE00BFD01100200038014070B5002489
:10181000364B026886B09A42CDE90244CDE90444D1
:1018200001D006B070BD03F558439A69054642F4ED
:1018300080429A619A692E4802F480420092009A8E
:101840009A692C4E42F004029A619B694FF400722F
:1018500003F004030193019903210223059102A9D6
:10186000CDE9022300F026FE4FF4806200232048D9
:1018700002A9CDE90223049400F01CFE4FF40053AA
:1018800020228021C6E906231B4B3046C6E90144CD
:10189000C6E90444F160336000F08EFC00BB102206
:1018A000164C0023802162604FF40052C4E90231DB
:1018B000C4E90433A361124B2046EE6375622360D2
:1018C000E26100F079FC70B9002205212520AC63AB
:1018D000656200F0FDFB252000F036FC06B070BD0F
:1018E000FFF79EFDDBE7FFF79BFDEDE700380140CA
:1018F00000080140881100205800024040110020DB
:10190000440002400FB410B582B004AB0A4C53F847
:10191000042B4FF480712046019307F057F90246DB
:101920004FF0FF33214692B2044802F017FE02B096
:10193000BDE8104004B070471C120020D0110020F8
:10194000044B02689A4200D070470122024BC3F850
:10195000F02A70470038014000000020014802F0E2
:10196000A7BF00BFD0110020FFF7DAFE0B480C49DB
:101970000C4A002302E0D458C4500433C4188C42EB
:10198000F9D3094A094C002301E013600432A24252
:10199000FBD307F091F9FFF72FFD704700000020FF
:1019A000480E002088CF0008480E002004160020B2
:1019B000FEE7000010B5172000F006FB044608B94A
:1019C000204610BD172000F0CDFB204610BD00BF03
:1019D00000B97047172000F0B7BB00BF70B5454D88
:1019E00082B04FF0FF3200214420434E03F07EFFCF
:1019F00042492B7832688B707368C1F80A20122034
:101A00000022C1F80E3004F0DDFE01220021142076
:101A100004F02EFF40F2B22005F02AF94FF4967040
:101A200005F046FE052005F081FE022005F022FDAE
:101A3000334C0021442003F0EDFE2042F9D02B78F6
:101A400010F4804403F101032B700CD044204FF4B8
:101A50008142002103F04AFF0DF1060004F0E0FF8F
:101A600060B902B070BD2748FFF74CFF4420214603
:101A7000254A02B0BDE8704003F038BF00214C2079
:101A800003F0C8FE00F07F0128292DD91F4B204A02
:101A9000186811688842E4D1586851688842E0D1DA
:101AA000198912899142DCD11A46308832F80A1F0E
:101AB0008842D6D1718852889142D2D1154AD989AB
:101AC00010888842CDD151881A8A9142C9D1002507
:101AD0000122598A1048114B114C01801148256090
:101AE0001A70FFF70FFFBCE70022084804F030FF30
:101AF000CCE700BF7013002020130020440B00200F
:101B000000D0272404C20008009027244813002096
:101B1000300B0020241300201C1300202C13002065
:101B200028130020F0C100082DE9F0475E4D82B077
:101B30004FF0FF32002144205C4E03F0D7FE5C4999
:101B40002A7833888A700C2000224B8104F03AFEF8
:101B5000012200210E2004F08BFE022005F08AFCF9
:101B6000544C0021442003F055FE2042F9D02B783C
:101B700010F4804103F101032B700DD044204FF489
:101B80008142002103F0B2FE0DF1060004F048FF8F
:101B900048B902B0BDE8F0874420474A02B0BDE82A
:101BA000F04703F0A3BE00214C2003F033FE00F009
:101BB0007F01282972D90024404B414A9C7011684A
:101BC00018688842E5D1586851688842E1D1128985
:101BD00019899142DDD1327813F80B1F9142D8D187
:101BE0005A7873789A42D4D100F0F4F8DFF8D490A0
:101BF000354FC9E9000100F009F9344B386010EBAA
:101C0000030A41F100064FEA1A2040EA06607960B3
:101C100005F010FC44F2010C2AF4FF73DFF8B080E9
:101C200023F0010313EB0C03C8F8003006F0FF03A8
:101C300043F100032748C8F80430D9E9002300F035
:101C400001F9D7E90023244800F0FCF8D8E9002383
:101C5000224800F0F7F822492B78224616208B7094
:101C600004F0B0FD18200122214604F001FE0120FD
:101C700005F000FC00288CD10021442003F0CAFDAF
:101C80000306F9D580220021442003F02FFE002115
:101C90002B78144A013311602B707AE70022074831
:101CA00004F056FE87E700BF701300201C130020CD
:101CB000240B002000D02724009027244813002064
:101CC000140B0020401300203813002060015A0339
:101CD00030130020060B00200A0B00200E0B002002
:101CE000FC0A00202813002070B53048FFF72AFBBB
:101CF0002F48FFF707FE00F0E9F800F0C3F80220D4
:101D000000F0A2F805F020F80028FBD0002003F036
:101D100027FE013046D0274804F094F906460028F3
:101D20003CD1254805F044FE44F2010004F00CFDCE
:101D300044F2010004F026FD40F2B22004F098FFC6
:101D40004FF4967005F0B4FC052005F0EFFC03207D
:101D500005F004FB03F0E4FE044603F0DBFE02465C
:101D6000164B2146324416485C601A60154CFFF74A
:101D7000C9FD154D05E0FFF731FE4FF4FA7000F094
:101D800063F82378002BF6D0FFF7CEFE2B680A20ED
:101D90005A1C322B2A60C8BF2670F0E70B48FFF7A9
:101DA000B1FDFEE70A48FFF7ADFDFEE728C20008D7
:101DB00030C20008580B0020700B002020130020B8
:101DC00078C200082C1300202813002064C20008E9
:101DD00050C2000800B583B0684604F06BFE9DF861
:101DE00004009DF803209DF8021042EA00229DF8AD
:101DF000013041EA02219DF8000043EA012340EA54
:101E00000320090C03B05DF804FB00BF00B583B0EC
:101E1000684604F095FE9DF804009DF803209DF8A7
:101E2000021042EA00229DF8013041EA02219DF8A9
:101E3000000043EA012340EA0320090C03B05DF8E7
:101E400004FB00BF02607047034A116813685B1A05
:101E50009842FBD8704700BF94100020074B084AF7
:101E60001B68A2FB03239B0C03FB00F0800804D03B
:101E7000002300BF01339842FBD17047F80A0020CD
:101E800083DE1B4330B5012301220025032485B0E6
:101E900069460C48CDE900230295039400F00AFB43
:101EA0002A460121074800F0FBFD694605480194D8
:101EB00000F000FB044A116813685B1A012BFBD980
:101EC00005B030BD000801409410002038B50F4C1B
:101ED0000F4D204601F084FC00234FF482704FF434
:101EE00000710822C4E901032046C4E90333C4E9B0
:101EF0000531C4E90723C4E90933256001F012FC68
:101F000000B938BDBDE83840FFF78ABA9810002004
:101F100000300140F8B505460F4614461E46FFF74F
:101F200049FD002210210E4800F0BAFD35B974B900
:101F30000B480122102100F0B3FDF8BD4FF0FF3334
:101F40002A463946074801F063FC002CF0D04FF0D8
:101F5000FF3322463146034801F0E6FEE8E700BFC2
:101F600000080140981000202DE9F0410546884600
:101F700014461F46FFF71EFD00220646102110489A
:101F800000F08EFD5DB99CB9012210210C4800F0D3
:101F900087FD3046FFF71CFD0020BDE8F0812A4692
:101FA00041464FF0FF33074801F032FC002CEBD0E4
:101FB0004FF0FF3322463946024801F029FCE3E79F
:101FC0000008014098100020034B1B68034214BF17
:101FD00001200020704700BF0004014010B5054CEF
:101FE00001E004F0F5FE2021204600F053FD00281A
:101FF000F7D110BD000C014038B54FF47A730D4A8B
:10200000054611780C4AB3FBF1F31268B2FBF3F00A
:1020100000F0BAF808B90F2D01D9012038BD0446E7
:10202000024629464FF0FF3000F052F8034B20469D
:102030001D6038BD680B0020F80A00206C0B0020E2
:10204000074A08B51368032043F01003136000F03B
:102050002DF80520FFF7D0FFFFF7A6FA002008BDF6
:1020600000200240034A044B11681B780B441360A4
:10207000704700BF74130020680B0020014B1868E4
:10208000704700BF7413002038B50446FFF7F6FF11
:10209000631C054602D0044B1B781C44FFF7EEFF7F
:1020A000401BA042FAD338BD680B00204FF6FF0C4E
:1020B00006490302CA6803F4E06302EA0C02134310
:1020C00043F0BF6343F40033CB60704700ED00E0A2
:1020D0001B4B00B5DB68C3F30223C3F1070EBEF14F
:1020E000040F03F1040C28BF4FF0040EBCF1060FDF
:1020F0001CD9A3F1030C4FF0FF3303FA0CF322EACF
:1021000003024FF0FF3303FA0EF321EA030303FA4D
:102110000CF313431B010028DBB20ADB00F1604023
:1021200000F5614080F800335DF804FB002294461E
:10213000E7E7044A00F00F00024413765DF804FB61
:1021400000ED00E0FCEC00E0002807DB012300F0DC
:102150001F01034A40098B4042F82030704700BFFE
:1021600000E100E000280CDB01220649430900F0F1
:102170001F002033824041F82320BFF34F8FBFF36D
:102180006F8F704700E100E00138B0F1807F01D32C
:10219000012070474FF0E0234FF0F00C00220721A0
:1021A00010B4044C586184F823C010469A6110BCE6
:1021B0001961704700ED00E070B30346022230B5AC
:1021C0004FF0010C0024006883F821200268DD68CC
:1021D00022F47F5ED3E901210A4310492A43104DBE
:1021E0000144A5FB015109098900196419692EF000
:1021F000300E0A4359690A4399690A43D9690A4367
:10220000084942EA0E02D96302609C6383F82040C9
:1022100083F821C0204630BD01207047F8FFFDBF84
:10222000CDCCCCCC0000024070B490F82040012C02
:102230000BD0012590F8214080F82050AC425FFA85
:1022400084FC05D0002380F82030022070BC704749
:10225000022480F82140002484630468056C266809
:102260000CFA05F526F001062660C66B7560636002
:102270004368102BC36A0BBFA260A160E160E260FB
:1022800053B1236843F00E0323602368002043F01A
:102290000103236070BC7047236823F004032360AC
:1022A000236843F00A032360EFE700BF90F8212082
:1022B0000346022A06D004229A630022012083F8F2
:1022C000202070474FF0010C1A680020116821F09F
:1022D0000E011160116821F001011160D3E90F12A4
:1022E0000CFA02F24A60002283F821C083F8202011
:1022F000704700BF90F821200346022A03D0042231
:1023000001209A637047026810B511681B4821F0DC
:102310000E0111601168824221F00101116022D08A
:1023200017498A421DD014318A421ED014318A4284
:102330001ED014318A421ED014318A4214BF4FF08D
:1023400080724FF48012012000210E4C62605A6BA3
:1023500083F8210083F820100AB118469047002026
:1023600010BD1022EFE70122EDE74FF48072EAE79B
:102370004FF48052E7E74FF48032E4E70800024070
:102380001C00024000000240042270B4C66B016CC5
:10239000346803688A4022421D681FD06A071DD531
:1023A0001A68910603D41A6822F004021A603F4AA0
:1023B00093425CD01432934261D01432934268D07D
:1023C000143293426BD0143293425DD01432934254
:1023D00014BF4FF080624FF4800249E002228A402D
:1023E000224222D0AA0720D51A68910606D40121DC
:1023F0001A6822F00A021A6080F821102B4A9342D0
:102400002BD01432934242D01432934244D014322F
:10241000934236D01432934244D01432934214BFC4
:102420004FF000724FF4001218E008228A40224256
:102430001BD02A0719D51A68002422F00E021A6050
:102440000123026B03FA01F17160836380F820407D
:1024500080F821304AB170BC104702220021144C90
:10246000836A626080F820103BB970BC7047042218
:102470000F49C36A4A60002BF7D070BC184740224E
:10248000F6E74FF40052E9E74FF48022F0E720220C
:10249000E4E74FF48062EBE74FF40072DEE74FF4BD
:1024A0008042E5E74FF40032D8E700BF0800024061
:1024B000000002402DE9F04F0C6885B0002C00F0C0
:1024C000AD80B34B984200F0D7800022031D0193EA
:1024D00001250F27924613468346DFF8B88206E0AF
:1024E000013334FA03F002F1040200F0978005FA98
:1024F00003F030EA040C00EA0406F1D14C68122C17
:1025000000F2A080122C16D8DFE814F0AF00130000
:10251000980095011500150015001500150015000F
:102520001500150015001500150015001500940084
:102530009000D1F80CA0FF2E99BF5C469446019CF8
:10254000A2F1200C206807FA0CFE20EA0E000AFA1D
:102550000CFC40EA0C0020604C68E00064D5D8F820
:10256000180023F0030C40F00100C8F81800D8F858
:1025700018000CF1804C00F0010003900CF5803C39
:1025800003F0030903984FEA8909DCF8080007FA09
:1025900009FE20EA0E0E8048834500F02C817F481A
:1025A000834500F039817E4883450CBF0320042019
:1025B00000FA09F040EA0E00CCF80800DFF8E4C1A8
:1025C00014F4801FDCF8080014BF3043B043CCF88B
:1025D0000800DFF8D0C114F4001FDCF80C0014BFB1
:1025E0003043B043CCF80C00DFF8B8C114F4003F1E
:1025F000DCF8040014BF3043B04314F4803F694C4E
:10260000CCF8040020680CD0304320600C68013303
:1026100034FA03F002F104027FF469AF05B0BDE8BB
:10262000F08F20EA060020600C6859E7C86800F1C6
:102630000C0A80E7C86800F1040A7CE7C86800F16A
:10264000080A78E7DFF860C164450ED000F2D9804F
:10265000ACF5801C644508D00CF5702C644504D0A2
:10266000ACF5801C64457FF466AF8C68002C40F0AC
:10267000D9804FF0040A5EE74FF000096FF01F05A4
:1026800001274FF00F0E4B46DFF808C1DFF81C8121
:1026900005E0013334FA03F205F10405BED007FA70
:1026A00003F232EA040A04EA0206F2D14C68122C60
:1026B00000F2C480122C16D8DFE814F0D200130008
:1026C000DF00F400150015001500150015001500B9
:1026D0001500150015001500150015001500E30084
:1026E000DB00D1F80C90FF2E62D9AA46444622683E
:1026F0000EFA0AFB22EA0B0209FA0AFA42EA0A0275
:1027000022604A68D40057D5DCF8184003F0030A69
:1027100044F00104CCF81840DCF818404FEA8A0A6B
:1027200004F001040394039C23F0030404F18044A7
:1027300004F58034D4F808B00EFA0AFA2BEA0A0A33
:10274000C4F808A0D40239D5DFF858A0DAF8084058
:102750003443CAF8084094023AD5DFF848A0DAF8C2
:102760000C403443CAF80C4094033BD5DFF834A046
:10277000DAF804403443CAF804400A4C12F4803FAB
:1027800022680CBFB243324322600C6881E700BF6D
:102790000008014000100240000C01400010014000
:1027A0000014014000040140000022100408014010
:1027B00004464FEA830A9AE70C686AE7DFF8F0A05C
:1027C000DAF8084024EA0604CAF808409402C4D49F
:1027D000DFF8DCA0DAF80C4024EA0604CAF80C4062
:1027E0009403C3D4DFF8C8A0DAF8044024EA06044E
:1027F000CAF80440C1E7012000FA09F040EA0E00DF
:10280000DAE6DFF8B0C064453FF42FAF0CF5803C4A
:1028100064457FF490AE28E7022000FA09F040EA10
:102820000E00C9E6012C4FF0080A0CBFCBF81000CF
:10283000CBF814007FE64FF0000A7CE6DFF878A0C2
:1028400054450DD021D8AAF5801A544508D00AF570
:10285000702A544504D0AAF5801A54457FF443AF3A
:102860008C68E4B1012C154C1FD062614FF008094F
:1028700039E7CA6802F10C0935E7CA6802F10809AC
:1028800031E7CA6802F104092DE7DFF828A05445B2
:10289000E6D00AF5803A54457FF425AFE0E74FF0E3
:1028A000040920E74FF000091DE72261DEE700BFC1
:1028B0000004014000003110000022100008014017
:1028C000002900F0DA802DE9F04F6C4B83B098427C
:1028D00078D04FF0040A4FF0000E00EB0A0301938A
:1028E00001274FF00F097346654E49E0DFF894B1B8
:1028F000584562D0DFF890B158450ABF4FF0030B3E
:102900000AFA05FB0BFA05FBDC456FEA02051DD14F
:10291000D6F800C00CEA050CC6F800C0D6F804C012
:102920000CEA050CC6F804C0D6F80CC00CEA050C7D
:10293000C6F80CC0D6F808C00CEA050CC6F808C0EA
:10294000D4F808C02CEA080CC4F808C0FF2A99BFC4
:102950000446F446019CAEF1200C226809FA0CF8FA
:1029600022EA08020AFA0CFC42EA0C022260C2685F
:102970002A40C260013331FA03F20EF1040E19D07D
:1029800007FA03F20A40F5D023F0030404F180446F
:10299000DFF8F8B004F5803403F00305D4F808C07C
:1029A000AD0009FA05F8584508EA0C0C9ED107FA63
:1029B00005FBA9E703B0BDE8F08F4FF0020B0BFA5F
:1029C00005FBA1E76FF01F0600234FF0010C4FF04D
:1029D0000F0E4FF004082A4FDFF8B49014E035468C
:1029E0004C4622680EFA05FB22EA0B0208FA05F5AE
:1029F0002A432260C2680AEA0202C260013331FA45
:102A000003F206F10406D5D023F003020CFA03F416
:102A100002F1804214EA010502F58032EED003F0A3
:102A20000304D2F808B0A4000EFA04F414EA0B0F61
:102A30006FEA050A1CD1D7F800B00AEA0B0BC7F8F9
:102A400000B0D7F804B00AEA0B0BC7F804B0D7F807
:102A50000CB00AEA0B0BC7F80CB0D7F808B00AEABA
:102A60000B0BC7F808B0D2F808B02BEA0404946046
:102A7000FF2DB4D804469D00B3E77047000801401D
:102A8000000401400010014000140140000C01400E
:102A9000040801408368194214BF012000207047D8
:102AA00002B9090401617047704700BF044A5169C7
:102AB000014200D1704708B55061FFF7F5FF08BD2E
:102AC0000004014030B50446481C83B021D123687E
:102AD00002E05A69550505D45A699207F9D50020D4
:102AE00003B030BD00216FF4806520201A6842F4E5
:102AF00000721A605D61216384F83D0084F83E1025
:102B0000236C43F0040323640023012084F83C3049
:102B1000E6E7206845690346AD07E0D44069400513
:102B2000E0D4CDE90012FFF7A9FA019A0099831ABF
:102B30009942206801D30029ECD143699B07E9D46D
:102B400000232022236384F83D2084F83E30236C48
:102B500013432364D8E700BF2DE9F041056884B032
:102B600006460A9C2868984640F48070631C174605
:102B7000286037D16C69E407FCD501F0FE012961BA
:102B800030464FF0FF310B9AFFF79CFF18B1012040
:102B900004B0BDE8F081336803905A6903929A69E2
:102BA0000392039A5A69100642D45A695105F9D51D
:102BB00000226FF4806020215861326386F83D1056
:102BC00086F83E20326C42F0040232640021326CFE
:102BD00086F83C10042ADAD11A6842F400721A60AE
:102BE000D5E75CB16B69DB0734D40191FFF746FA96
:102BF0000B9B3568C31A9C420199F2D26B69D807C6
:102C0000F0D400222023326386F83D3086F83E203F
:102C1000336C86F83C2043F0200333642B68DA05DC
:102C200002D54FF400733364032004B0BDE8F08193
:102C3000B8F1010F08D03A0A1A615A69140603D490
:102C40005A695005F9D5B3E70020FFB21F6104B0FF
:102C5000BDE8F08101F0FE012961304621460B9A62
:102C6000FFF730FF002892D1336803905A6903922E
:102C70009A690392039A5A69150619D45A6952053A
:102C800096D4FFF7FBF90B9BC31A9C42336801D320
:102C9000002CF0D15A6912F08002ECD1202132636D
:102CA00086F83D1086F83E20326C0A4332648DE788
:102CB000B8F1010FC8D03A0A1A615A691206C3D492
:102CC0005A6951053FF574AFFFF7D8F90B9BC31A4A
:102CD0009C42336801D3002CEFD15A6912F0800274
:102CE000EBD1DBE7002800F0B68038B590F83D3036
:102CF000044603F0FF02002B00F096802422236894
:102D000084F83D201A6822F001021A601A6842F421
:102D100000421A601A6822F400421A6000F076FC41
:102D20004E4A636893424DD84D4A90427AD94D4DF0
:102D30005A00A5FB0035431EB3FBF2F340F6FC7CC2
:102D40002268A80C5168013021F03F0141EA954109
:102D50005160116A013321F03F0101431162D169D1
:102D600013EA0C0F21F44F4121F0FF0161D104233C
:102D70000B43D3611168D4E9073021F0C00103434C
:102D80000B4313609168D4E9030321F40341034327
:102D900021F0FF010B439360D068D4E9053120F0A6
:102DA000FF000B430343D3601368002143F001038A
:102DB00013602023216484F83D30216384F83E10A1
:102DC000084638BD284A90422CD9264A274DA2FBF6
:102DD000002C4FF496724FEA9C4102FB01F12268ED
:102DE000A5FB01515568890925F03F0545EA9C4539
:102DF0005560156A013125F03F0529431162D169FB
:102E0000A56821F44F41013821F0FF01A5B903EB7A
:102E10004303B0FBF3F30133C3F30B03CBB143F430
:102E20000043A5E7012038BD80F83C20FEF758FAA2
:102E300064E7C3F30B039BE703EB830303EB830319
:102E4000B0FBF3F30133C3F30B0313B143F440437B
:102E50008EE701238CE70120704700BFA0860100A8
:102E60007F841E0083DE1B43FF083D00D34D6210AC
:102E70002DE9F043044683B098460E461746BDF848
:102E80002C90FFF7FBF894F83D30202B04D002265D
:102E9000304603B0BDE8F0830546206883699B0790
:102EA00016D5FFF7EBF8401B19282068F6D983697F
:102EB000DB4313F00203F1D12022236384F83D2089
:102EC00084F83E3084F83C30236C13432364DEE7FF
:102ED00094F83C30012BDAD0012384F83C300368AD
:102EE000D90772D53A464FF0210E4FF0400C00271B
:102EF00031460668434626F4006606600A9860621A
:102F00000C980195009084F83DE084F83EC0276459
:102F1000A4F82A90608D20856348E0622046FFF780
:102F20001BFE064628BB228D2368002A00F0B680CF
:102F30000C9A013261D15A6912061CD45A6957059C
:102F4000F9D500226FF4806020215861226384F853
:102F50003D1084F83E20226C42F0040222640021DD
:102F6000226C84F83C10042A03D11A6842F40072DF
:102F70001A6001268CE7D4F824C0208D654615F828
:102F8000017B411E1F61628D89B2013A92B2628556
:102F90005F6965627D07218514D531B95A69550786
:102FA00046D45A695005F9D5CBE79CF80120023880
:102FB0001A61628D81B2501E80B20CF1020262620F
:102FC000218560850029B6D1E8E7036843F0010355
:102FD000036087E7606A278D024612F801CB791EED
:102FE000C3F810C06262628D89B2013A92B2628502
:102FF0005A692185520728D441B35A691106E9D488
:103000005A6950059DD4FFF739F80C9A431B9A4230
:103010002CD223685A6912F08002EED1202122635B
:1030200084F83D1084F83E20226C0A43226496E71F
:10303000002120201A6842F400721A6084F83D00D2
:1030400084F83C1084F83E1022E799B95A69520777
:10305000EED45A6951053FF574AFFFF70FF80C9A9B
:10306000431B9A4214D39AB12368EFE7002AD0D0C9
:103070002368C2E74278023F1A61628DB9B2013A11
:10308000023092B26062218562850029B5D1DDE708
:1030900023685A6912F00402D8D1BFE70C9A0132B2
:1030A0003FF47CAFD2E700BF0000FFFF002800F034
:1030B000E4812DE9F04103680446DD0782B035D58F
:1030C00099494A6802F00C02042A00F0ED804A682F
:1030D00002F00C02082A00F0E3806368B3F5803F39
:1030E00010D0002B00F00A81B3F5A02F00F08081F2
:1030F0008D4B1A6822F480321A601A6822F48022FA
:103100001A6004E0884A136843F480331360FEF7C2
:10311000B5FF854E054605E0FEF7B0FF401B64286D
:1031200000F2E88033689A03F6D523689F0728D514
:103130007D4A516811F00C0F00F09680516801F043
:103140000C01082900F08C802369002B00F0168107
:103150000122764B744E1A60FEF790FF054605E09B
:10316000FEF78CFF401B022800F2C48033689807EA
:10317000F6D53368626923F0F80343EAC20333608B
:1031800023681A0729D45D074BD5674BDA69D0004D
:1031900000F184800125DA6942F08052DA61DB694E
:1031A00003F080530093009B614E3368D90540F1D2
:1031B0009180E368012B00F0F280002B00F0BE80CC
:1031C000052B594B1A6A00F0208122F001021A6285
:1031D0001A6A22F004021A62E6E0A369002B4CD0BE
:1031E0000122524B504EC3F88024FEF747FF05469C
:1031F00004E0FEF743FF401B02287BD8736A9B075D
:10320000F7D54C4B4C4A1B68A2FB03235B0A019386
:1032100000BF019B5A1E0192002BF9D123685D0764
:10322000B3D4E369C3B1404D6A6802F00C02082AC6
:1032300000F0CD800022022B3C4B1A6600F0ED809E
:10324000FEF71CFF044604E0FEF718FF001B0228EF
:1032500050D82B689B01F7D4002002B0BDE8F08164
:103260005268D6033FF570AF2F4A1268950725D5EF
:103270002269012A22D00120EFE72C4A2A4EC2F807
:103280008034FEF7FBFE054604E0FEF7F7FE401B28
:1032900002282FD8736A9F07F7D4BFE7002583E77A
:1032A0004A68D0037FF519AF1F4A126891037FF572
:1032B0003DAF6268002A7FF439AFDCE71A496069E4
:1032C0000A6822F0F80242EAC0020A601A077FF593
:1032D0005AAF82E7336843F480733360FEF7CEFE63
:1032E00007463368DA053FF564AFFEF7C7FEC01B3B
:1032F0006428F6D9032002B0BDE8F0810A4D2B689E
:1033000023F480332B602B6823F480232B60FEF79B
:10331000B5FE064604E0FEF7B1FE801B6428E9D83E
:103320002B689B03F7D400E70010024000004242E4
:1033300000700040F80A0020D34D6210504E41F258
:103340008838336A23F001033362336A23F00403BD
:103350003362FEF793FE074604E0FEF78FFEC01BC4
:103360004045C7D8336A9807F7D4002D3FF459AFCA
:10337000434AD36923F08053D36152E7414A404E18
:103380001360FEF77BFE054604E0FEF777FE401B68
:103390000228AFD833689907F7D42368F1E6384A92
:1033A000136A43F001031362FEF768FE41F28838A6
:1033B0000646334F04E0FEF761FE801B404599D876
:1033C0003B6A9B07F7D5002D3FF42BAFD0E7012BCD
:1033D0003FF451AF6B68226A03F4803191427FF46D
:1033E0004AAF606A03F47013181A18BF012034E75B
:1033F00003F18043A3F53C331A6842F480221A603B
:103400001A6842F480321A6081E642F004021A62BD
:103410001A6A42F001021A62C6E7FEF72FFE06465C
:1034200005E0FEF72BFE801B02283FF663AF2B68FA
:103430009901F6D4236AB3F5803F05D16A68A16883
:1034400022F400320A436A6001200D4D616A6A6805
:103450000B4322F474120B4913436B600866FEF7AA
:103460000DFE044605E0FEF709FE001B02283FF6AC
:1034700041AF2B689A01F6D5EEE60120704700BFF8
:103480000010024000004242002800F0A180564A8D
:103490002DE9F0411368044603F007038B420D4603
:1034A0000CD2136823F007030B431360136803F077
:1034B00007038B4202D00120BDE8F08123689E07FC
:1034C00014D5580704D549494A6842F4E0624A6075
:1034D000190704D545494A6842F460524A60434995
:1034E000A0684A6822F0F00202434A60DA0720D559
:1034F00062683E4B012A1B686CD0022A65D09E0789
:10350000D9D53A4E41F28838736823F00303134348
:103510007360FEF7B3FD074604E0FEF7AFFDC01B86
:1035200040455AD87368626803F00C03B3EB820F0E
:10353000F3D12D4A136803F00703AB4209D913688E
:1035400023F007032B431360136803F00703AB4218
:10355000B1D12368580706D52449E0684A6822F4A7
:10356000E06202434A60190707D5204A216953687F
:1035700023F4605343EAC10353601C494A6802F0D4
:103580000C03082B10D01A4B184A1A4852681A49D3
:10359000C2F30312805C194AC34008681360FEF747
:1035A0002BFD0020BDE8F0811548C2F38343D20310
:1035B000C35C14D50E484A6800FB03F31149C2F3FB
:1035C00040428A5CB3FBF2F3DEE79F0199D472E7D5
:1035D000012070479B0394D46DE703206CE70A4AEF
:1035E00002FB03F3D0E700BF0020024000100240BE
:1035F00000127A00E0C100086C0B0020F80A0020DD
:10360000F0C20008ECC2000800093D00044B054A66
:103610005B680549C3F30223CB5C1068D840704750
:1036200000100240F80A0020D8C10008044B054AE7
:103630005B680549C3F3C223CB5C1068D840704770
:1036400000100240F80A0020D8C100082DE9F0431C
:103650001F4683B015460C460A9E8046FEF70EFDB7
:103660003E44361AFEF70AFD2D4B01371A68C2F3A5
:10367000CB3206FB02F201920DD1D8F800209368FC
:1036800034EA03030CBF012300239D42F7D100203D
:1036900003B0BDE8F0838146D8F800309B6834EA77
:1036A00003030CBF01230023AB42F0D0FEF7E6FC7E
:1036B000A0EB0903B34207D2019B002B019B08BF7B
:1036C0000026013B0193E7E7D8E900315A68B1F5DC
:1036D000827F22F0E0025A6014D0D8F82820B2F598
:1036E000005F07D11A6822F400521A601A6842F487
:1036F00000521A6001220023032088F8512088F824
:103700005030C5E7D8F80820B2F5004F02D0B2F526
:10371000806FE2D11A6822F040021A60DDE700BF34
:10372000F80A0020002858D0F8B5436A0446002B58
:1037300044D00023C0E90433002094F85130A06243
:1037400003F0FF02002B3FD0D4E9013202264FF0F4
:10375000010C002502F4044203F482731343E2686F
:1037600084F85160266902F40062134306F00206F1
:1037700033436669A169276A06EA0C063343E669A2
:1037800007F0800E01F4007706F038063B4322680C
:10379000334343EA0E0303431068090C01F00401AC
:1037A00020F04000106013605160D369284623F474
:1037B0000063D361656584F851C0F8BD4268B2F515
:1037C000827FB9D0C361B7E7204684F85020FDF767
:1037D00089FEA06A00F40050B6E70120704700BFE0
:1037E00098B10223026810B580F85130136804467E
:1037F00023F040031360FDF7B9FE0023636584F8EE
:10380000503084F85130184610BD0120704700BF79
:103810002DE9F041044684B01D460F469046FEF760
:103820002DFC94F85130012B7DD10646D8B2002FE3
:1038300076D0B8F1000F73D094F85030012B72D0CD
:1038400000230322A36384F85120A38763652364C4
:10385000A4F836806364E387A36884F85000206886
:10386000B3F5004F01462763A4F8348007D10368FD
:1038700023F040030360036843F48043036003685C
:103880005B0654D5E3686268B3F5006F58D0002A30
:1038900040F094803B780373E38E226B013B01324E
:1038A0009BB22263E386E38E9BB2A3B1681C7BD1FB
:1038B00023689A68910740F18680226B12781A7308
:1038C000E28E236B013A92B2E286E28E013392B22B
:1038D0002363002AECD101222B46022120460096C8
:1038E000FFF7B4FE0246002875D12B468021204602
:1038F0000096FFF7ABFE00286DD1A36833B92268AC
:103900000393D368039393680393039B01220023DB
:1039100084F85120606D84F85030C01A18BF01201F
:1039200004B0BDE8F081022004B0BDE8F081036876
:10393000626843F040030360E368B3F5006FA6D10B
:10394000002A6ED0B8F1010F6BD0E38E9BB2002B32
:10395000C1D06B1C55D183689F070FD5226B32F8FD
:10396000023BC360E38E2263013B9BB2E386E38E9E
:103970009BB2002BAFD083689F07EFD4FEF77EFB8E
:10398000E38E9BB2002BA6D02068E4E7226B12786E
:103990001A73E38E226B013B01329BB22263E386F2
:1039A000E38E9BB2002B96D023689A689207EDD4E1
:1039B000FEF764FB801BA842F2D32AE0B8F1010FA6
:1039C0007FF471AF66E7FEF759FBE38E9BB2002BE5
:1039D0007FF46EAF7FE7636D43F0200363652023C0
:1039E00063658AE7226B32F8023BCB60E38E226389
:1039F000013B9BB2E386E38E9BB2002B3FF46BAF9F
:103A000021688B689A07EDD4FEF738FB831BAB4225
:103A1000F1D3012384F851300023032084F850307F
:103A20007EE737F8023BC360E38E2763013B9BB21E
:103A3000E3868AE72DE9F041044684B090461E46AD
:103A40000F46FEF71BFB94F851300546012B6268C8
:103A50000BD0B2F5827F40F09B80D9B2A368002BD7
:103A600040F09680042940F09380002F00F01881E8
:103A7000B8F1000F00F01481002E00F0118194F8CD
:103A80005030012B00F08480012384F8503094F8EA
:103A900051302168042B1CBF052384F851300023CA
:103AA0006365E687E686C4E910330B68C4F838809E
:103AB0005B06A6872763A68603D40B6843F0400302
:103AC0000B60E368B3F5006F66D0002A00F0D58084
:103AD000012E00F0D2800A9B0126013328D099E004
:103AE000226893689B070FD5E38E9BB263B15EB1EA
:103AF0000026236B1B781373E38E216B013B01318E
:103B00009BB22268E3862163936813F001030DD012
:103B1000E18F89B251B1D2681E46A36B1A70E38F50
:103B2000A26B013B01329BB2A263E387FEF7A6FAC8
:103B3000E38E9BB2002BD3D1E38F9BB2002BCFD16E
:103B40000122022120460A9B0095FFF77FFD0246D5
:103B5000002840F09C80802120460A9B0095FFF7BA
:103B600075FD002840F09380A36833B92268039361
:103B7000D368039393680393039B0122002384F883
:103B80005120606D84F85030C01A18BF012000E049
:103B9000022004B0BDE8F081002A40F0838037F8AD
:103BA000023BCB60E38E2763013B9BB2E3860A9B1B
:103BB0000126013325D078E02268936898070DD557
:103BC000E38E9BB253B146B1216B31F8023BD36017
:103BD000E38E2163013B9BB2E3860026936813F0DA
:103BE00001030CD0E18F89B249B11E46D368A26BA4
:103BF00022F8023BE38FA263013B9BB2E387FEF70F
:103C00003DFAE38E9BB2002BD6D1E38F9BB2002B03
:103C1000D2D195E7E38E9BB21BB9E38F9BB2002B09
:103C20008ED02268936899070FD5E38E9BB263B15B
:103C30005EB10026236B1B781373E38E216B013B6F
:103C400001319BB22268E3862163936813F001037C
:103C500003D0E18F89B2002959D1FEF70FFA0A9BF0
:103C6000401B9842D6D30123032084F8513000230F
:103C700084F8503004B0BDE8F0813B780B73E38EDC
:103C8000226B013B01329BB22263E38623E7636D23
:103C9000202243F0200363650023626584F85030DE
:103CA000012076E7012E82D179E7E38E9BB223B91A
:103CB000E38F9BB2002B3FF443AF226893689F07CA
:103CC0000DD5E38E9BB253B146B1216B31F8023B67
:103CD000D360E38E2163013B9BB2E38600269368A9
:103CE00013F001030CD0E18F89B249B11E46D368AD
:103CF000A26B22F8023BE38FA263013B9BB2E387F6
:103D0000FEF7BCF90A9B401B9842CED3ABE7D268C2
:103D10001E46A36B1A70E38FA26B013B01329BB26C
:103D2000A263E38799E700BF2DE9F0431D4690F8B1
:103D3000513083B0012B76D15FFA83F84368044693
:103D4000B3F5827F1746894603D18368002B00F0C4
:103D5000D180FEF793F90646B9F1000F5FD0002F2E
:103D60005DD094F85030012B5DD0012284F85020B2
:103D70000422002384F85120A2682168B2F5004F84
:103D80006365C4E910332363A386E787C4F83890DA
:103D9000E386A7870B4600F0A4800A68500603D488
:103DA0000A6842F040020A60E268002A41D1E28FCC
:103DB00092B2CAB16F1C0ED06BE01A7BA36B1A7063
:103DC000E28FA16B013A92B2E287E38F01319BB29D
:103DD000A1634BB123689A68D007EED4FEF74EF981
:103DE000E38F9BB2002BF5D16368B3F5827F00F0BF
:103DF0008B802B460022802120460096FFF726FC70
:103E0000002840F098800123002284F85130636D2F
:103E100084F85020B3EB020818BF4FF00108404669
:103E200003B0BDE8F0834FF00208404603B0BDE8A0
:103E3000F083E28F92B2002AD6D06A1C40D18B6800
:103E4000DB070FD5CA68A36B23F8022BE28FA363AD
:103E5000013A92B2E287E38F9BB2002BC4D08B6809
:103E6000DB07EFD4FEF70AF9E38F9BB2002BBBD040
:103E70002168E4E71A7BA36B1A70E38FA26B013B06
:103E800001329BB2A263E387E38F9BB2002BABD0DE
:103E900023689A68D107EDD4FEF7F0F8801BA8429A
:103EA000F2D315E0DB68A26B22F8023BE38FA2633A
:103EB000013B9BB2E387E38F9BB2002B94D0236836
:103EC0009A68D207EED4FEF7D9F8801BA842F2D345
:103ED000012384F8513000234FF0030884F8503058
:103EE0009DE70A6822F040020A600A6822F48042D4
:103EF0000A6052E700950425134680F851500A469F
:103F0000FFF798FD80468AE7A368B3F5004F19D004
:103F1000B3F5806F7FF46DAF21682B460A682046A9
:103F200022F040020A60002201210096FFF78EFB7A
:103F300000283FF468AF636D43F0200363652023DE
:103F4000636560E72268136823F04003136050E75D
:103F5000704700BF30B5026804465168936885B069
:103F600013F0400FC3F380150AD113F0010F47D1AE
:103F700098075ED508066FD49B0607D405B030BD00
:103F8000980742D5080667D49B0640D58806F5D524
:103F9000002D55D10020636D43F00103636503904C
:103FA00093680393136823F040031360039B636DCE
:103FB000002BE3D00120536823F0E00353608B070C
:103FC00084F851005AD05368E06C23F00303536027
:103FD00040B12C4B4363FEF78DF918B1636D43F08C
:103FE00040036365A06C0028C8D0264B4363FEF7EE
:103FF00081F90028C2D0636D43F040036365BDE7DB
:1040000011F0400FB4D0036C28E09D0616D48D0645
:10401000B4D594F85130032B16D00020636D43F0D3
:10402000040363650190D368019393680193019B36
:10403000BDE79D06A2D58B06ACD49FE788069DD52B
:1040400094F85130032B0DD100230293D3680293CF
:1040500093680293029B91E72046636C05B0BDE82C
:10406000304018470020636D43F0040363650190FE
:10407000D368019393680193019B8BE72046FFF778
:1040800067FF7BE78940000808B50023406AC387C3
:10409000C386FFF75DFF08BD002866D070B590F8B5
:1040A0003D30044603F0FF02002B59D00223226862
:1040B0002F4E84F83D30B242A569E068616813680C
:1040C00030D0B2F1804F2DD0A6F59436B2423ED01A
:1040D00006F58066B2423AD023F080032B4313608A
:1040E000D0629162012353611369DB0703D5136921
:1040F00023F001031361012384F8463084F83E3035
:1041000084F83F3084F8403084F8413084F84230FD
:1041100084F8433084F8443084F8453084F83D30E6
:10412000002070BDA66823F070033343266923F492
:104130004073334323F080032B4313600C4BD06256
:104140009A4208BF6369916208BF1363CAE7A66811
:1041500023F070033343266923F440733343BBE7F2
:1041600080F83C20FDF718FBA0E70120704700BF56
:10417000002C014090F83C20012A6ED0034630B458
:10418000012002241A6883F83C0083F83D409468BB
:1041900024F47F4424F0770494600C68602C76D07B
:1041A00011D8402C5BD02ED8202C04D000F288806F
:1041B00034F010011FD1916821F07001214341F0CA
:1041C0000701916016E0B4F5805F13D0B4F5005F8D
:1041D00033D0702C0FD1D1E9015094682843CD68B9
:1041E00024F47F4140EA052008439060916841F043
:1041F0007701916000200121002283F83D1083F8AF
:104200003C2030BC7047502CF5D14868CC68116A0E
:1042100021F00A010843116A21F00101116291693C
:1042200021F0F00141EA041191611062916821F0DE
:10423000700141F057019160DCE7D1E901509468C9
:104240002843CD6824F47F4140EA0520084390606C
:10425000916841F480419160CCE702207047486842
:10426000CC68116A21F00A010843116A21F00101AA
:104270001162916921F0F00141EA0411916110622B
:10428000916821F0700141F047019160B2E7486800
:10429000CC68116A21F0A00141EA0011106A20F0F7
:1042A00010001062906920F4704040EA0430906180
:1042B0001162916821F0700141F06701916099E706
:1042C000302C3FF478AF96E7704700BF704700BFCF
:1042D000704700BF704700BF704700BF036870B5EC
:1042E000DE681D690446A90701D5B20751D46907E4
:1042F00001D572073AD42B0701D5300724D4EA063A
:1043000001D5F30610D4E80701D5F10757D42A06E2
:1043100001D533065BD4680601D571065FD4AA06C1
:1043200001D5B30642D470BD6FF010010822236896
:10433000204619612277DB6913F4407F63D0FFF7D1
:10434000C7FF00232377DEE76FF00801042223680C
:10435000204619612277DB69990751D1FFF7B6FF33
:104360002046FFF7B7FF00232377C8E76FF004016B
:10437000022223682046196122779B6913F4407F4B
:104380003BD1FFF7A3FF2046FFF7A4FF00232377CD
:10439000B1E76FF002021A61012202779B699B0765
:1043A00025D0FFF795FF00232377A0E76FF02002C9
:1043B00023682046BDE870401A6100F05DB86FF0D8
:1043C0000102236820461A61FFF77EFF9FE76FF026
:1043D0008002236820461A6100F050F89BE76FF0D6
:1043E0004002236820461A61FFF776FF97E7FFF740
:1043F0006DFF2046FFF76EFFD5E7FFF769FFC5E7C2
:10440000FFF766FFAFE7FFF761FF2046FFF762FFA8
:1044100097E700BF90F83C20012A27D003460220EE
:104420001A6830B483F83D0050680C68104D20F0D5
:1044300070002043AA429468506009D0B2F1804FC6
:1044400006D00C48824203D000F58060824204D13D
:10445000496824F080040C4394600022012183F811
:104460003C2083F83D10104630BC70470220704756
:10447000002C014000040040704700BF704700BF9F
:10448000002865D070B590F84130044603F0FF0273
:10449000002B55D0D4E902262421236884F841104A
:1044A000D968206921F40051A56902436069D96087
:1044B0001969024321F4405131431961D9682548F3
:1044C00021F4B05121F00C010A43DA605A698342A9
:1044D00022F4407242EA05025A6136D0FFF796F89C
:1044E000626800EB8003920003EB8303B3FBF2F3FB
:1044F0004FF0640E00254FF0200C17482168A0FBF8
:10450000036252090EFB12331B013233A0FB03037B
:10451000120102EB53128A600B69284623F4904380
:104520000B614B6923F02A034B61CB6843F40053C2
:10453000CB60656484F841C084F842C0656370BD97
:1045400080F84020FDF762F9A4E7FFF76FF8C7E7AE
:1045500001207047003801401F85EB512DE9F843D9
:10456000164690F84120202A55D10D4601B116B9C2
:104570000120BDE8F8831F464FF0000821230446C0
:10458000C0F8448080F84130FDF778FDA36881468B
:10459000B3F5805FA684E68440D0E38C22689BB2AA
:1045A000002B47D07B1C24D113681F06FCD5002D9F
:1045B0002CD015F8013B5360E38C013B9BB2E384A4
:1045C000E38C9BB2002BEFD113685906FCD5202356
:1045D00084F841300020BDE8F883002D3DD015F867
:1045E000013B5360E38C013B9BB2E384E38C9BB2C1
:1045F00013B313681E06F0D4FDF740FDA0EB0903CA
:104600009F4211D387B12268D368F2E738F8023BA2
:10461000C3F30803CFE70220BDE8F8832369002B2A
:10462000BBD1A8461D46B8E7202384F841300320BB
:10463000BDE8F883781CC7D013685B06C7D4FDF7C4
:104640001DFDA0EB09039F42EED3002FECD02268A2
:10465000D36813685B06F2D5B9E738F8023BC3F3B9
:104660000803BEE7704700BF08B5406A0368596990
:1046700090F84120212A0BD0596990F84220222A33
:104680001ED0436C43F010034364FCF785FD08BD66
:104690000906F1D50022C28403F10C0252E8002F72
:1046A00022F0C00203F10C0C4CE800210029F3D1E8
:1046B000202280F84120596990F84220222AE0D136
:1046C0004A06DED50022C28503F10C0252E8002F13
:1046D00022F4907203F10C0C4CE800210029F3D174
:1046E00003F1140252E8002F22F0010203F1140C2E
:1046F0004CE800210029F3D1026B012A05D02022C9
:10470000002380F842200363BBE703F10C0252E868
:10471000002F22F0100203F10C0C4CE800210029BC
:10472000F3D1ECE708B50023406AC385C384FCF7E6
:1047300033FD08BD704700BF08B50123406A4363DD
:10474000036B012B02D0FFF78DFF08BD818D490857
:10475000FFF7F0FF08BD00BF08B50368406A1A689C
:1047600012F020022BD10368C28503F10C0252E83B
:10477000002F22F4807203F10C0C4CE80021002978
:10478000F3D103F1140252E8002F22F0010203F1E9
:10479000140C4CE800210029F3D103F1140252E873
:1047A000002F22F0400203F1140C4CE800210029F4
:1047B000F3D1202280F84220026B012A07D0002387
:1047C0004363036B012B0FD0FCF788FC08BD03F19A
:1047D0000C0252E8002F22F0100203F10C0C4CE8FE
:1047E00000210029F3D1EAE7818DFFF7A3FF08BD7F
:1047F00083680168B3F5805F826A42D0002B39D0AC
:104800004B6803F07F031370826A0132C38D8262AA
:10481000013B9BB2C385002B32D14FF0200C00B579
:10482000026883B0D16821F02001D160D16821F401
:104830008071D160516921F00101516180F842C05D
:104840004363016B012925D1036302F10C0353E893
:10485000003F23F0100302F10C0C4CE8003100295A
:10486000F3D11368DB061AD4818DFFF763FF03B021
:104870005DF804FB0369002BC2D14B68DBB2C2E7D1
:1048800070470369002BF8D14B68C3F3080322F883
:10489000023BBBE7FCF722FC03B05DF804FB0023FE
:1048A00001931368019353680193019BDCE700BFF8
:1048B00030B5036804461A6883B012F00F0FDD6844
:1048C00059696FD1910602D5A90600F1A280216B2A
:1048D00001290BD0100602D5290600F1A48052064A
:1048E00002D5680600F1BE8003B030BDD006F1D518
:1048F000E906EFD5002201921A6801925A680192E6
:10490000019A5A69550640F13B81E06B0268526892
:1049100092B2002AE8D0A18D9142E5D9E285826960
:10492000202A36D003F10C0252E8002F22F48072C4
:1049300003F10C0545E800210029F3D103F114022D
:1049400052E8002F22F0010203F1140545E800218E
:104950000029F3D103F1140252E8002F22F04002A3
:1049600003F1140545E800210029F3D1202284F841
:104970004220216303F10C0252E8002F22F01002C2
:1049800003F10C0545E800210029F3D1FDF78EFC69
:10499000A18D02236363E38D2046C91A89B2FFF714
:1049A000C9FEA1E711F0010140F0CF8015F4907F1E
:1049B0008DD0D0070BD5E80540F1DE80606C40F06B
:1049C0000100606450075CD5002940F0C280900768
:1049D00066D5100700F1CD80616C002984D0910666
:1049E00009D5AA0607D594F84220222A03D12046E9
:1049F000FFF7FEFE23685A69616C02F0400201F085
:104A0000080152EA010555D12046FCF7C5FB656453
:104A10006AE790F84230222B7FF466AF03B0BDE81E
:104A20003040FFF7E5BE94F84120212A7FF45CAFC7
:104A3000A168226AB1F5805F00F0DD80511C21621F
:104A400012785A60E28C013A92B2E284002A7FF432
:104A50004BAFDA6822F08002DA60DA6842F0400296
:104A6000DA6041E72021DA68204622F04002DA606D
:104A700084F84110FCF764FF36E7E8059ED4500740
:104A800067D490070CD50029A3D0616C41F00401D4
:104A900061641107A0D5616C41F0080161649BE776
:104AA000100799D505F020000843F4D1626C002A64
:104AB000A1D119E703F10C0252E8002F22F4907201
:104AC00003F10C0040E800210029F3D103F11402A6
:104AD00052E8002F22F0010203F1140040E8002107
:104AE0000029F3D1226B012A22D00022202184F850
:104AF000421022635A69550634D503F1140252E874
:104B0000002F22F0400203F1140040E800210029A8
:104B1000F3D1E06B30B33D4B4363FDF7EBFB002873
:104B20003FF4E2AEE06B436B03B0BDE830401847A2
:104B300003F10C0252E8002F22F0100203F10C00E6
:104B400040E800210029F3D1CFE7D00795D45007E2
:104B50000CD5616C41F002016164910795D4110795
:104B600099D439E72046FCF717FBBDE691078CD4B2
:104B7000F5E7A9068FD499E750073FF528AF80E7FE
:104B8000E18DE28DA08D92B289B2002A3FF4ACAEE5
:104B9000411A89B200293FF4A7AE03F10C0252E892
:104BA000002F22F4907203F10C0545E80020002844
:104BB000F3D103F1140252E8002F22F0010203F1B5
:104BC000140545E800200028F3D1202284F8422073
:104BD000206303F10C0252E8002F22F0100203F1CF
:104BE0000C0545E800200028F3D10223204663632A
:104BF000FFF7A0FD78E6216900297FF41FAF32F8A6
:104C0000021BC1F30801596022621BE72547000817
:104C1000F0B500254FF0220E044683B0456480F8BD
:104C200042E0816282851346C06B0A46DFF874C099
:104C300021681D4F1D4E0431C0E90AC7C0E90C654B
:104C4000FDF7F2FA23680195196822690191596804
:104C5000019101995AB103F10C0252E8002F42F47C
:104C6000807203F10C0040E800210029F3D103F128
:104C7000140252E8002F42F0010203F1140040E850
:104C800000210029F3D103F1140252E8002F42F071
:104C9000400203F1140141E800200028F3D103B0E1
:104CA000F0BD00BF594700083947000869460008B1
:104CB00090F842C0BCF1200F05D130B401B122B947
:104CC00030BC01207047022070470024046330BCD0
:104CD000FFF79EBF2DE9F047642086B001244FF016
:104CE000FF35FDF7B1F8AE234FF020094FF0100A61
:104CF000A74F0DF11706CDE901458DF817300022B9
:104D00002346782138460096FEF7B2F82346CDE9CF
:104D1000014500227821384600968DF81790FEF75D
:104D2000A7F82346CDE901450022782138460096B0
:104D30008DF817A0FEF79CF8B023CDE901458DF85A
:104D4000173000222346782138460096FEF790F867
:104D5000C8234FF00008CDE901458DF81730002237
:104D60002346782138460096FEF782F823464246CD
:104D7000CDE901457821384600968DF81780FEF779
:104D800077F823464246CDE901457821384600961A
:104D90008DF817A0FEF76CF840234246CDE9014597
:104DA0008DF817307821234638460096FEF760F8D4
:104DB00081234246CDE901458DF8173078212346FD
:104DC00038460096FEF754F823464246CDE90145A1
:104DD0007821384600968DF81750FEF749F8A12340
:104DE0004246CDE901458DF81730782123463846F3
:104DF0000096FEF73DF8A6234246CDE901458DF821
:104E000017307821234638460096FEF731F8A8235C
:104E10004246CDE901458DF81730782123463846C2
:104E20000096FEF725F83F234246CDE901458DF86F
:104E300017307821234638460096FEF719F8A42348
:104E40004246CDE901458DF8173078212346384692
:104E50000096FEF70DF8D3234246CDE901458DF8C3
:104E600017307821234638460096FEF701F823468E
:104E70004246CDE901457821384600968DF81780E5
:104E8000FDF7F6FFD5234246CDE901458DF81730F1
:104E90007821234638460096FDF7EAFFF023424684
:104EA000CDE901458DF81730782123463846009624
:104EB000FDF7DEFFD9234246CDE901458DF81730D5
:104EC0007821234638460096FDF7D2FF222342463A
:104ED000CDE901458DF817307821234638460096F4
:104EE000FDF7C6FFDA234246CDE901458DF81730BC
:104EF0007821234638460096FDF7BAFF1223424632
:104F0000CDE901458DF817307821234638460096C3
:104F1000FDF7AEFFDB234246CDE901458DF81730A2
:104F20007821234638460096FDF7A2FF23464246E5
:104F3000CDE901457821384600968DF81790FDF7A8
:104F400097FF8D234246CDE901458DF81730782132
:104F5000234638460096FDF78BFF14234246CDE9E1
:104F600001458DF817307821234638460096FDF725
:104F70007FFF2346CDE90064AF24424638467821BE
:104F800002958DF81740FDF773FF06B0BDE8F08776
:104F9000401000202DE9F0474FF0B00A4FF0FF38E5
:104FA000814686B0214F0DF117060125002400220D
:104FB00078212B463846CDF80880009601958DF86B
:104FC00017A0FDF755FF224678212B463846CDE93C
:104FD000015800968DF81740FDF74AFF4FF0100C6E
:104FE000224678212B463846CDE9015800968DF8A7
:104FF00017C08024FDF73CFF01234022782138466A
:10500000CDE9015800968DF81790FDF731FF631E2A
:1050100013F0FF04F0D10AF1010A5FFA8AFABAF13B
:10502000B80FC2D106B0BDE8F08700BF4010002025
:105030002DE9F04F012B8DB01E468346059100F0FF
:10504000B480022B40F0A3801378002B00F09F80E7
:10505000002101274FF0FF36DFF830A208910DF153
:105060002F040992A3F12008BBF1780F5FFA88F8AA
:1050700000F290804FEA1B1343F0100306930BF0ED
:105080000E0343F001030BF1080B07935FFA8BFB50
:10509000059B0022503B78218DF82F30504601238C
:1050A000CDE901760094FDF7E3FE06980123002286
:1050B00078218DF82F00CDE9017650460094FDF758
:1050C000D7FE079801238DF82F0000227821504643
:1050D000CDE901760094FDF7CBFE6D4B4FEA081940
:1050E00003EB0815083303EB0818CDE901760094AB
:1050F00015F8013B40228DF82F30782101235046CE
:10510000FDF7B6FEA845F0D1059B00224F3B782164
:105110008DF82F3050460123CDE901760094FDF73C
:10512000A7FE069B002278218DF82F3050460123E0
:10513000CDE901760094FDF79BFE079B00228DF8D8
:105140002F30782101235046CDE901760094FDF7F8
:105150008FFE4F4B09F107051D440F339944CDE9EC
:105160000176009415F8013F40228DF82F30782108
:1051700001235046FDF77CFE4D45F0D1089B099A6E
:105180000133DBB20893D35C002B7FF46BAF0DB01F
:10519000BDE8F08F059B01220133DBB2059310239C
:1051A0004FF0080BCDE9063272E71578002DEED0EE
:1051B000203DBBF17E0F4FF000094FF0FF38334F19
:1051C0000DF12F040792EDB255D80BF00E034FEA04
:1051D0001B1A43F001030BF1060B4AF0100A069369
:1051E0005FFA8BFB059B0022503B78218DF82F3016
:1051F00038460123CDE901680094FDF739FE01230B
:10520000002278213846CDE9016800948DF82FA05E
:10521000FDF72EFE069B00228DF82F30782101230A
:105220003846CDE901680094FDF722FE194B05EBE5
:10523000450503EB450A063303EB45051AF8013B28
:1052400040228DF82F30782101233846CDE90168BE
:105250000094FDF70DFE5545F0D1079B09F10109BA
:105260005FFA89F913F80950002D90D0203DBBF169
:105270007E0FEDB2A9D9059B4FF0100A0133DBB2C6
:10528000059301234FF0060B0693ABE74010002077
:1052900000C30008F0C800080B462DE9F04F9C46FB
:1052A00001264FF0FF3704468BB00DF12705ACF116
:1052B000500C9246782100220793CDE901673346CE
:1052C000404800958DF827C0FDF7D2FD230943F033
:1052D00010030022782105938DF8273004F00E0486
:1052E0003346CDE9016737480095FDF7C1FD44EA33
:1052F000060306938DF82730002278213346CDE946
:10530000016730480095FDF7B3FDDFF8BCB04FEA08
:105310004A1A0BF10F080AEB0704DFF8A890D044F3
:105320005C4414F8012F01238DF8272078214022B6
:105330004846CDE901670095FDF79AFD4445F0D157
:105340004FF0FF394FF00108079B00224F3B7821B7
:10535000CDE901678DF827301A4801230095FDF744
:1053600087FD059B00227821CDE901678DF8273064
:10537000144801230095FDF77BFD069B02978DF8ED
:105380002730002201237821CDE900560D48FDF792
:105390006FFD0E4B0AF10F040A4F5C449A4414F857
:1053A000016F0123402278213846CDE9018900951B
:1053B0008DF82760FDF75CFD5445F0D10BB0BDE8DA
:1053C000F08F00BF401000207C0B00209B0B0020C2
:1053D00084B010B50DF10C0C8CE80E00D0E96331EF
:1053E0005A1C92FBF1FC01FB1C220446D0F88801F8
:1053F00090421AD003EB8313BDF80C205B00981C7D
:10540000E2520DF10E01120A204403F08AFCD4E9A5
:1054100063320120034493FBF2F102FB1133C4F821
:105420008C31BDE8104004B070470020BDE810404A
:1054300004B0704700B5B2F5445F83B001EB000CD7
:1054400037D24FEA1C41490201F4785186460CF0EC
:105450007F0041EA800C4FEA1C2C41EA80018DF864
:1054600005104CF080018DF804105AB188B9144928
:1054700001200968097DB1B11248FCF743FA03B075
:105480005DF804FB4FEA4E0161F07E018DF80410D7
:10549000EDE741F040018DF8041009490220096848
:1054A000097D0029E8D101A9FCF75EFD03B05DF894
:1054B00004FBDA21044B054A054802F0E7FA00BF75
:1054C0007C0C0020B4C2000890C2000834CB000855
:1054D000A0C2000810B5124B84B01B68CDE90212BF
:1054E0001C7DC309800003F4785300F4FE7003436D
:1054F0001A0A42F0C00243F003038DF805308DF81C
:10550000042024B10748FCF7FDF904B010BD0822BF
:1055100001A90DEB02030220FCF726FD04B010BD2B
:105520007C0C0020B4C200082DE9F041B2F5445FC4
:1055300082B0014456D24FEA114C4FEA4C2C0CF485
:10554000785C01F07F011E464CEA81039C465BBA01
:105550001446ADF804304FEA1C2CAAB10546C9B177
:105560004FF002084CF0400C8DF804C0204F334639
:105570002246404601A9FCF7CDFC3B681B7D022B6F
:105580000BD002B0BDE8F081ED211A4B1A4A1B483E
:1055900002F07CFA4FF00108E8E7182DF1D0184A24
:1055A0009DF80430B8F1020FD55C03D19DF80530A9
:1055B0006B40D55C344416F8013B6B40B442D55C7B
:1055C000F9D10DF10303012200211820FFF7ACFFF0
:1055D0009DF803309D42D4D03B685B6A002BD0D04D
:1055E0009847CEE7DA21074B034A044802F04EFA07
:1055F0007C0C0020D0C2000834CB0008A0C20008F8
:105600007813002090C2000842F2D62210B5194C3F
:10561000194982B023680191ADF800201B7DC3B108
:105620001648FCF76FF94FF6E070002147F6E2628A
:1056300023681C7AADF804008DF806408DF8071039
:10564000ADF800201B7D63B10C48FCF75BF902B09C
:1056500010BD042269460DEB02030220FCF784FC16
:10566000E1E7042269460DEB02030220FCF77CFC13
:1056700002B010BD7C0C0020FFFF8001B4C2000806
:1056800000B5C20902F4785200F07F0042EA8003BC
:105690001B0A83B042EA800243F0800301918DF837
:1056A00000308DF8012070B143F040038DF80030D8
:1056B0000C4B02201B681B7D5BB10B48FCF722F9E9
:1056C00003B05DF804FB074B01201B681B7D002B1A
:1056D000F3D1042269460DEB0203FCF745FC03B04D
:1056E0005DF804FB7C0C0020B4C20008012142F2EA
:1056F000D60270B5444C84B02368ADF80810ADF8FC
:105700000C201B7D0546002B3CD04048FCF7FAF8E6
:1057100003AE41F2D6022368ADF80850ADF80C2074
:105720001B7D002B3CD03948FCF7ECF8022242F2FA
:10573000D6012368ADF80820ADF80C101B7D4BB3E3
:105740003248FCF7DFF8042244F2560533460220C3
:105750000DEB0201ADF80450FCF7DCFB2368187D6B
:10576000022824D09DF80F109DF80E209DF80D30D2
:105770009DF80C0002EB012203EB022300EB032057
:1057800004B070BD022203AE3146104602ABFCF7F6
:10579000EBFBBEE73146104602ABFCF7E5FBD2E778
:1057A00002223146104602ABFCF7DEFBBEE746F2B2
:1057B0004006174B9DF804209DF805109A5CADF843
:1057C00008605140595C9DF80C204A409A5C9DF855
:1057D0000D104A409A5C9DF80E104A409A5C9DF864
:1057E0000F104A409D5C02A901220DF10303FCF752
:1057F00091FB9DF8033022689D42B3D0536A002B81
:10580000B0D09847AEE700BF7C0C0020B4C20008BF
:105810007813002070B58BB203440144DB0903F414
:10582000785301F07F0243EA82010B4684B049BA03
:105830000446ADF804100AB302261B0A43F04003E5
:105840008DF804300422274D03AB30460DEB0201E6
:10585000FCF760FB2B681B7D022B11D09DF80F100D
:105860009DF80E209DF80D309DF80C0002EB0122F2
:1058700003EB022300EB032004B070BD0126E1E737
:10588000182CEBD018499DF80430022ECB5C03D1C4
:105890009DF805205340CB5C46F240069DF80C2055
:1058A0009DF80F005340CB5C9DF80D20ADF80860CB
:1058B0005340CB5C9DF80E205340CB5C01225840F6
:1058C0000C5C0DF10303022002A9FCF723FB9DF8F9
:1058D00003302A689C42C1D0536A002BBED098473F
:1058E000BCE700BF7C0C00207813002000B583B01B
:1058F00001928AB202440144D20901F07F0302F40A
:10590000785242EA8301090A42EA830241F08001A7
:105910008DF800108DF8012073B10F4B41F040015C
:105920001B6802201B7D8DF800105BB10B48FBF754
:10593000E9FF03B05DF804FB074B01201B681B7DEA
:10594000002BF3D1042269460DEB0203FCF70CFB9C
:1059500003B05DF804FB00BF7C0C0020B4C200085B
:10596000F0B54FF0020C00240746654E85B035684F
:1059700003ABC5E90A44C5E90C44C5E90E44EC7320
:10598000A5F810C0AC826C810422012002A9ADF8F8
:105990000840FCF7BFFA33683D461B7D022B6DD0F3
:1059A0009DF80F209DF80E3003EB02239DF80D208B
:1059B00002EB03229DF80C3003EB0223514A23F043
:1059C0001003934203D04FF0FF3005B0F0BD042028
:1059D000FFF78CFE04460520FFF788FE07460A20E5
:1059E000FFF784FE3268C0F304401072002C3ED1F1
:1059F0002020FFF77BFE444B346898420CBF012304
:105A00000023E806637275D5A9066DD56A0665D4CC
:105A10002B065AD43368D87A08B98522DA729A7A72
:105A20000AB974229A721F20FFF760FE024633689B
:105A30001E205A73FFF75AFE10F07F0008BF2E2079
:105A400045F2D202336898738DF80800ADF80C2047
:105A50001B7D43B90122022002AB03A9FCF784FAA3
:105A6000002005B0F0BD2948FBF74CFFF8E7002FF8
:105A7000BED00028BCD0FFF7C7FDB9E7244B9DF886
:105A800008209DF80C009A5C214642409A5C9DF8E3
:105A90000D0042409A5C9DF80E004240985C9DF8D3
:105AA0000F2042409C5C18200DF107030122FFF7F4
:105AB0003BFD9DF807309C423FF472AF33685B6A50
:105AC000002B3FF46DAF98476AE70920FFF70EFE01
:105AD0003368C0B2D8720028A1D19EE70820FFF732
