:020000040800F2
:1000000000500020D91B0008951600089D16000816
:10001000A5160008AD160008B5160008000000007F
:10002000000000000000000000000000BD160008F5
:10003000C916000800000000D5160008E1160008E7
:10004000211C0008211C0008211C0008211C00089C
:10005000211C0008211C0008211C0008211C00088C
:10006000211C0008211C0008211C0008211C00087C
:10007000211C0008211C0008FD16000811170008AB
:10008000211C0008211C0008211C0008211C00085C
:10009000211C0008211C0008211C0008251700084D
:1000A000211C0008211C0008211C0008211C00083C
:1000B00039170008211C0008211C0008211C000819
:1000C000211C0008211C0008211C00084D170008F5
:1000D000211C0008211C0008211C0008211C00080C
:1000E000211C0008211C0008211C00080000000041
:1000F0000000000000000000000000000000000000
:0C01000000000000000000005FF808F1A3
:1001100010B5054C237833B9044B13B10448AFF341
:1001200000800123237010BD300300200000000078
:1001300054C3000808B5034B1BB103490348AFF390
:10014000008008BD000000003403002054C30008F4
:10015000034613F8012B002AFBD1181A0138704707
:1001600081F0004102E000BF83F0004330B54FEA68
:1001700041044FEA430594EA050F08BF90EA020FD5
:100180001FBF54EA000C55EA020C7FEA645C7FEA68
:10019000655C00F0E2804FEA5454D4EB5555B8BF8B
:1001A0006D420CDD2C4480EA020281EA030382EAFC
:1001B000000083EA010180EA020281EA0303362D8E
:1001C00088BF30BD11F0004F4FEA01314FF4801C61
:1001D0004CEA113102D0404261EB410113F0004F73
:1001E0004FEA03334CEA133302D0524263EB43032A
:1001F00094EA050F00F0A780A4F10104D5F1200EC8
:100200000DDB02FA0EFC22FA05F2801841F1000122
:1002100003FA0EF2801843FA05F359410EE0A5F1F6
:1002200020050EF1200E012A03FA0EFC28BF4CF027
:10023000020C43FA05F3C01851EBE37101F00045DD
:1002400007D54FF0000EDCF1000C7EEB00006EEBEA
:100250000101B1F5801F1BD3B1F5001F0CD3490874
:100260005FEA30004FEA3C0C04F101044FEA4452CB
:1002700012F5800F80F09A80BCF1004F08BF5FEA52
:10028000500C50F1000041EB045141EA050130BD32
:100290005FEA4C0C404141EB0101013C28BFB1F544
:1002A000801FE9D291F0000F04BF01460020B1FA8F
:1002B00081F308BF2033A3F10B03B3F120020CDA62
:1002C0000C3208DD02F1140CC2F10C0201FA0CF040
:1002D00021FA02F10CE002F11402D8BFC2F1200CA5
:1002E00001FA02F120FA0CFCDCBF41EA0C0190405B
:1002F000E41AA2BF01EB0451294330BD6FEA0404A4
:100300001F3C1CDA0C340EDC04F11404C4F120028E
:1003100020FA04F001FA02F340EA030021FA04F3A0
:1003200045EA030130BDC4F10C04C4F1200220FAF7
:1003300002F001FA04F340EA0300294630BD21FA35
:1003400004F0294630BD94F0000F83F4801306BFFB
:1003500081F480110134013D4EE77FEA645C18BFEF
:100360007FEA655C29D094EA050F08BF90EA020F86
:1003700005D054EA000C04BF1946104630BD91EA7E
:10038000030F1EBF0021002030BD5FEA545C05D181
:100390004000494128BF41F0004130BD14F58004C0
:1003A0003CBF01F5801130BD01F0004545F0FE4134
:1003B00041F470014FF0000030BD7FEA645C1ABF69
:1003C000194610467FEA655C1CBF0B46024650EAA0
:1003D000013406BF52EA033591EA030F41F40021CC
:1003E00030BD00BF90F0000F04BF0021704730B552
:1003F0004FF4806404F132044FF000054FF0000127
:1004000050E700BF90F0000F04BF0021704730B5E7
:100410004FF4806404F1320410F0004548BF4042BC
:100420004FF000013EE700BF42004FEAE2014FEA11
:1004300031014FEA02701FBF12F07F4393F07F4FEC
:1004400081F06051704732F07F4208BF704793F0EF
:100450007F4F04BF41F40021704730B54FF4607402
:1004600001F0004521F000411CE700BF50EA010205
:1004700008BF704730B54FF000050AE050EA0102AE
:1004800008BF704730B511F0004502D5404261EB1E
:1004900041014FF4806404F132045FEA915C3FF45F
:1004A000D8AE4FF003025FEADC0C18BF03325FEAFC
:1004B000DC0C18BF033202EBDC02C2F1200300FAAD
:1004C00003FC20FA02F001FA03FE40EA0E0021FAD2
:1004D00002F11444BDE600BF70B54FF0FF0C4CF4C0
:1004E000E06C1CEA11541DBF1CEA135594EA0C0F72
:1004F00095EA0C0F00F0DEF82C4481EA030621EAAD
:100500004C5123EA4C5350EA013518BF52EA0335E7
:1005100041F4801143F4801338D0A0FB02CE4FF099
:100520000005E1FB02E506F00042E0FB03E54FF0C9
:100530000006E1FB03569CF0000F18BF4EF0010EC1
:10054000A4F1FF04B6F5007F64F5407404D25FEABD
:100550004E0E6D4146EB060642EAC62141EA555170
:100560004FEAC52040EA5E504FEACE2EB4F1FD0CB2
:1005700088BFBCF5E06F1ED8BEF1004F08BF5FEA30
:10058000500E50F1000041EB045170BD06F00046E2
:1005900046EA010140EA020081EA0301B4EB5C048F
:1005A000C2BFD4EB0C0541EA045170BD41F4801187
:1005B0004FF0000E013C00F3AB8014F1360FDEBFAC
:1005C000002001F0004170BDC4F10004203C35DA88
:1005D0000C341BDC04F11404C4F1200500FA05F30B
:1005E00020FA04F001FA05F240EA020001F00042AC
:1005F00021F0004110EBD37021FA04F642EB060122
:100600005EEA430E08BF20EAD37070BDC4F10C044B
:10061000C4F1200500FA04F320FA05F001FA04F20F
:1006200040EA020001F0004110EBD37041F10001FB
:100630005EEA430E08BF20EAD37070BDC4F1200506
:1006400000FA05F24EEA020E20FA04F301FA05F26E
:1006500043EA020321FA04F001F0004121FA04F216
:1006600020EA020000EBD3705EEA430E08BF20EAE6
:10067000D37070BD94F0000F0FD101F00046400020
:1006800041EB010111F4801F08BF013CF7D041EAA2
:10069000060195F0000F18BF704703F000465200A6
:1006A00043EB030313F4801F08BF013DF7D043EA77
:1006B0000603704794EA0C0F0CEA135518BF95EA2D
:1006C0000C0F0CD050EA410618BF52EA4306D1D1B4
:1006D00081EA030101F000414FF0000070BD50EAD3
:1006E000410606BF1046194652EA430619D094EA5D
:1006F0000C0F02D150EA013613D195EA0C0F05D147
:1007000052EA03361CBF104619460AD181EA03019A
:1007100001F0004141F0FE4141F470014FF0000052
:1007200070BD41F0FE4141F4780170BD70B54FF0ED
:10073000FF0C4CF4E06C1CEA11541DBF1CEA13556D
:1007400094EA0C0F95EA0C0F00F0A7F8A4EB05044F
:1007500081EA030E52EA03354FEA013100F0888046
:100760004FEA03334FF0805545EA131343EA12630F
:100770004FEA022245EA111545EA10654FEA0026C4
:100780000EF000419D4208BF964244F1FD0404F57D
:10079000407402D25B084FEA3202B61A65EB0305D9
:1007A0005B084FEA32024FF480104FF4002CB6EB96
:1007B000020E75EB030E22BFB61A754640EA0C0016
:1007C0005B084FEA3202B6EB020E75EB030E22BF56
:1007D000B61A754640EA5C005B084FEA3202B6EB97
:1007E000020E75EB030E22BFB61A754640EA9C0056
:1007F0005B084FEA3202B6EB020E75EB030E22BF26
:10080000B61A754640EADC0055EA060E18D04FEAE3
:10081000051545EA16754FEA06164FEAC30343EA83
:1008200052734FEAC2025FEA1C1CC0D111F4801F50
:100830000BD141EA00014FF000004FF0004CB6E749
:1008400011F4801F04BF01430020B4F1FD0C88BFE8
:10085000BCF5E06F3FF6AFAEB5EB030C04BFB6EBF3
:10086000020C5FEA500C50F1000041EB045170BDE6
:100870000EF0004E4EEA113114EB5C04C2BFD4EB13
:100880000C0541EA045170BD41F480114FF0000E97
:10089000013C90E645EA060E8DE60CEA135594EA13
:1008A0000C0F08BF95EA0C0F3FF43BAF94EA0C0F16
:1008B0000AD150EA01347FF434AF95EA0C0F7FF48B
:1008C00025AF104619462CE795EA0C0F06D152EADF
:1008D00003353FF4FDAE1046194622E750EA4106C3
:1008E00018BF52EA43067FF4C5AE50EA41047FF4D4
:1008F0000DAF52EA43057FF4EBAE12E74FF0FF3C39
:1009000006E000BF4FF0010C02E000BF4FF0010C09
:100910004DF804CD4FEA410C7FEA6C5C4FEA430C82
:1009200018BF7FEA6C5C1BD001B050EA410C0CBFD1
:1009300052EA430C91EA030F02BF90EA020F002033
:10094000704710F1000F91EA030F58BF994208BF9A
:1009500090422CBFD8176FEAE37040F00100704757
:100960004FEA410C7FEA6C5C02D150EA013C07D1AE
:100970004FEA430C7FEA6C5CD6D152EA033CD3D0F9
:100980005DF8040B704700BF8446104662468C46F3
:100990001946634600E000BF01B5FFF7B7FF002826
:1009A00048BF10F1000F01BD4DF808EDFFF7F4FF4F
:1009B0000CBF012000205DF808FB00BF4DF808EDDA
:1009C000FFF7EAFF34BF012000205DF808FB00BFFD
:1009D0004DF808EDFFF7E0FF94BF012000205DF81F
:1009E00008FB00BF4DF808EDFFF7CEFF94BF0120D4
:1009F00000205DF808FB00BF4DF808EDFFF7C4FFCD
:100A000034BF012000205DF808FB00BF4FEA410C15
:100A10007FEA6C5C02D150EA013C0AD14FEA430CF8
:100A20007FEA6C5C02D152EA033C02D14FF0000035
:100A300070474FF0010070474FEA410212F5001273
:100A400015D211D56FF47873B3EB625212D94FEA15
:100A5000C12343F0004343EA505311F0004F23FAFF
:100A600002F018BF404270474FF00000704750EA54
:100A7000013005D111F0004008BF6FF00040704711
:100A80004FF00000704700BF4A0011D212F500126B
:100A900011D20DD56FF47873B3EB62520ED44FEAD6
:100AA000C12343F0004343EA505323FA02F0704756
:100AB0004FF00000704750EA013002D14FF0FF3094
:100AC00070474FF0000070474FEA4102B2F1E04337
:100AD00024BFB3F5001CDCF1FE5C0DD901F0004C25
:100AE0004FEAC0024CEA5070B2F1004F40EB830075
:100AF00008BF20F00100704711F0804F21D113F1A1
:100B00003872BCBF01F00040704741F480114FEAD9
:100B10005252C2F11802C2F1200C10FA0CF320FA62
:100B200002F018BF40F001004FEAC1234FEAD3237F
:100B300003FA0CFC40EA0C0023FA02F34FEA4303E9
:100B4000CCE77FEA625307D150EA01331EBF4FF072
:100B5000FE4040F44000704701F0004040F0FE408D
:100B600040F40000704700BF80F0004002E000BF8A
:100B700081F0004142001FBF5FEA410392EA030F88
:100B80007FEA226C7FEA236C6AD04FEA1262D2EBD2
:100B90001363C1BFD218414048404140B8BF5B42D7
:100BA000192B88BF704710F0004F40F4000020F070
:100BB0007F4018BF404211F0004F41F4000121F086
:100BC0007F4118BF494292EA030F3FD0A2F10102D0
:100BD00041FA03FC10EB0C00C3F1200301FA03F10E
:100BE00000F0004302D5494260EB4000B0F5000F31
:100BF00013D3B0F1807F06D340084FEA310102F1F0
:100C00000102FE2A51D2B1F1004F40EBC25008BFA1
:100C100020F0010040EA03007047490040EB00006B
:100C2000013A28BFB0F5000FEDD2B0FA80FCACF16C
:100C3000080CB2EB0C0200FA0CF0AABF00EBC25099
:100C400052421843BCBFD0401843704792F0000F87
:100C500081F4000106BF80F400000132013BB5E7DA
:100C60004FEA41037FEA226C18BF7FEA236C21D050
:100C700092EA030F04D092F0000F08BF08467047B5
:100C800090EA010F1CBF0020704712F07F4F04D183
:100C9000400028BF40F00040704712F100723CBF96
:100CA00000F50000704700F0004343F0FE4040F4C0
:100CB000000070477FEA226216BF08467FEA23637E
:100CC0000146420206BF5FEA412390EA010F40F469
:100CD000800070474FF0000304E000BF10F00043B5
:100CE00048BF40425FEA000C08BF704743F096439C
:100CF00001464FF000001CE050EA010208BF7047B7
:100D00004FF000030AE000BF50EA010208BF70473D
:100D100011F0004302D5404261EB41015FEA010C52
:100D200002BF84460146002043F0B64308BFA3F14A
:100D30008053A3F50003BCFA8CF2083AA3EBC2532C
:100D400010DB01FA02FC634400FA02FCC2F120024B
:100D5000BCF1004F20FA02F243EB020008BF20F082
:100D60000100704702F1200201FA02FCC2F12002E8
:100D700050EA4C0021FA02F243EB020008BF20EADD
:100D8000DC7070474FF0FF0C1CEAD0521EBF1CEA0B
:100D9000D15392EA0C0F93EA0C0F6FD01A4480EAF9
:100DA000010C400218BF5FEA41211ED04FF00063E2
:100DB00043EA501043EA5111A0FB01310CF000400E
:100DC000B1F5000F3EBF490041EAD3715B0040EA34
:100DD000010062F17F02FD2A1DD8B3F1004F40EB04
:100DE000C25008BF20F00100704790F0000F0CF0D7
:100DF000004C08BF49024CEA502040EA51207F3A9B
:100E0000C2BFD2F1FF0340EAC250704740F4000075
:100E10004FF00003013A5DDC12F1190FDCBF00F066
:100E200000407047C2F10002410021FA02F1C2F114
:100E3000200200FA02FC5FEA310040F1000053EAB0
:100E40004C0308BF20EADC70704792F0000F00F0FE
:100E5000004C02BF400010F4000F013AF9D040EA04
:100E60000C0093F0000F01F0004C02BF490011F498
:100E7000000F013BF9D041EA0C018FE70CEAD15396
:100E800092EA0C0F18BF93EA0C0F0AD030F0004C16
:100E900018BF31F0004CD8D180EA010000F00040CA
:100EA000704790F0000F17BF90F0004F084691F088
:100EB000000F91F0004F14D092EA0C0F01D14202C2
:100EC0000FD193EA0C0F03D14B0218BF084608D18B
:100ED00080EA010000F0004040F0FE4040F40000D5
:100EE000704740F0FE4040F4400070474FF0FF0C68
:100EF0001CEAD0521EBF1CEAD15392EA0C0F93EAAF
:100F00000C0F69D0A2EB030280EA010C49024FEA00
:100F1000402037D04FF0805343EA111143EA1013B9
:100F20000CF000408B4238BF5B0042F17D024FF471
:100F3000000C8B4224BF5B1A40EA0C00B3EB510F4C
:100F400024BFA3EB510340EA5C00B3EB910F24BF35
:100F5000A3EB910340EA9C00B3EBD10F24BFA3EBBA
:100F6000D10340EADC001B0118BF5FEA1C1CE0D182
:100F7000FD2A3FF650AF8B4240EBC25008BF20F035
:100F8000010070470CF0004C4CEA50207F32C2BF89
:100F9000D2F1FF0340EAC250704740F400004FF026
:100FA0000003013A37E792F0000F00F0004C02BF57
:100FB000400010F4000F013AF9D040EA0C0093F021
:100FC000000F01F0004C02BF490011F4000F013B7B
:100FD000F9D041EA0C0195E70CEAD15392EA0C0FE3
:100FE00008D142027FF47DAF93EA0C0F7FF470AF1B
:100FF000084676E793EA0C0F04D14B023FF44CAF5E
:1010000008466EE730F0004C18BF31F0004CCAD1F2
:1010100030F000427FF45CAF31F000437FF43CAF2E
:101020005FE700BF4FEA4002B2F1FE4F0FD34FF02F
:101030009E03B3EB12620DD94FEA002343F0004345
:1010400010F0004F23FA02F018BF404270474FF0F3
:101050000000704712F1610F01D1420205D110F07A
:10106000004008BF6FF0004070474FF0000070472D
:1010700038B50022002304460D46FFF79FFC28B92F
:1010800020462946BDE8384000F00AB8204605F160
:10109000004100F005F8404261EB410138BD00BF5E
:1010A000D0B500220B4B06460F46FFF715FAFFF7A7
:1010B000EBFC0446FFF796F90022074BFFF70CFA0A
:1010C00002460B4630463946FFF74EF8FFF7DCFC88
:1010D0002146D0BD0000F03D0000F04180B582B057
:1010E00000AF104B5B690F4A43F0010353610D4B96
:1010F0005B6903F001037B607B6800220A210E20FC
:1011000000F011FF0E2000F02AFF00220A210F201C
:1011100000F009FF0F2000F022FF00BF0837BD4696
:1011200080BD00BF0010024080B588B000AF07F15D
:10113000100300221A605A609A60DA60344B9B698F
:10114000334A43F010039361314B9B6903F0100362
:10115000FB60FB682E4B9B692D4A43F02003936193
:101160002B4B9B6903F02003BB60BB68284B9B693A
:10117000274A43F004039361254B9B6903F0040362
:101180007B607B68224B9B69214A43F00803936193
:101190001F4B9B6903F008033B603B68012212214F
:1011A0001C4801F034FB02233B6101237B610123D6
:1011B000BB610223FB6107F110031946154801F0DA
:1011C000CFF810233B6101237B610023BB61032324
:1011D000FB6107F1100319460E4801F0C1F8202306
:1011E0003B610D4B7B610223BB6107F11003194684
:1011F0000A4801F0B5F800220121172000F093FE03
:10120000172000F0ACFE00BF2037BD4680BD00BFF8
:10121000001002400008014000001110000C0140C5
:1012200080B500AF144B154A1A60134B144A5A602C
:10123000114B00229A60104B3022DA600E4B0022D4
:10124000DA600D4B4FF480421A610B4B00225A6159
:10125000094B00229A61084B0022DA61064B0022FA
:101260001A62054801F00EFB0346002B01D000F086
:10127000D4F800BF80BD00BF4C03002000540040E4
:10128000801A060080B588B000AF786007F11003BF
:1012900000221A605A609A60DA607B681B68154AFF
:1012A000934223D1144B9B69134A43F00803936183
:1012B000114B9B6903F00803FB60FB68C0233B6193
:1012C00012237B610323FB6107F1100319460B48CE
:1012D00001F046F8084BDB69074A43F40013D36179
:1012E000054BDB6903F40013BB60BB6800BF20370C
:1012F000BD4680BD0054004000100240000C01407B
:1013000080B500AF642000F0EFFC04F045FBFF2047
:1013100004F0C4FB0023184680BD80B582B000AF46
:101320007860FFF7EDFF00220121102004F088FC17
:1013300001220121202004F083FC0222012130201F
:1013400004F07EFC03220121402004F079FC0223FA
:101350007A680121512004F0CFFB00BF0837BD4659
:1013600080BD80B500AF00F05DFC00F00FF8FFF726
:10137000DBFEFFF7B3FE00F0A7F800F02BFB00F058
:10138000B7FAFFF74DFF04F0FDF9FCE780B590B028
:1013900000AF07F1180328220021184607F03CFC93
:1013A0003B1D00221A605A609A60DA601A610923B4
:1013B000BB614FF48033FB6100233B620123BB62BE
:1013C00001233B6302237B634FF48033BB634FF401
:1013D000E013FB6307F11803184601F0FFFE034614
:1013E000002B01D000F019F80F237B600223BB60B3
:1013F0000023FB604FF480633B6100237B613B1D56
:101400000221184602F06CF90346002B01D000F0CF
:1014100004F800BF4037BD4680BD80B400AF72B64F
:1014200000BF00BFFDE7000080B586B000AF07F148
:10143000080300221A605A609A60DA601E4B9B69AA
:101440001D4A43F0040393611B4B9B6903F00403A3
:101450007B607B68184B9B69174A43F008039361D4
:10146000154B9B6903F008033B603B682023BB607E
:10147000124BFB6002233B6107F108031946104839
:1014800000F06EFF1023BB600123FB6003237B6130
:1014900007F1080319460B4800F062FF01221021F2
:1014A000084801F0B4F900220121172000F03BFDAB
:1014B00000BF1837BD4680BD00100240000011106B
:1014C000000C01400008014080B500AFFFF7ACFF01
:1014D000174B184A1A60164B4FF482725A60144B1D
:1014E00000229A60124B0022DA60114B00221A612E
:1014F0000F4B00225A610E4B4FF400729A610C4B55
:101500001022DA610A4B00221A62094B00225A6249
:10151000074B00229A62064B0A22DA62044802F064
:101520006DFA0346002B01D0FFF777FF00BF80BDA7
:10153000A40300200030014080B58AB000AF78607D
:1015400007F1180300221A605A609A60DA607B681B
:101550001B68224A93423DD1214B9B69204A43F4A8
:10156000805393611E4B9B6903F480537B617B69BD
:101570001B4B9B691A4A43F001039361184B9B690B
:1015800003F001033B613B69154B9B69144A43F02F
:1015900004039361124B9B6903F00403FB60FB6837
:1015A000A023BB610223FB6103237B6207F11803C5
:1015B00019460C4800F0D4FE4023BB610023FB61B8
:1015C00001233B6203237B6207F118031946054898
:1015D00000F0C6FE00BF2837BD4680BD0030014088
:1015E000001002400008014080B582B000AF786072
:1015F0007B681B680B4A93420FD10B4B9B690A4ACD
:1016000023F480539361E021084801F02DF8232052
:1016100000F0B3FC172000F0B0FC00BF0837BD4657
:1016200080BD00BF003001400010024000080140B2
:1016300080B485B000AF154B9B69144A43F0010399
:101640009361124B9B6903F00103BB60BB680F4BB6
:10165000DB690E4A43F08053D3610C4BDB6903F026
:1016600080537B607B680A4B5B68FB60FB6823F000
:10167000E063FB60FB6843F00073FB60044AFB68B7
:10168000536000BF1437BD4680BC70470010024055
:101690000000014080B400AF00BFFDE780B400AFA0
:1016A00000BFFDE780B400AF00BFFDE780B400AF2E
:1016B00000BFFDE780B400AF00BFFDE780B400AF1E
:1016C00000BFBD4680BC704780B400AF00BFBD46C0
:1016D00080BC704780B400AF00BFBD4680BC70477F
:1016E00080B500AF00F0E4FA034B1B680133024AF7
:1016F000136000BF80BD00BFA003002080B500AF15
:10170000024800F027FD00BF80BD00BFD4050020C7
:1017100080B500AF024800F01DFD00BF80BD00BFD6
:101720009005002080B500AF04F040FC202001F0BF
:1017300087F800BF80BD000080B500AF024803F00D
:101740006DF800BF80BD00BF0004002080B500AF71
:10175000024802F005FE00BF80BD00BFA4030020C8
:1017600080B400AF01231846BD4680BC704780B5E9
:1017700082B000AF7860396007F0A0FA0346162205
:101780001A604FF0FF3318460837BD4680BD80B55C
:1017900082B000AF78604FF0FF317868FFF7E7FF65
:1017A00000BFFDE780B586B000AFF860B9607A6031
:1017B00000237B610AE0AFF300800146BB685A1C3E
:1017C000BA60CAB21A707B6901337B617A697B683F
:1017D0009A42F0DB7B6818461837BD4680BD80B55D
:1017E00086B000AFF860B9607A6000237B6109E0E1
:1017F000BB685A1CBA601B781846AFF300807B693F
:1018000001337B617A697B689A42F1DB7B68184619
:101810001837BD4680BD80B483B000AF78604FF00C
:10182000FF3318460C37BD4680BC704780B483B088
:1018300000AF786039603B684FF400525A60002373
:1018400018460C37BD4680BC704780B483B000AFEB
:101850007860012318460C37BD4680BC704780B4C1
:1018600085B000AFF860B9607A600023184614377D
:10187000BD4680BC7047000080B586B000AF786080
:10188000144A154BD31A7B617B693B61134B1B6870
:10189000002B02D1114B124A1A60104B1A687B6858
:1018A00013443A699A4207D207F008FA03460C2219
:1018B0001A604FF0FF3309E0084B1B68FB60074BD1
:1018C0001A687B681344054A1360FB68184618378A
:1018D000BD4680BD0050002000040000FC03002035
:1018E0000809002080B400AF00BFBD4680BC70472F
:1018F00080B586B000AF07F1080300221A605A6075
:101900009A60DA603B4600221A605A601E4B4FF024
:1019100080421A601C4B41F61F425A601A4B00224B
:101920009A60194B40F2E732DA60174B00221A61D5
:10193000154B80229A61144802F021FF0346002BC8
:1019400001D0FFF76AFD4FF48053BB6007F1080335
:1019500019460D4803F052F80346002B01D0FFF75B
:101960005CFD00233B6000237B603B461946064834
:1019700003F03CFA0346002B01D0FFF74EFD00BFF9
:101980001837BD4680BD00BF0004002080B584B07C
:1019900000AF78607B681B68B3F1804F13D10C4BAC
:1019A000DB690B4A43F00103D361094BDB6903F0A8
:1019B0000103FB60FB6800220B211C2000F0B3FA3E
:1019C0001C2000F0CCFA00BF1037BD4680BD00BF20
:1019D0000010024080B500AF114B124A1A60104B44
:1019E0004FF4E1325A600E4B00229A600C4B0022F9
:1019F000DA600B4B00221A61094B0C225A61084B2A
:101A000000229A61064B0022DA61054803F05EFA73
:101A10000346002B01D0FFF700FD00BF80BD00BFD3
:101A2000480500200038014080B588B000AF7860DC
:101A300007F1100300221A605A609A60DA607B682E
:101A40001B68434A93427FD1424B9B69414A43F40E
:101A5000804393613F4B9B6903F48043FB60FB68C9
:101A60003C4B9B693B4A43F004039361394B9B69B0
:101A700003F00403BB60BB684FF400733B610223B7
:101A80007B610323FB6107F110031946324800F024
:101A900067FC4FF480633B6100237B610023BB61E3
:101AA00007F1100319462C4800F05AFC2B4B2C4A26
:101AB0001A602A4B00225A60284B00229A60274B5A
:101AC0008022DA60254B00221A61244B00225A61E1
:101AD000224B20229A61214B4FF40052DA611F48B9
:101AE00000F066FA0346002B01D0FFF796FC7B68F6
:101AF0001A4ADA63194A7B6853621A4B1A4A1A6007
:101B0000184B10225A60174B00229A60154B802206
:101B1000DA60144B00221A61124B00225A61114BF9
:101B200000229A610F4B4FF40052DA610D4800F029
:101B30003FFA0346002B01D0FFF76FFC7B68094A90
:101B40009A63084A7B68536200BF2037BD4680BD58
:101B500000380140001002400008014090050020BC
:101B600058000240D40500204400024080B584B0F3
:101B700000AFF8600B467A607B817A894FF0FF33C3
:101B8000F968044803F0F2F97B8918461037BD461E
:101B900080BD00BF480500200FB480B582B000AF03
:101BA00007F114033B603B683A694FF480710948C0
:101BB00007F014F803467B607B689BB2012219464C
:101BC0000448FFF7D3FF00BF0837BD46BDE880409B
:101BD00004B0704748040020FFF784FE0B480C490E
:101BE0000C4A002302E0D458C4500433C4188C4279
:101BF000F9D3094A094C002301E013600432A242E0
:101C0000FBD307F061F8FFF7ACFB70470000002042
:101C10002C030020C8D10008300300200409002054
:101C2000FEE7000080B500AF084B1B68074A43F091
:101C300010031360032000F06BF9052000F008F892
:101C4000FFF7F6FC0023184680BD00BF00200240CD
:101C500080B582B000AF7860124B1A68124B1B78C7
:101C600019464FF47A73B3FBF1F3B2FBF3F3184662
:101C700000F091F90346002B01D001230EE07B68B0
:101C80000F2B0AD8002279684FF0FF3000F04BF993
:101C9000064A7B681360002300E0012318460837DA
:101CA000BD4680BD00000020080000200400002088
:101CB00080B400AF054B1B781A46054B1B681344D4
:101CC000034A136000BFBD4680BC70470800002077
:101CD0001806002080B400AF024B1B681846BD46B2
:101CE00080BC70471806002080B584B000AF7860D3
:101CF000FFF7F0FFB8607B68FB60FB68B3F1FF3F64
:101D000005D00A4B1B781A46FB681344FB6000BFE2
:101D1000FFF7E0FF0246BB68D31AFA689A42F7D889
:101D200000BF00BF1037BD4680BD00BF08000020C7
:101D300080B485B000AF78607B6803F00703FB6078
:101D40000C4BDB68BB60BA684FF6FF031340BB6007
:101D5000FB681A02BB68134343F0BF6343F40033CC
:101D6000BB60044ABB68D36000BF1437BD4680BC6B
:101D7000704700BF00ED00E080B400AF044BDB68AB
:101D80001B0A03F007031846BD4680BC704700BF1E
:101D900000ED00E080B483B000AF0346FB7197F91B
:101DA0000730002B0BDBFB7903F01F02064997F984
:101DB00007305B09012000FA02F241F8232000BF3E
:101DC0000C37BD4680BC704700E100E080B483B0B2
:101DD00000AF0346FB7197F90730002B12DBFB794C
:101DE00003F01F020A4997F907305B09012000FA46
:101DF00002F2203341F82320BFF34F8F00BFBFF31F
:101E00006F8F00BF00BF0C37BD4680BC704700BF5E
:101E100000E100E080B483B000AF03463960FB719D
:101E200097F90730002B0ADB3B68DAB20C4997F9C7
:101E300007301201D2B20B4483F800230AE03B685A
:101E4000DAB20849FB7903F00F03043B1201D2B266
:101E50000B441A7600BF0C37BD4680BC704700BFEC
:101E600000E100E000ED00E080B489B000AFF86070
:101E7000B9607A60FB6803F00703FB61FB69C3F19B
:101E80000703042B28BF0423BB61FB690433062B23
:101E900002D9FB69033B00E000237B614FF0FF3276
:101EA000BB6902FA03F3DA43BB681A407B699A40C4
:101EB0004FF0FF317B6901FA03F3D9437B680B4094
:101EC000134318462437BD4680BC704780B582B0A6
:101ED00000AF78607B68013BB3F1807F01D30123C1
:101EE0000FE00A4A7B68013B53600F214FF0FF303F
:101EF000FFF790FF054B00229A60044B07221A60FF
:101F0000002318460837BD4680BD00BF10E000E042
:101F100080B582B000AF78607868FFF709FF00BF36
:101F20000837BD4680BD80B586B000AF0346B960B6
:101F30007A60FB7300237B61FFF71EFF78617A688C
:101F4000B9687869FFF790FF024697F90F3011469C
:101F50001846FFF75FFF00BF1837BD4680BD80B54C
:101F600082B000AF0346FB7197F907301846FFF7C0
:101F700011FF00BF0837BD4680BD80B582B000AFFD
:101F80000346FB7197F907301846FFF71FFF00BFA4
:101F90000837BD4680BD80B582B000AF78607868F4
:101FA000FFF794FF034618460837BD4680BD000082
:101FB00080B485B000AF78600023FB607B68002BA5
:101FC00001D1012343E07B681B681A46224B13446E
:101FD000224AA2FB03231B099A007B681A647B68D0
:101FE0001F4ADA637B68022283F821207B681B6822
:101FF0001B68FB60FB6823F47F5323F03003FB6016
:102000007B685A687B689B681A437B68DB681A4365
:102010007B681B691A437B685B691A437B689B6911
:102020001A437B68DB691343FA681343FB607B68E0
:102030001B68FA681A607B6800229A637B68012239
:1020400083F821207B68002283F820200023184693
:102050001437BD4680BC7047F8FFFDBFCDCCCCCC5B
:102060000000024080B584B000AF78600023FB73AD
:102070007B6893F82130DBB2022B05D07B68042209
:102080009A630123FB7351E07B681B681A687B68C5
:102090001B6822F00E021A607B681B681A687B6856
:1020A0001B6822F001021A607B681B68224A934277
:1020B00029D07B681B68214A934222D07B681B6829
:1020C0001F4A93421AD07B681B681E4A934212D063
:1020D0007B681B681C4A93420AD07B681B681B4ABA
:1020E000934202D14FF480130EE04FF080730BE067
:1020F0004FF4803308E04FF4805305E04FF48073D1
:1021000002E0102300E00123114A53607B680122A2
:1021100083F821207B68002283F820207B685B6B9A
:10212000002B03D07B685B6B78689847FB7B184675
:102130001037BD4680BD00BF080002401C000240B1
:102140003000024044000240580002406C0002404F
:102150000000024080B584B000AF78607B68DB6B24
:102160001B68FB607B681B681B68BB607B681B6C23
:1021700004229A40FB681340002B4FD0BB6803F049
:102180000403002B4AD07B681B681B6803F0200304
:10219000002B07D17B681B681A687B681B6822F0DC
:1021A00004021A607B681B68664A934229D07B68E8
:1021B0001B68654A934222D07B681B68634A93423E
:1021C0001AD07B681B68624A934212D07B681B68F6
:1021D000604A93420AD07B681B685F4A934202D1EF
:1021E0004FF480030EE04FF080630BE04FF4802348
:1021F00008E04FF4804305E04FF4806302E04023A1
:1022000000E00423554A53607B68DB6A002B00F032
:1022100094807B68DB6A786898478EE07B681B6CEB
:1022200002229A40FB681340002B56D0BB6803F093
:102230000203002B51D07B681B681B6803F020034E
:10224000002B0BD17B681B681A687B681B6822F027
:102250000A021A607B68012283F821207B681B68D0
:10226000384A934229D07B681B68374A934222D070
:102270007B681B68354A93421AD07B681B68344AD6
:10228000934212D07B681B68324A93420AD07B6823
:102290001B68314A934202D14FF400130EE04FF015
:1022A00000730BE04FF4003308E04FF4005305E0F7
:1022B0004FF4007302E0202300E00223274A53601A
:1022C0007B68002283F820207B689B6A002B34D037
:1022D0007B689B6A786898472FE07B681B6C0822B4
:1022E0009A40FB681340002B28D0BB6803F008031A
:1022F000002B23D07B681B681A687B681B6822F060
:102300000E021A607B681A6C7B68DB6B012101FA94
:1023100002F25A607B6801229A637B68012283F88B
:1023200021207B68002283F820207B681B6B002B18
:1023300004D07B681B6B7868984700BF00BF1037DC
:10234000BD4680BD080002401C0002403000024033
:1023500044000240580002406C000240000002406D
:1023600080B48BB000AF7860396000237B620023BB
:102370003B6269E101227B6A02FA03F3FB613B687D
:102380001B68FA691340BB61BA69FB699A4240F065
:1023900058813B685B689A4A93425ED0984A934260
:1023A00075D8984A934258D0964A93426FD8964A25
:1023B000934252D0944A934269D8944A93424CD063
:1023C000924A934263D8924A934246D0904A9342AB
:1023D0005DD8122B2AD8122B59D801A252F823F01B
:1023E0005B240008352400084724000889240008DD
:1023F0008F2400088F2400088F2400088F240008F1
:102400008F2400088F2400088F2400088F240008E0
:102410008F2400088F2400088F2400088F240008D0
:102420008F2400083D24000851240008794A934273
:1024300013D02CE03B68DB683B6229E03B68DB683B
:1024400004333B6224E03B68DB6808333B621FE0F7
:102450003B68DB680C333B621AE03B689B68002BEF
:1024600002D104233B6213E03B689B68012B05D13A
:1024700008233B627B68FA691A6109E008233B6222
:102480007B68FA695A6103E000233B6200E000BF09
:10249000BB69FF2B01D87B6801E07B6804337B615B
:1024A000BB69FF2B02D87B6A9B0002E07B6A083B7A
:1024B0009B003B617B691A680F213B6901FA03F3BA
:1024C000DB431A40396A3B6901FA03F31A437B691B
:1024D0001A603B685B6803F08053002B00F0B1800A
:1024E0004D4B9B694C4A43F0010393614A4B9B69F6
:1024F00003F00103BB60BB68484A7B6A9B08023358
:1025000052F82330FB607B6A03F003039B000F2229
:1025100002FA03F3DB43FA681340FB607B68404A2E
:10252000934213D07B683F4A93420DD07B683E4A6A
:10253000934207D07B683D4A934201D1032306E0D2
:10254000042304E0022302E0012300E000237A6A6E
:1025500002F0030292009340FA681343FB602F4994
:102560007B6A9B080233FA6841F823203B685B686A
:1025700003F48013002B06D02D4B9A682C49BB69BD
:1025800013438B6006E02A4B9A68BB69DB432849FA
:1025900013408B603B685B6803F40013002B06D08C
:1025A000234BDA682249BB691343CB6006E0204B1A
:1025B000DA68BB69DB431E491340CB603B685B684C
:1025C00003F40033002B06D0194B5A681849BB6935
:1025D00013434B6006E0164B5A68BB69DB43144952
:1025E00013404B603B685B6803F48033002B21D0C1
:1025F0000F4B1A680E49BB6913430B6021E000BF03
:1026000000003210000031100000221000002110E4
:1026100000001210000011100010024000000140E4
:1026200000080140000C014000100140001401406E
:10263000000401400B4B1A68BB69DB430949134096
:102640000B607B6A01337B623B681A687B6A22FA03
:1026500003F3002B7FF48EAE00BF00BF2C37BD46C6
:1026600080BC70470004014080B489B000AF78603E
:1026700039600023FB619AE00122FB6902FA03F34F
:102680003A681340BB61BB69002B00F08D804E4A55
:10269000FB699B08023352F823307B61FB6903F02E
:1026A00003039B000F2202FA03F37A6913407B6154
:1026B0007B68464A934213D07B68454A93420DD0CB
:1026C0007B68444A934207D07B68434A934201D1D6
:1026D000032306E0042304E0022302E0012300E0D8
:1026E0000023FA6902F00302920093407A699A4249
:1026F00032D13A4B1A68BB69DB43384913400B604F
:10270000364B5A68BB69DB43344913404B60334B4B
:10271000DA68BB69DB4331491340CB602F4B9A68C1
:10272000BB69DB432D4913408B60FB6903F0030356
:102730009B000F2202FA03F37B61234AFB699B088B
:10274000023352F823107B69DA431F48FB699B0868
:102750000A40023340F82320BB69FF2B01D87B6875
:1027600001E07B6804333B61BB69FF2B02D8FB6946
:102770009B0002E0FB69083B9B00FB603B691A6819
:102780000F21FB6801FA03F3DB431A400421FB68C5
:1027900001FA03F31A433B691A607B68DA68BB6984
:1027A000DB431A407B68DA60FB690133FB613A68FE
:1027B000FB6922FA03F3002B7FF45EAF00BF00BF7A
:1027C0002437BD4680BC704700000140000801402E
:1027D000000C0140001001400014014000040140C1
:1027E00080B485B000AF78600B467B807B689A68C8
:1027F0007B881340002B02D00123FB7301E00023F0
:10280000FB73FB7B18461437BD4680BC704780B411
:1028100083B000AF78600B467B8013467B707B787B
:10282000002B03D07A887B681A6103E07B881A0446
:102830007B681A6100BF0C37BD4680BC7047000042
:1028400080B582B000AF0346FB80084B5A69FB8815
:102850001340002B06D0054AFB885361FB881846BD
:1028600000F006F800BF0837BD4680BD00040140F7
:1028700080B483B000AF0346FB8000BF0C37BD4679
:1028800080BC704780B584B000AF78607B68002B57
:1028900001D101232BE17B6893F83D30DBB2002BA3
:1028A00006D17B68002283F83C207868FEF7EAFCBA
:1028B0007B68242283F83D207B681B681A687B684C
:1028C0001B6822F001021A607B681B681A687B682B
:1028D0001B6842F400421A607B681B681A687B68B8
:1028E0001B6822F400421A6001F042F8F8607B682D
:1028F0005B68814A934207D8FB68804A934294BF41
:1029000001230023DBB206E0FB687D4A934294BFBB
:1029100001230023DBB2002B01D00123E7E0FB6899
:10292000784AA2FB03239B0CBB607B681B685B6837
:1029300023F03F017B681B68BA680A435A607B68D2
:102940001B681B6A23F03F017B685B686A4A9342FD
:1029500002D8BB68013309E0BB684FF4967202FBF2
:1029600003F3694AA2FB03239B0901337A681268C7
:102970000B4313627B681B68DB6923F44F4222F030
:10298000FF027B685B685C498B4219D8FB68591E63
:102990007B685B685B00B1FBF3F3591C40F6FC738A
:1029A0000B40002B0AD0FB68591E7B685B685B00FC
:1029B000B1FBF3F30133C3F30B0351E004234FE006
:1029C0007B689B68002B11D1FB68581E7B68596897
:1029D0000B465B000B44B0FBF3F30133C3F30B0373
:1029E000002B0CBF01230023DBB212E0FB68581E52
:1029F0007B6859680B469B000B4499000B44B0FB65
:102A0000F3F30133C3F30B03002B0CBF01230023AB
:102A1000DBB2002B01D0012322E07B689B68002BF6
:102A20000ED1FB68581E7B6859680B465B000B444F
:102A3000B0FBF3F30133C3F30B0343F400430FE0A4
:102A4000FB68581E7B6859680B469B000B44990035
:102A50000B44B0FBF3F30133C3F30B0343F44043E4
:102A6000796809681343CB617B681B681B6823F096
:102A7000C0017B68DA697B681B6A1A437B681B6844
:102A80000A431A607B681B689B6823F4034323F0A6
:102A9000FF037A6811697A68D26811437A6812680C
:102AA0000B4393607B681B68DB6823F0FF017B6846
:102AB0005A697B689B691A437B681B680A43DA6022
:102AC0007B681B681A687B681B6842F001021A6009
:102AD0007B6800221A647B68202283F83D207B6893
:102AE00000221A637B68002283F83E2000231846E8
:102AF0001037BD4680BD00BFA08601007F841E0048
:102B0000FF083D0083DE1B43D34D621080B588B0C3
:102B100002AFF860084611461A4603467B810B4611
:102B20003B811346FB80FFF7D5F87861FB6893F88B
:102B30003D30DBB2202B40F0D9807B690093192314
:102B400001226D49F86800F071F90346002B01D0AD
:102B50000223CCE0FB6893F83C30012B01D1022327
:102B6000C5E0FB68012283F83C20FB681B681B68FA
:102B700003F00103012B07D0FB681B681A68FB6890
:102B80001B6842F001021A60FB681B681A68FB6848
:102B90001B6822F400621A60FB68212283F83D2042
:102BA000FB68402283F83E20FB6800221A64FB6821
:102BB0003A6A5A62FB68BA8C5A85FB685B8D9AB296
:102BC000FB681A85FB684D4ADA62F8883A89798988
:102BD0007B690193BB6A00930346F86800F090F8A4
:102BE0000346002B52D0012381E07A69B96AF86864
:102BF00000F036FA0346002B0DD0FB681B6C042B4B
:102C000007D1FB681B681A68FB681B6842F40072F6
:102C10001A6001236BE0FB685B6A1A78FB681B682B
:102C20001A61FB685B6A5A1CFB685A62FB681B8D61
:102C3000013B9AB2FB681A85FB685B8D9BB2013B36
:102C40009AB2FB685A85FB681B685B6903F0040352
:102C5000042B1BD1FB681B8D002B17D0FB685B6A14
:102C60001A78FB681B681A61FB685B6A5A1CFB6870
:102C70005A62FB681B8D013B9AB2FB681A85FB68A0
:102C80005B8D9BB2013B9AB2FB685A85FB681B8D3A
:102C9000002BAAD17A69B96AF86800F029FA0346CC
:102CA000002B0DD0FB681B6C042B07D1FB681B6845
:102CB0001A68FB681B6842F400721A60012316E070
:102CC000FB681B681A68FB681B6842F400721A6094
:102CD000FB68202283F83D20FB68002283F83E2019
:102CE000FB68002283F83C20002300E00223184602
:102CF0001837BD4680BD00BF020010000000FFFF76
:102D000080B588B002AFF860084611461A460346FF
:102D10007B810B463B811346FB80FB681B681A686E
:102D2000FB681B6842F480721A607B6A00933B6AFE
:102D300000224FF00111F86800F078F80346002BEC
:102D40000DD0FB681B681B6803F48073B3F5807FAC
:102D500003D1FB684FF400721A6403235FE07B89A0
:102D6000DBB21A46FB681B6802F0FE021A617B6A3E
:102D70003A6A2D49F86800F0D3F80346002B01D0D9
:102D800001234CE000237B61FB681B685B697B616E
:102D9000FB681B689B697B617B697A6A396AF868A2
:102DA00000F05EF90346002B0DD0FB681B6C042B72
:102DB00007D1FB681B681A68FB681B6842F4007245
:102DC0001A6001232BE0FB88012B05D13B89DAB285
:102DD000FB681B681A6121E03B891B0A9BB2DAB2CF
:102DE000FB681B681A617A6A396AF86800F038F97A
:102DF0000346002B0DD0FB681B6C042B07D1FB682E
:102E00001B681A68FB681B6842F400721A60012391
:102E100005E03B89DAB2FB681B681A61002318469B
:102E20001837BD4680BD00BF0200010080B584B0E8
:102E300000AFF860B9603B601346FB7148E03B6847
:102E4000B3F1FF3F44D0FEF745FF0246BB69D31AFA
:102E50003A689A4202D33B68002B39D1BB681B0CFD
:102E6000DBB2012B0DD1FB681B685B69DA43BB68E1
:102E700013409BB2002B0CBF01230023DBB21A4688
:102E80000CE0FB681B689B69DA43BB6813409BB28C
:102E9000002B0CBF01230023DBB21A46FB799A42B8
:102EA00016D1FB6800221A63FB68202283F83D20BC
:102EB000FB68002283F83E20FB681B6C43F0200275
:102EC000FB681A64FB68002283F83C20012323E09E
:102ED000BB681B0CDBB2012B0DD1FB681B685B6967
:102EE000DA43BB6813409BB2002B0CBF01230023C5
:102EF000DBB21A460CE0FB681B689B69DA43BB68CF
:102F000013409BB2002B0CBF01230023DBB21A46F7
:102F1000FB799A4293D0002318461037BD4680BDF6
:102F200080B584B000AFF860B9607A603B6071E052
:102F3000FB681B685B6903F48063B3F5806F23D182
:102F4000FB681B681A68FB681B6842F400721A6011
:102F5000FB681B686FF480625A61FB6800221A6389
:102F6000FB68202283F83D20FB68002283F83E2086
:102F7000FB681B6C43F00402FB681A64FB680022C8
:102F800083F83C20012367E07B68B3F1FF3F41D029
:102F9000FEF7A0FE02463B68D31A7A689A4202D333
:102FA0007B68002B36D1BB681B0CDBB2012B0CD12C
:102FB000FB681B685B69DA43BB6813409BB2002B5C
:102FC00014BF01230023DBB20BE0FB681B689B6985
:102FD000DA43BB6813409BB2002B14BF01230023CC
:102FE000DBB2002B16D0FB6800221A63FB6820229C
:102FF00083F83D20FB68002283F83E20FB681B6CB1
:1030000043F02002FB681A64FB68002283F83C202E
:10301000012321E0BB681B0CDBB2012B0CD1FB6848
:103020001B685B69DA43BB6813409BB2002B14BF7B
:1030300001230023DBB20BE0FB681B689B69DA43CA
:10304000BB6813409BB2002B14BF01230023DBB2EB
:10305000002B7FF46DAF002318461037BD4680BDAE
:1030600080B584B000AFF860B9607A6034E0F86889
:1030700000F086F80346002B01D0012334E0BB6842
:10308000B3F1FF3F28D0FEF725FE02467B68D31A36
:10309000BA689A4202D3BB68002B1DD1FB681B683B
:1030A0005B6903F08003802B16D0FB6800221A6353
:1030B000FB68202283F83D20FB68002283F83E2035
:1030C000FB681B6C43F02002FB681A64FB6800225B
:1030D00083F83C20012307E0FB681B685B6903F071
:1030E0008003802BC3D1002318461037BD4680BD16
:1030F00080B584B000AFF860B9607A6034E0F868F9
:1031000000F03EF80346002B01D0012334E0BB68F9
:10311000B3F1FF3F28D0FEF7DDFD02467B68D31AEE
:10312000BA689A4202D3BB68002B1DD1FB681B68AA
:103130005B6903F00403042B16D0FB6800221A63BA
:10314000FB68202283F83D20FB68002283F83E20A4
:10315000FB681B6C43F02002FB681A64FB680022CA
:1031600083F83C20012307E0FB681B685B6903F0E0
:103170000403042BC3D1002318461037BD4680BD7D
:1031800080B483B000AF78607B681B685B6903F430
:103190008063B3F5806F1BD17B681B686FF480621E
:1031A0005A617B6800221A637B68202283F83D20E5
:1031B0007B68002283F83E207B681B6C43F004028E
:1031C0007B681A647B68002283F83C20012300E0BE
:1031D000002318460C37BD4680BC704780B586B0CA
:1031E00000AF78607B68002B01D1012372E27B681D
:1031F0001B6803F00103002B00F08780924B5B6893
:1032000003F00C03042B0CD08F4B5B6803F00C0312
:10321000082B12D18C4B5B6803F48033B3F5803FED
:103220000BD1894B1B6803F40033002B6CD07B68F7
:103230005B68002B68D101234CE27B685B68B3F5C7
:10324000803F06D1804B1B687F4A43F48033136074
:103250002EE07B685B68002B0CD17B4B1B687A4AA5
:1032600023F480331360784B1B68774A23F4802360
:1032700013601DE07B685B68B3F5A02F0CD1724B27
:103280001B68714A43F4802313606F4B1B686E4ABE
:1032900043F4803313600BE06B4B1B686A4A23F4E2
:1032A00080331360684B1B68674A23F480231360E4
:1032B0007B685B68002B13D0FEF70CFD386108E0DB
:1032C000FEF708FD02463B69D31A642B01D903239C
:1032D00000E25D4B1B6803F40033002BF0D014E0D8
:1032E000FEF7F8FC386108E0FEF7F4FC02463B69A3
:1032F000D31A642B01D90323ECE1534B1B6803F46D
:103300000033002BF0D100E000BF7B681B6803F0A6
:103310000203002B63D04C4B5B6803F00C03002BC3
:103320000BD0494B5B6803F00C03082B1CD1464BB8
:103330005B6803F48033002B16D1434B1B6803F00A
:103340000203002B05D07B681B69012B01D00123F0
:10335000C0E13D4B1B6823F0F8027B685B69DB0032
:10336000394913430B603AE07B681B69002B20D07E
:10337000364B01221A60FEF7ADFC386108E0FEF71B
:10338000A9FC02463B69D31A022B01D90323A1E110
:103390002D4B1B6803F00203002BF0D02A4B1B6857
:1033A00023F0F8027B685B69DB00274913430B605D
:1033B00015E0264B00221A60FEF78CFC386108E00D
:1033C000FEF788FC02463B69D31A022B01D903237E
:1033D00080E11D4B1B6803F00203002BF0D17B68DA
:1033E0001B6803F00803002B3AD07B689B69002B15
:1033F00019D0174B01221A60FEF76CFC386108E007
:10340000FEF768FC02463B69D31A022B01D903235D
:1034100060E10D4B5B6A03F00203002BF0D001204A
:1034200000F0CEFA1CE00A4B00221A60FEF752FCB4
:1034300038610FE0FEF74EFC02463B69D31A022BBF
:1034400008D9032346E100BF0010024000004242B9
:1034500080044242924B5B6A03F00203002BE9D1E5
:103460007B681B6803F00403002B00F0A680002398
:10347000FB758B4BDB6903F08053002B0DD1884B20
:10348000DB69874A43F08053D361854BDB6903F0E6
:103490008053BB60BB680123FB75824B1B6803F440
:1034A0008073002B18D17F4B1B687E4A43F48073D6
:1034B0001360FEF70FFC386108E0FEF70BFC0246D4
:1034C0003B69D31A642B01D9032303E1754B1B68B5
:1034D00003F48073002BF0D07B68DB68012B06D1EE
:1034E0006F4B1B6A6E4A43F0010313622DE07B6849
:1034F000DB68002B0CD16A4B1B6A694A23F001037D
:103500001362674B1B6A664A23F0040313621CE0D4
:103510007B68DB68052B0CD1614B1B6A604A43F06A
:10352000040313625E4B1B6A5D4A43F0010313629E
:103530000BE05B4B1B6A5A4A23F001031362584BA2
:103540001B6A574A23F0040313627B68DB68002B75
:1035500015D0FEF7BFFB38610AE0FEF7BBFB024661
:103560003B69D31A41F28832934201D90323B1E077
:103570004B4B1B6A03F00203002BEED014E0FEF766
:10358000A9FB38610AE0FEF7A5FB02463B69D31AA6
:1035900041F28832934201D903239BE0404B1B6ADE
:1035A00003F00203002BEED1FB7D012B05D13C4B38
:1035B000DB693B4A23F08053D3617B68DB69002BD6
:1035C00000F08780364B5B6803F00C03082B61D05A
:1035D0007B68DB69022B46D1334B00221A60FEF771
:1035E00079FB386108E0FEF775FB02463B69D31AA8
:1035F000022B01D903236DE0294B1B6803F00073F4
:10360000002BF0D17B681B6AB3F5803F08D1244BB7
:103610005B6823F400327B689B68214913434B604D
:103620001F4B5B6823F474127B68196A7B685B6AC2
:103630000B431B4913434B601B4B01221A60FEF7DF
:1036400049FB386108E0FEF745FB02463B69D31AA7
:10365000022B01D903233DE0114B1B6803F00073DB
:10366000002BF0D035E0104B00221A60FEF732FB41
:10367000386108E0FEF72EFB02463B69D31A022BA5
:1036800001D9032326E0064B1B6803F00073002BCF
:10369000F0D11EE07B68DB69012B07D1012319E023
:1036A0000010024000700040600042420B4B5B681B
:1036B000FB60FB6803F480327B681B6A9A4206D188
:1036C000FB6803F470127B685B6A9A4201D00123A5
:1036D00000E0002318461837BD4680BD00100240A8
:1036E00080B584B000AF786039607B68002B01D171
:1036F0000123D0E06A4B1B6803F007033A689A4243
:1037000010D9674B1B6823F0070265493B681343D8
:103710000B60634B1B6803F007033A689A4201D0C1
:103720000123B8E07B681B6803F00203002B20D064
:103730007B681B6803F00403002B05D0594B5B68C2
:10374000584A43F4E06353607B681B6803F0080346
:10375000002B05D0534B5B68524A43F460535360CF
:10376000504B5B6823F0F0027B689B684D49134324
:103770004B607B681B6803F00103002B40D07B6823
:103780005B68012B07D1474B1B6803F40033002B08
:1037900015D101237FE07B685B68022B07D1414B89
:1037A0001B6803F00073002B09D1012373E03D4B2C
:1037B0001B6803F00203002B01D101236BE0394B9E
:1037C0005B6823F003027B685B68364913434B60F8
:1037D000FEF780FAF8600AE0FEF77CFA0246FB6822
:1037E000D31A41F28832934201D9032353E02D4B7F
:1037F0005B6803F00C027B685B689B009A42EBD12C
:10380000274B1B6803F007033A689A4210D2244BF7
:103810001B6823F0070222493B6813430B60204BCF
:103820001B6803F007033A689A4201D0012332E093
:103830007B681B6803F00403002B08D0194B5B68FE
:1038400023F4E0627B68DB68164913434B607B68B6
:103850001B6803F00803002B09D0124B5B6823F4AC
:1038600060527B681B69DB000E4913434B6000F01C
:1038700021F802460B4B5B681B0903F00F030A4952
:10388000CB5C22FA03F3094A1360094B1B68184604
:10389000FEF7DEF9002318461037BD4680BD00BF95
:1038A000002002400010024024C500080000002053
:1038B0000400002080B487B000AF0023FB60002329
:1038C000BB6000237B6100237B6000233B611E4BB8
:1038D0005B68FB60FB6803F00C03042B02D0082B31
:1038E00003D027E0194B3B6127E0FB689B0C03F0FA
:1038F0000F03174AD35C7B60FB6803F48033002B13
:1039000010D0114B5B685B0C03F00103114AD35CD0
:10391000BB607B680D4A03FB02F2BB68B2FBF3F3AA
:103920007B6104E07B680C4A02FB03F37B617B69EB
:103930003B6102E0054B3B6100BF3B6918461C3709
:10394000BD4680BC704700BF0010024000127A00E4
:103950003CC500084CC5000800093D0080B400AF1C
:10396000024B1B681846BD4680BC70470000002013
:1039700080B500AFFFF7F2FF0246054B5B681B0AFC
:1039800003F007030349CB5C22FA03F3184680BD1A
:103990000010024034C5000880B500AFFFF7DEFF1D
:1039A0000246054B5B68DB0A03F007030349CB5C67
:1039B00022FA03F3184680BD0010024034C5000807
:1039C00080B485B000AF78600A4B1B680A4AA2FB3E
:1039D00003235B0A7A6802FB03F3FB6000BFFB680A
:1039E0005A1EFA60002BF9D100BF00BF1437BD4644
:1039F00080BC704700000020D34D621080B582B0BB
:103A000000AF78607B68002B01D1012376E07B68F2
:103A10005B6A002B08D17B685B68B3F5827F09D0B5
:103A20007B680022DA6105E07B6800221A617B680E
:103A300000225A617B6800229A627B6893F85130B9
:103A4000DBB2002B06D17B68002283F85020786817
:103A5000FDF772FD7B68022283F851207B681B68AA
:103A60001A687B681B6822F040021A607B685B68FA
:103A700003F482727B689B6803F404431A437B68F7
:103A8000DB6803F400631A437B681B6903F00203DD
:103A90001A437B685B6903F001031A437B689B69E7
:103AA00003F400731A437B68DB6903F038031A439D
:103AB0007B681B6A03F0800342EA03017B689B6A10
:103AC00003F400527B681B680A431A607B689B6999
:103AD0001A0C7B681B6802F004025A607B681B6842
:103AE000DA697B681B6822F40062DA617B68002275
:103AF0005A657B68012283F8512000231846083755
:103B0000BD4680BD80B582B000AF78607B68002B79
:103B100001D101231AE07B68022283F851207B68DF
:103B20001B681A687B681B6822F040021A6078687C
:103B3000FDF75AFD7B6800225A657B68002283F8F6
:103B400051207B68002283F8502000231846083754
:103B5000BD4680BD80B588B000AFF860B9603B60FD
:103B60001346FB80FEF7B6F8F861FB887B83FB68A1
:103B700093F85130DBB2012B01D002232AE1BB685C
:103B8000002B02D0FB88002B01D1012322E1FB682E
:103B900093F85030012B01D102231BE1FB68012275
:103BA00083F85020FB68032283F85120FB68002231
:103BB0005A65FB68BA681A63FB68FA889A86FB68DC
:103BC000FA88DA86FB6800229A63FB6800229A87EB
:103BD000FB680022DA87FB6800225A64FB68002237
:103BE0001A64FB689B68B3F5004F0FD1FB681B6834
:103BF0001A68FB681B6822F040021A60FB681B68A9
:103C00001A68FB681B6842F480421A60FB681B68F4
:103C10001B6803F04003402B07D0FB681B681A6841
:103C2000FB681B6842F040021A60FB68DB68B3F572
:103C3000006F52D1FB685B68002B02D07B8B012B9D
:103C400045D1FB681B6B1A88FB681B68DA60FB6850
:103C50001B6B9A1CFB681A63FB68DB8E9BB2013BF3
:103C60009AB2FB68DA8632E0FB681B689B6803F057
:103C70000203022B12D1FB681B6B1A88FB681B68BE
:103C8000DA60FB681B6B9A1CFB681A63FB68DB8EAF
:103C90009BB2013B9AB2FB68DA8618E0FEF71AF88D
:103CA0000246FB69D31A3A689A4203D83B68B3F1DB
:103CB000FF3F02D13B68002B09D1FB68012283F84A
:103CC0005120FB68002283F85020032382E0FB6828
:103CD000DB8E9BB2002BC7D153E0FB685B68002BE7
:103CE00002D07B8B012B47D1FB681A6BFB681B68EA
:103CF0000C3312781A70FB681B6B5A1CFB681A6332
:103D0000FB68DB8E9BB2013B9AB2FB68DA8633E03C
:103D1000FB681B689B6803F00203022B13D1FB684E
:103D20001A6BFB681B680C3312781A70FB681B6BEC
:103D30005A1CFB681A63FB68DB8E9BB2013B9AB28C
:103D4000FB68DA8618E0FDF7C5FF0246FB69D31A67
:103D50003A689A4203D83B68B3F1FF3F02D13B680F
:103D6000002B09D1FB68012283F85120FB68002257
:103D700083F8502003232DE0FB68DB8E9BB2002BE1
:103D8000C6D1FA693968F86800F0C8FC0346002B10
:103D900002D0FB6820225A65FB689B68002B0AD181
:103DA00000237B61FB681B68DB687B61FB681B6829
:103DB0009B687B617B69FB68012283F85120FB686B
:103DC000002283F85020FB685B6D002B01D001239B
:103DD00000E0002318462037BD4680BD80B588B07E
:103DE00002AFF860B9603B601346FB80FB6893F854
:103DF0005130DBB2012B01D0022304E1FB685B6888
:103E0000B3F5827F12D1FB689B68002B0ED1FB6853
:103E1000042283F85120FA883B6800931346BA685D
:103E2000B968F86800F0F3F80346ECE0FDF752FFDC
:103E30007861BB68002B02D0FB88002B01D10123E5
:103E4000E1E0FB6893F85030012B01D10223DAE066
:103E5000FB68012283F85020FB68042283F851207C
:103E6000FB6800225A65FB68BA689A63FB68FA88A7
:103E70009A87FB68FA88DA87FB6800221A63FB6876
:103E800000229A86FB680022DA86FB6800221A6408
:103E9000FB6800225A64FB689B68B3F5004F0FD1A2
:103EA000FB681B681A68FB681B6822F040021A60F6
:103EB000FB681B681A68FB681B6822F480421A6062
:103EC000FB681B681B6803F04003402B07D0FB68AE
:103ED0001B681A68FB681B6842F040021A60FB68A6
:103EE000DB68002B70D135E0FB681B689B6803F032
:103EF0000103012B15D1FB681B6803F10C02FB6861
:103F00009B6B1278D2B21A70FB689B6B5A1CFB68D1
:103F10009A63FB68DB8F9BB2013B9AB2FB68DA873E
:103F200018E0FDF7D7FE02467B69D31A3A689A4239
:103F300003D83B68B3F1FF3F02D13B68002B09D1A6
:103F4000FB68012283F85120FB68002283F850208F
:103F5000032358E0FB68DB8F9BB2002BC4D138E011
:103F6000FB681B689B6803F00103012B13D1FB68FE
:103F70001B68DA68FB689B6B92B21A80FB689B6BCC
:103F80009A1CFB689A63FB68DB8F9BB2013B9AB279
:103F9000FB68DA8718E0FDF79DFE02467B69D31ABD
:103FA0003A689A4203D83B68B3F1FF3F02D13B68BD
:103FB000002B09D1FB68012283F85120FB68002205
:103FC00083F8502003231EE0FB68DB8F9BB2002B9D
:103FD000C6D17A693968F86800F04EFB0346002BB9
:103FE00002D0FB6820225A65FB68012283F8512029
:103FF000FB68002283F85020FB685B6D002B01D02A
:10400000012300E0002318461837BD4680BD80B567
:104010008AB000AFF860B9607A607B8001237B6270
:10402000FDF758FE3862FB6893F85130FB77FB6868
:104030005B68BB617B88FB82FB7F012B0CD0BB697B
:10404000B3F5827F06D1FB689B68002B02D1FB7F12
:10405000042B01D002237FE1BB68002B05D07B68D5
:10406000002B02D07B88002B01D1012374E1FB6877
:1040700093F85030012B01D102236DE1FB6801223E
:1040800083F85020FB6893F85130DBB2042B03D047
:10409000FB68052283F85120FB6800225A65FB6803
:1040A0007A689A63FB687A88DA87FB687A889A87E5
:1040B000FB68BA681A63FB687A88DA86FB687A88D4
:1040C0009A86FB6800221A64FB6800225A64FB6827
:1040D0001B681B6803F04003402B07D0FB681B687C
:1040E0001A68FB681B6842F040021A60FB68DB68D4
:1040F000B3F5006F7ED1FB685B68002B02D0FB8AB2
:10410000012B6CD1FB681B6B1A88FB681B68DA609B
:10411000FB681B6B9A1CFB681A63FB68DB8E9BB207
:10412000013B9AB2FB68DA8659E0FB681B689B6822
:1041300003F00203022B1BD1FB68DB8E9BB2002B2A
:1041400016D07B6A012B13D1FB681B6B1A88FB68A6
:104150001B68DA60FB681B6B9A1CFB681A63FB68C0
:10416000DB8E9BB2013B9AB2FB68DA8600237B624E
:10417000FB681B689B6803F00103012B19D1FB68E6
:10418000DB8F9BB2002B14D0FB681B68DA68FB68DE
:104190009B6B92B21A80FB689B6B9A1CFB689A63BC
:1041A000FB68DB8F9BB2013B9AB2FB68DA87012385
:1041B0007B62FDF78FFD02463B6AD31A3A6B9A4247
:1041C0000DD83B6BB3F1FF3F09D0FB68012283F8A8
:1041D0005120FB68002283F850200323BCE0FB68D9
:1041E000DB8E9BB2002BA0D1FB68DB8F9BB2002B38
:1041F0009BD182E0FB685B68002B02D0FB8A012B1D
:1042000071D1FB681A6BFB681B680C3312781A704B
:10421000FB681B6B5A1CFB681A63FB68DB8E9BB246
:10422000013B9AB2FB68DA865DE0FB681B689B681D
:1042300003F00203022B1CD1FB68DB8E9BB2002B28
:1042400017D07B6A012B14D1FB681A6BFB681B68C3
:104250000C3312781A70FB681B6B5A1CFB681A63CC
:10426000FB68DB8E9BB2013B9AB2FB68DA860023C7
:104270007B62FB681B689B6803F00103012B19D16B
:10428000FB68DB8F9BB2002B14D0FB681B68DA68DD
:10429000FB689B6BD2B21A70FB689B6B5A1CFB6865
:1042A0009A63FB68DB8F9BB2013B9AB2FB68DA87AB
:1042B00001237B62FDF70EFD02463B6AD31A3A6B7F
:1042C0009A4203D83B6BB3F1FF3F02D13B6B002B0B
:1042D00009D1FB68012283F85120FB68002283F892
:1042E0005020032338E0FB68DB8E9BB2002B9CD16F
:1042F000FB68DB8F9BB2002B97D13A6A396BF86869
:1043000000F00CFA0346002B08D0FB6820225A6507
:10431000FB68002283F8502001231DE0FB689B68A6
:10432000002B0AD100233B61FB681B68DB683B6103
:10433000FB681B689B683B613B69FB68012283F853
:104340005120FB68002283F85020FB685B6D002B36
:1043500001D0012300E0002318462837BD4680BD68
:1043600080B588B000AF78607B681B685B68FB61D4
:104370007B681B689B68BB61BB699B0903F00103F9
:10438000002B0FD1BB6903F00103002B0AD0FB699E
:104390009B0903F00103002B04D07B681B6C786839
:1043A0009847BEE0BB695B0803F00103002B0AD00D
:1043B000FB69DB0903F00103002B04D07B685B6C15
:1043C00078689847ADE0BB695B0903F00103002BF7
:1043D00006D1BB699B0903F00103002B00F0A1800B
:1043E000FB695B0903F00103002B00F09A80BB69B5
:1043F0009B0903F00103002B23D07B6893F8513015
:10440000DBB2032B11D07B685B6D43F004027B6849
:104410005A6500237B617B681B68DB687B617B6876
:104420001B689B687B617B690BE000233B617B68B9
:104430001B68DB683B617B681B689B683B613B6971
:104440006FE0BB695B0903F00103002B14D07B68AC
:104450005B6D43F001027B685A650023FB607B685B
:104460001B689B68FB607B681B681A687B681B681D
:1044700022F040021A60FB687B685B6D002B4FD016
:104480007B681B685A687B681B6822F0E0025A60F0
:104490007B68012283F85120FB6903F00203002BA3
:1044A00004D1FB6903F00103002B34D07B681B6847
:1044B0005A687B681B6822F003025A607B68DB6CD9
:1044C000002B11D07B68DB6C174A5A637B68DB6C6E
:1044D0001846FDF7C7FD0346002B05D07B685B6DD2
:1044E00043F040027B685A657B689B6C002B16D0BA
:1044F0007B689B6C0C4A5A637B689B6C1846FDF783
:10450000B1FD0346002B0AD07B685B6D43F040028F
:104510007B685A6503E0786800F008F800E000BFA7
:1045200000BF2037BD4680BD3F45000880B483B042
:1045300000AF786000BF0C37BD4680BC704780B5C7
:1045400084B000AF78607B685B6AFB60FB68002228
:10455000DA87FB680022DA86F868FFF7E7FF00BF1A
:104560001037BD4680BD000080B588B000AFF86050
:10457000B9603B601346FB71FDF7ACFB0246BB6ABA
:104580009B1A3A681344FB61FDF7A4FBB861394BF1
:104590001B685B011B0DFA6902FB03F37B6154E0AE
:1045A0003B68B3F1FF3F50D0FDF794FB0246BB6977
:1045B000D31AFA699A4202D9FB69002B3DD1FB68F4
:1045C0001B685A68FB681B6822F0E0025A60FB68AF
:1045D0005B68B3F5827F11D1FB689B68B3F5004F30
:1045E00004D0FB689B68B3F5806F07D1FB681B683C
:1045F0001A68FB681B6822F040021A60FB689B6A1D
:10460000B3F5005F0FD1FB681B681A68FB681B6875
:1046100022F400521A60FB681B681A68FB681B686A
:1046200042F400521A60FB68012283F85120FB68B3
:10463000002283F85020032317E07B69002B01D16F
:104640000023FB617B69013B7B61FB681B689A6807
:10465000BB681340BA689A420CBF01230023DBB247
:104660001A46FB799A429BD1002318462037BD4653
:1046700080BD00BF0000002080B586B002AFF860AA
:10468000B9607A60FB685B68B3F5827F11D1FB6823
:104690009B68B3F5004F04D0FB689B68B3F5806F4F
:1046A00007D1FB681B681A68FB681B6822F0400290
:1046B0001A60FB685B68B3F5827F17D1FB689B6863
:1046C000B3F5806F12D17B680093BB680022012193
:1046D000F868FFF749FF0346002B1AD0FB685B6DB3
:1046E00043F02002FB685A65032313E07B680093C4
:1046F000BB6800228021F868FFF736FF0346002BD5
:1047000007D0FB685B6D43F02002FB685A6503230A
:1047100000E0002318461037BD4680BD80B586B046
:1047200002AFF860B9607A607B680093BB680122D1
:104730000221F868FFF718FF0346002B07D0FB683B
:104740005B6D43F02002FB685A65032313E07B682E
:104750000093BB6800228021F868FFF705FF03463D
:10476000002B07D0FB685B6D43F02002FB685A65A5
:10477000032300E0002318461037BD4680BD80B5F6
:1047800082B000AF78607B68002B01D1012341E04B
:104790007B6893F83D30DBB2002B06D17B680022AA
:1047A00083F83C207868FDF7F1F87B68022283F8F3
:1047B0003D207B681A687B6804331946104600F078
:1047C00011FA7B68012283F846207B68012283F876
:1047D0003E207B68012283F83F207B68012283F81A
:1047E00040207B68012283F841207B68012283F806
:1047F00042207B68012283F843207B68012283F8F2
:1048000044207B68012283F845207B68012283F8DD
:104810003D20002318460837BD4680BD80B584B0D2
:1048200000AF78607B681B68DB68FB607B681B6897
:104830001B69BB60BB6803F00203002B20D0FB6840
:1048400003F00203002B1BD07B681B686FF0020291
:104850001A617B6801221A777B681B689B6903F0E9
:104860000303002B03D0786800F0A1F905E0786815
:1048700000F094F9786800F0A3F97B6800221A77B9
:10488000BB6803F00403002B20D0FB6803F0040393
:10489000002B1BD07B681B686FF004021A617B68D9
:1048A00002221A777B681B689B6903F44073002B14
:1048B00003D0786800F07BF905E0786800F06EF9C5
:1048C000786800F07DF97B6800221A77BB6803F0F6
:1048D0000803002B20D0FB6803F00803002B1BD03B
:1048E0007B681B686FF008021A617B6804221A77E4
:1048F0007B681B68DB6903F00303002B03D0786837
:1049000000F055F905E0786800F048F9786800F0A3
:1049100057F97B6800221A77BB6803F01003002B5D
:1049200020D0FB6803F01003002B1BD07B681B68B2
:104930006FF010021A617B6808221A777B681B6887
:10494000DB6903F44073002B03D0786800F02FF983
:1049500005E0786800F022F9786800F031F97B68AA
:1049600000221A77BB6803F00103002B0CD0FB6810
:1049700003F00103002B07D07B681B686FF0010276
:104980001A61786800F001F9BB6803F08003002B1E
:104990000CD0FB6803F08003002B07D07B681B68FA
:1049A0006FF080021A61786800F087FABB6803F044
:1049B0004003002B0CD0FB6803F04003002B07D012
:1049C0007B681B686FF040021A61786800F001F99B
:1049D000BB6803F02003002B0CD0FB6803F020031E
:1049E000002B07D07B681B686FF020021A61786883
:1049F00000F05AFA00BF1037BD4680BD80B584B0C4
:104A000000AF786039600023FB737B6893F83C301B
:104A1000012B01D10223B4E07B68012283F83C2002
:104A20007B68022283F83D207B681B689B68BB6023
:104A3000BB6823F07703BB60BB6823F47F43BB6094
:104A40007B681B68BA689A603B681B68B3F5005FB7
:104A50003ED0B3F5005F00F28780B3F5805F00F0D1
:104A60008680B3F5805F7FD8702B1AD0702B7BD8EF
:104A7000602B50D0602B77D8502B3CD0502B73D864
:104A8000402B58D0402B6FD8302B64D0302B6BD8B4
:104A9000202B60D0202B67D8002B5CD0102B5AD055
:104AA00062E07B6818683B6899683B685A683B68B5
:104AB000DB6800F07CF97B681B689B68BB60BB68A7
:104AC00043F07703BB607B681B68BA689A604FE06D
:104AD0007B6818683B6899683B685A683B68DB6884
:104AE00000F065F97B681B689A687B681B6842F474
:104AF00080429A603CE07B6818683B6859683B6874
:104B0000DB681A4600F0DCF87B681B685021184609
:104B100000F033F92CE07B6818683B6859683B6803
:104B2000DB681A4600F0FAF87B681B6860211846BB
:104B300000F023F91CE07B6818683B6859683B6803
:104B4000DB681A4600F0BCF87B681B6840211846F9
:104B500000F013F90CE07B681A683B681B68194683
:104B6000104600F00AF903E00123FB7300E000BFE8
:104B70007B68012283F83D207B68002283F83C207B
:104B8000FB7B18461037BD4680BD80B483B000AFB4
:104B9000786000BF0C37BD4680BC704780B483B0DE
:104BA00000AF786000BF0C37BD4680BC704780B452
:104BB00083B000AF786000BF0C37BD4680BC704743
:104BC00080B483B000AF786000BF0C37BD4680BCB6
:104BD000704780B483B000AF786000BF0C37BD462B
:104BE00080BC704780B485B000AF786039607B6866
:104BF0001B68FB607B682F4A93420BD07B68B3F144
:104C0000804F07D07B682C4A934203D07B682B4AA5
:104C1000934208D1FB6823F07003FB603B685B683C
:104C2000FA681343FB607B68224A93420BD07B688F
:104C3000B3F1804F07D07B681F4A934203D07B6853
:104C40001E4A934208D1FB6823F44073FB603B6823
:104C5000DB68FA681343FB60FB6823F080023B6863
:104C60005B691343FB607B68FA681A603B689A686B
:104C70007B68DA623B681A687B689A627B680D4AD7
:104C8000934203D13B681A697B681A637B680122EF
:104C90005A617B681B6903F00103002B05D07B6818
:104CA0001B6923F001027B681A6100BF1437BD46FF
:104CB00080BC7047002C0140000400400008004008
:104CC00080B487B000AFF860B9607A60FB681B6A97
:104CD0007B61FB681B6A23F00102FB681A62FB68B8
:104CE0009B693B613B6923F0F0033B617B681B01DF
:104CF0003A6913433B617B6923F00A037B617A695C
:104D0000BB6813437B61FB683A699A61FB687A6907
:104D10001A6200BF1C37BD4680BC704780B487B0A4
:104D200000AFF860B9607A60FB681B6A7B61FB6862
:104D30001B6A23F01002FB681A62FB689B693B61E7
:104D40003B6923F470433B617B681B033A6913435F
:104D50003B617B6923F0A0037B61BB681B017A691F
:104D600013437B61FB683A699A61FB687A691A624E
:104D700000BF1C37BD4680BC704780B485B000AF13
:104D8000786039607B689B68FB60FB6823F0700388
:104D9000FB603A68FB68134343F00703FB607B68E2
:104DA000FA689A6000BF1437BD4680BC704780B473
:104DB00087B000AFF860B9607A603B60FB689B68C1
:104DC0007B617B6923F47F437B613B681A027B68CC
:104DD0001A43BB6813437A6913437B61FB687A69A2
:104DE0009A6000BF1C37BD4680BC704780B485B058
:104DF00000AF786039607B6893F83C30012B01D1BB
:104E0000022346E07B68012283F83C207B68022273
:104E100083F83D207B681B685B68FB607B681B68D0
:104E20009B68BB60FB6823F07003FB603B681B68FA
:104E3000FA681343FB607B681B68FA685A607B68FA
:104E40001B68164A93420ED07B681B68B3F1804FF3
:104E500009D07B681B68124A934204D07B681B68A8
:104E6000104A93420CD1BB6823F08003BB603B68BF
:104E70005B68BA681343BB607B681B68BA689A605A
:104E80007B68012283F83D207B68002283F83C2068
:104E9000002318461437BD4680BC7047002C0140E3
:104EA000000400400008004080B483B000AF786088
:104EB00000BF0C37BD4680BC704780B483B000AFE4
:104EC000786000BF0C37BD4680BC704780B582B0AB
:104ED00000AF78607B68002B01D1012342E07B6842
:104EE00093F84130DBB2002B06D17B68002283F8B7
:104EF00040207868FCF798FD7B68242283F84120E5
:104F00007B681B68DA687B681B6822F40052DA60F1
:104F1000786800F071F97B681B681A697B681B6808
:104F200022F490421A617B681B685A697B681B688F
:104F300022F02A025A617B681B68DA687B681B686A
:104F400042F40052DA607B6800225A647B682022B7
:104F500083F841207B68202283F842207B6800226E
:104F60005A63002318460837BD4680BD80B58AB015
:104F700002AFF860B9603B601346FB8000237B61A1
:104F8000FB6893F84130DBB2202B75D1BB68002B56
:104F900002D0FB88002B01D101236EE0FB680022C8
:104FA0005A64FB68212283F84120FCF793FE786164
:104FB000FB68FA889A84FB68FA88DA84FB689B6845
:104FC000B3F5805F08D1FB681B69002B04D1002377
:104FD000FB61BB68BB6103E0BB68FB610023BB6195
:104FE0002EE03B6800937B6900228021F86800F086
:104FF00048F80346002B05D0FB68202283F84120A7
:1050000003233AE0FB69002B0BD1BB691B881A46CE
:10501000FB681B68C2F308025A60BB690233BB61BC
:1050200007E0FB691A78FB681B685A60FB6901336B
:10503000FB61FB68DB8C9BB2013B9AB2FB68DA84B4
:10504000FB68DB8C9BB2002BCBD13B6800937B6968
:1050500000224021F86800F014F80346002B05D028
:10506000FB68202283F84120032306E0FB6820220E
:1050700083F84120002300E0022318462037BD4674
:1050800080BD80B586B000AFF860B9603B60134664
:10509000FB713BE03B6AB3F1FF3F37D0FCF71AFEF0
:1050A00002463B68D31A3A6A9A4202D33B6A002B03
:1050B00001D103233AE0FB681B68DB6803F00403BB
:1050C000002B23D0BB68802B20D0BB68402B1DD089
:1050D000FB681B681B6803F00803082B16D100232C
:1050E0007B61FB681B681B687B61FB681B685B68F6
:1050F0007B617B69F86800F01DF8FB6808225A6440
:10510000FB68002283F8402001230FE0FB681B6846
:105110001A68BB681340BA689A420CBF0123002387
:10512000DBB21A46FB799A42B4D0002318461837EE
:10513000BD4680BD80B495B000AF78607B681B68C9
:105140000C337B637B6B53E8003F3B633B6B23F487
:105150009073FB647B681B680C33FA6C3A64FB63E6
:10516000F96B3A6C41E80023BB63BB6B002BE5D1C4
:105170007B681B6814333B623B6A53E8003FFB616A
:10518000FB6923F00103BB647B681B681433BA6CB2
:10519000FA62BB62B96AFA6A41E800237B627B6A01
:1051A000002BE5D17B681B6B012B19D17B681B6839
:1051B0000C33FB60FB6853E8003FBB60BB6823F027
:1051C00010037B647B681B680C337A6CBA617B616B
:1051D0007969BA6941E800233B613B69002BE5D15D
:1051E0007B68202283F842207B6800221A6300BF7C
:1051F0005437BD4680BC704780B584B000AF78603E
:105200007B681B681B6923F440517B68DA687B6804
:105210001B680A431A617B689A687B681B691A439A
:105220007B685B691343BB607B681B68DB6823F4A6
:10523000B05323F00C037A681268B9680B43D3604B
:105240007B681B685B6923F440717B689A697B68A3
:105250001B680A435A617B681B682C4A934203D13E
:10526000FEF79AFBF86002E0FEF782FBF860FA684E
:1052700013469B0013449A001A447B685B689B00AA
:10528000B2FBF3F3224AA2FB03235B091901FA687C
:1052900013469B0013449A001A447B685B689B008A
:1052A000B2FBF3F21A4BA3FB02035B09642000FB81
:1052B00003F3D31A1B013233154AA2FB03235B0904
:1052C00003F0F0031944FA6813469B0013449A0054
:1052D0001A447B685B689B00B2FBF3F20C4BA3FBA8
:1052E00002035B09642000FB03F3D31A1B01323372
:1052F000074AA2FB03235B0903F00F027B681B68CC
:105300000A449A6000BF1037BD4680BD0038014096
:105310001F85EB5180B592B000AF786007F10803AC
:1053200040220021184603F077FC7868FBF77CF8F0
:1053300002460B4607F10800064903F0BBFB07F1E4
:10534000080202230421042000F0D6FB00BF4837E6
:10535000BD4680BD70C300082DE9B04394B000AFD6
:105360001448FBF7DAFF1448FCF716FC00F08AFD3E
:1053700000F022FD022000F0EEFC00BF01F078FFFB
:105380000346002BFAD0002001F0E8F80346B3F101
:10539000FF3F04D10948FCF7FFFB00BFFDE70848C9
:1053A00001F0FEFA0346002B0ED00648FCF7F4FB92
:1053B00000BFFDE780C3000884C3000898C300084D
:1053C00018000020ACC30008BB4801F0F9F944F212
:1053D000010001F0B7FD44F2010001F0C3FD03201C
:1053E00002F030F9002002F025FB002002F002FB61
:1053F000002002F083FA00BF0021442000F029FFC2
:105400000346AE4A1360AD4B1A68AD4B1340002BF8
:10541000F2D0AA4B1B6803F48043002B00F0998163
:105420004FF480420021442000F065FF00214C2011
:1054300000F00FFF0346C3F30903FB64FB6C182B5A
:1054400006D8FB6C9BB2002219469E4801F01CFE58
:105450009C4B00229A700A229B499A4803F0CCFB8D
:105460000346002BBED100F0F8F902460B469749DF
:10547000C1E90023954BD3E900239549541843F122
:1054800000054FF000024FF00003220A42EA0562D5
:105490002B0A1346BB64B86C02F04EF94FF4FA7055
:1054A00001F0C8FEDC2002F0A5FA052002F0C2FAE5
:1054B000884B1A78884B9A70884B1B68864AC2F8CA
:1054C0000D3000228449132001F05EFD01220021ED
:1054D000132001F091FD032002F03CF978647B6C0D
:1054E000B3F1FF3F00F03B8100BF0021442000F0FA
:1054F000B0FE0346714A1360704B1A68704B13403C
:10550000002BF2D0734B1B780133DAB2714B1A7057
:105510006A4B1B6803F48043002B00F014814FF4A6
:1055200081420021442000F0E6FE00214C2000F0E2
:1055300090FE0346C3F30903FB64FB6C182B06D8EB
:10554000FB6C9BB2002219465E4801F09DFD5D4B4D
:1055500000229A700A2262495A4803F04DFB034622
:10556000002B7FF43FAF00F037F902460B465D4950
:10557000C1E9002300F071F902460B465A49C1E91E
:10558000002307F10C031946584800F0A7F907F16A
:1055900008031946564800F0A1F93B1D1946554825
:1055A00000F09CF9494BD3E9002313463B644D4B73
:1055B000D3E900231346FB634B4BD3E90023134687
:1055C000BB63BA68FB68D31A1846FAF70BFF0246AA
:1055D0000B46C7E90C23BA6BFB6BD31A1846FAF7D4
:1055E00001FF02460B46C7E90A237A68BB68D31A53
:1055F0001846FAF7F7FE02460B46C7E90823FA6B8E
:105600003B6CD31A1846FAF7EDFE02460B46C7E983
:105610000623D7E90A23D7E90C01FAF75DFF024612
:105620000B4690469946D7E90623D7E90801FAF7D1
:1056300053FF02460B4640464946FAF795FD02469F
:105640000B4690469946D7E90A23D7E90C01FAF7A9
:105650008DFD02460B4610461946D7E90823FAF796
:1056600085FD02460B4610461946D7E90623FAF790
:105670007DFD02460B4640464946FBF757F8024679
:105680000B4610461946FBF7F3FC02460B46C7E9EA
:105690000423D7E90401FAF7F1FE05A3D3E90023B7
:1056A000FAF71AFF02460B461349C1E9002325E029
:1056B000FA48CE3B1835B13D0C00002048060020CA
:1056C00000D02724300600202800002050060020AB
:1056D00068816D032C060020340000207006002035
:1056E0004800002058060020600600203A060020EE
:1056F0003E06002042060020680600201C4BD3E92D
:10570000000119A3D3E90023FAF7E6FE02460B468F
:1057100010461946FBF7D8F90346164A1360154B95
:105720001B681846FFF7F6FD124B1B681846FAF780
:105730007BFE02460B461049104803F0BBF90F48A8
:10574000FCF72AFA4EE60E4A0021442000F0D3FD71
:1057500048E60B4A0021442000F0CDFD42E600BFA0
:1057600040E600BFAFF300800000001319DDB14137
:105770006806002070060020C0C300081C06002038
:105780000090272480B582B000AF0023FB710D4B41
:105790000D4A1A60FB790133FB71FB79012B06D0AE
:1057A0000A4B0B4A40F261110A4802F02DFA054BF0
:1057B0001B68002B02D0034B1B68984700BF0837BB
:1057C000BD4680BD7406002059530008D0C30008B0
:1057D00050C50008E0C300082DE9B04384B000AF15
:1057E0004FF000024FF00003C7E902233B46184682
:1057F00001F08CFC0423FB7123E0D7E902014FF098
:1058000000024FF000030B0243EA10630202C7E9F3
:10581000022397F9073010333B4413F8103CDBB2F6
:1058200000221C461546D7E9022342EA040843EA4F
:105830000509C7E9028997F90730DBB2013BDBB202
:10584000FB7197F90730002BD7DAD7E9022310460E
:1058500019461037BD46BDE8B0832DE9B04384B08A
:1058600000AF4FF000024FF00003C7E902233B46B0
:10587000184601F059FC0423FB7123E0D7E902012B
:105880004FF000024FF000030B0243EA10630202E4
:10589000C7E9022397F9073010333B4413F8103C53
:1058A000DBB200221C461546D7E9022342EA04086F
:1058B00043EA0509C7E9028997F90730DBB2013BE2
:1058C000DBB2FB7197F90730002BD7DAD7E9022357
:1058D000104619461037BD46BDE8B08380B485B088
:1058E00000AF786039603B6800221A600023FB73C8
:1058F00010E03B681A68FB7B79680B441B781946FB
:10590000FB7BDB0001FA03F31A443B681A60FB7B64
:105910000133FB73FB7B032BEBD900BF00BF1437B4
:10592000BD4680BC7047000080B586B004AF03461A
:105930000A46FB711346BB71FB799AB24FF0FF33F5
:10594000029301230193BB1D009301237821034897
:10595000FDF7DCF800BF0837BD4680BD4C030020D2
:1059600080B582B000AF0346FB71FB791946002079
:10597000FFF7DAFF00BF0837BD4680BD80B582B0B3
:1059800000AF0346FB71FB7919464020FFF7CCFFBF
:1059900000BF0837BD4680BD80B500AF642000F071
:1059A000DAF9AE20FFF7DCFF2020FFF7D9FF102047
:1059B000FFF7D6FFB020FFF7D3FFC820FFF7D0FFD7
:1059C0000020FFF7CDFF1020FFF7CAFF4020FFF7B0
:1059D000C7FF8120FFF7C4FFFF20FFF7C1FFA12011
:1059E000FFF7BEFFA620FFF7BBFFA820FFF7B8FF19
:1059F0003F20FFF7B5FFA420FFF7B2FFD320FFF74A
:105A0000AFFF0020FFF7ACFFD520FFF7A9FFF02084
:105A1000FFF7A6FFD920FFF7A3FF2220FFF7A0FF83
:105A2000DA20FFF79DFF1220FFF79AFFDB20FFF738
:105A300097FF2020FFF794FF8D20FFF791FF1420A0
:105A4000FFF78EFFAF20FFF78BFF00BF80BD80B553
:105A500082B000AF03460A46FB711346BB71BB79A7
:105A6000503BDBB21846FFF77BFFFB791B09DBB22B
:105A700043F01003DBB21846FFF772FF97F90730C7
:105A800003F00E035BB243F001035BB2DBB21846D6
:105A9000FFF766FF00BF0837BD4680BD80B584B004
:105AA00000AF0346FB710023FB731CE0FB7B503B04
:105AB000DBB21846FFF754FF0020FFF751FF10201C
:105AC000FFF74EFF0023BB7306E0FB791846FFF794
:105AD00055FFBB7B0133BB7397F90E30002BF4DA13
