:020000040800F2
:1000000000500020CD260008112300081523000809
:1000100025230008352300084523000800000000C0
:100020000000000000000000000000005523000850
:100030005723000800000000592300085D23000832
:1000400015270008152700081527000815270008A0
:100050001527000815270008152700081527000890
:100060001527000815270008152700081527000880
:100070001527000815270008712300087D230008B4
:100080001527000815270008152700081527000860
:100090008923000815270008152700089523000864
:1000A0001527000815270008152700081527000840
:1000B000A5230008152700081527000815270008A4
:1000C000152700081527000815270008B123000888
:1000D00015270008C1260008152700081527000865
:1000E0001527000815270008BD23000800000000A0
:1000F0000000000000000000000000000000000000
:0C01000000000000000000005FF808F1A3
:1001100010B5054C237833B9044B13B10448AFF341
:1001200000800123237010BD080F00200000000094
:10013000F0D7000808B5034B1BB103490348AFF3E0
:10014000008008BD000000000C0F0020F0D7000860
:1001500010F8012B11F8013B012A28BF9A42F7D071
:10016000D01A7047034613F8012B002AFBD1181A46
:100170000138704781F0004102E000BF83F0004386
:1001800030B54FEA41044FEA430594EA050F08BF32
:1001900090EA020F1FBF54EA000C55EA020C7FEAF6
:1001A000645C7FEA655C00F0E2804FEA5454D4EB73
:1001B0005555B8BF6D420CDD2C4480EA020281EA3D
:1001C000030382EA000083EA010180EA020281EA75
:1001D0000303362D88BF30BD11F0004F4FEA0131C7
:1001E0004FF4801C4CEA113102D0404261EB4101D6
:1001F00013F0004F4FEA03334CEA133302D052425C
:1002000063EB430394EA050F00F0A780A4F1010417
:10021000D5F1200E0DDB02FA0EFC22FA05F2801851
:1002200041F1000103FA0EF2801843FA05F3594137
:100230000EE0A5F120050EF1200E012A03FA0EFCB6
:1002400028BF4CF0020C43FA05F3C01851EBE371E0
:1002500001F0004507D54FF0000EDCF1000C7EEBFD
:1002600000006EEB0101B1F5801F1BD3B1F5001F3B
:100270000CD349085FEA30004FEA3C0C04F101045A
:100280004FEA445212F5800F80F09A80BCF1004F83
:1002900008BF5FEA500C50F1000041EB045141EA05
:1002A000050130BD5FEA4C0C404141EB0101013CCE
:1002B00028BFB1F5801FE9D291F0000F04BF0146BD
:1002C0000020B1FA81F308BF2033A3F10B03B3F18F
:1002D00020020CDA0C3208DD02F1140CC2F10C021F
:1002E00001FA0CF021FA02F10CE002F11402D8BF7D
:1002F000C2F1200C01FA02F120FA0CFCDCBF41EA49
:100300000C019040E41AA2BF01EB0451294330BD17
:100310006FEA04041F3C1CDA0C340EDC04F11404F4
:10032000C4F1200220FA04F001FA02F340EA0300CB
:1003300021FA04F345EA030130BDC4F10C04C4F111
:10034000200220FA02F001FA04F340EA03002946F1
:1003500030BD21FA04F0294630BD94F0000F83F43B
:10036000801306BF81F480110134013D4EE77FEA1E
:10037000645C18BF7FEA655C29D094EA050F08BF6A
:1003800090EA020F05D054EA000C04BF194610464B
:1003900030BD91EA030F1EBF0021002030BD5FEA8F
:1003A000545C05D14000494128BF41F0004130BDB7
:1003B00014F580043CBF01F5801130BD01F000450B
:1003C00045F0FE4141F470014FF0000030BD7FEA7E
:1003D000645C1ABF194610467FEA655C1CBF0B4679
:1003E000024650EA013406BF52EA033591EA030F90
:1003F00041F4002130BD00BF90F0000F04BF002188
:10040000704730B54FF4806404F132044FF00005BA
:100410004FF0000150E700BF90F0000F04BF002133
:10042000704730B54FF4806404F1320410F0004599
:1004300048BF40424FF000013EE700BF42004FEA94
:10044000E2014FEA31014FEA02701FBF12F07F4311
:1004500093F07F4F81F06051704732F07F4208BFC8
:10046000704793F07F4F04BF41F40021704730B5CF
:100470004FF4607401F0004521F000411CE700BF1B
:1004800050EA010208BF704730B54FF000050AE09E
:1004900050EA010208BF704730B511F0004502D59F
:1004A000404261EB41014FF4806404F132045FEAA1
:1004B000915C3FF4D8AE4FF003025FEADC0C18BF4A
:1004C00003325FEADC0C18BF033202EBDC02C2F13C
:1004D000200300FA03FC20FA02F001FA03FE40EACE
:1004E0000E0021FA02F11444BDE600BF70B54FF0D2
:1004F000FF0C4CF4E06C1CEA11541DBF1CEA1355B0
:1005000094EA0C0F95EA0C0F00F0DEF82C4481EA17
:10051000030621EA4C5123EA4C5350EA013518BF37
:1005200052EA033541F4801143F4801338D0A0FB24
:1005300002CE4FF00005E1FB02E506F00042E0FBD1
:1005400003E54FF00006E1FB03569CF0000F18BFD7
:100550004EF0010EA4F1FF04B6F5007F64F540747F
:1005600004D25FEA4E0E6D4146EB060642EAC62112
:1005700041EA55514FEAC52040EA5E504FEACE2E7F
:10058000B4F1FD0C88BFBCF5E06F1ED8BEF1004F82
:1005900008BF5FEA500E50F1000041EB045170BDFE
:1005A00006F0004646EA010140EA020081EA030142
:1005B000B4EB5C04C2BFD4EB0C0541EA045170BD3E
:1005C00041F480114FF0000E013C00F3AB8014F1B8
:1005D000360FDEBF002001F0004170BDC4F1000401
:1005E000203C35DA0C341BDC04F11404C4F1200582
:1005F00000FA05F320FA04F001FA05F240EA0200DD
:1006000001F0004221F0004110EBD37021FA04F612
:1006100042EB06015EEA430E08BF20EAD37070BDCC
:10062000C4F10C04C4F1200500FA04F320FA05F02B
:1006300001FA04F240EA020001F0004110EBD3702D
:1006400041F100015EEA430E08BF20EAD37070BD9D
:10065000C4F1200500FA05F24EEA020E20FA04F376
:1006600001FA05F243EA020321FA04F001F0004125
:1006700021FA04F220EA020000EBD3705EEA430E96
:1006800008BF20EAD37070BD94F0000F0FD101F0C5
:100690000046400041EB010111F4801F08BF013CFE
:1006A000F7D041EA060195F0000F18BF704703F03C
:1006B0000046520043EB030313F4801F08BF013DC3
:1006C000F7D043EA0603704794EA0C0F0CEA13557F
:1006D00018BF95EA0C0F0CD050EA410618BF52EA39
:1006E0004306D1D181EA030101F000414FF000003F
:1006F00070BD50EA410606BF1046194652EA43064D
:1007000019D094EA0C0F02D150EA013613D195EAC0
:100710000C0F05D152EA03361CBF104619460AD108
:1007200081EA030101F0004141F0FE4141F4700112
:100730004FF0000070BD41F0FE4141F4780170BD02
:1007400070B54FF0FF0C4CF4E06C1CEA11541DBF67
:100750001CEA135594EA0C0F95EA0C0F00F0A7F869
:10076000A4EB050481EA030E52EA03354FEA013196
:1007700000F088804FEA03334FF0805545EA1313A9
:1007800043EA12634FEA022245EA111545EA106571
:100790004FEA00260EF000419D4208BF964244F108
:1007A000FD0404F5407402D25B084FEA3202B61A27
:1007B00065EB03055B084FEA32024FF480104FF4FB
:1007C000002CB6EB020E75EB030E22BFB61A75466F
:1007D00040EA0C005B084FEA3202B6EB020E75EB02
:1007E000030E22BFB61A754640EA5C005B084FEA6A
:1007F0003202B6EB020E75EB030E22BFB61A754637
:1008000040EA9C005B084FEA3202B6EB020E75EB41
:10081000030E22BFB61A754640EADC0055EA060E02
:1008200018D04FEA051545EA16754FEA06164FEA45
:10083000C30343EA52734FEAC2025FEA1C1CC0D1F1
:1008400011F4801F0BD141EA00014FF000004FF07E
:10085000004CB6E711F4801F04BF01430020B4F13F
:10086000FD0C88BFBCF5E06F3FF6AFAEB5EB030CF7
:1008700004BFB6EB020C5FEA500C50F1000041EBF4
:10088000045170BD0EF0004E4EEA113114EB5C04C1
:10089000C2BFD4EB0C0541EA045170BD41F4801194
:1008A0004FF0000E013C90E645EA060E8DE60CEA9C
:1008B000135594EA0C0F08BF95EA0C0F3FF43BAFB9
:1008C00094EA0C0F0AD150EA01347FF434AF95EA70
:1008D0000C0F7FF425AF104619462CE795EA0C0F54
:1008E00006D152EA03353FF4FDAE1046194622E721
:1008F00050EA410618BF52EA43067FF4C5AE50EAFB
:1009000041047FF40DAF52EA43057FF4EBAE12E7EA
:100910004FF0FF3C06E000BF4FF0010C02E000BFCB
:100920004FF0010C4DF804CD4FEA410C7FEA6C5CAE
:100930004FEA430C18BF7FEA6C5C1BD001B050EA51
:10094000410C0CBF52EA430C91EA030F02BF90EA3C
:10095000020F0020704710F1000F91EA030F58BFFB
:10096000994208BF90422CBFD8176FEAE37040F05D
:10097000010070474FEA410C7FEA6C5C02D150EAFB
:10098000013C07D14FEA430C7FEA6C5CD6D152EAB6
:10099000033CD3D05DF8040B704700BF844610467B
:1009A00062468C461946634600E000BF01B5FFF77A
:1009B000B7FF002848BF10F1000F01BD4DF808ED4A
:1009C000FFF7F4FF0CBF012000205DF808FB00BF1B
:1009D0004DF808EDFFF7EAFF34BF012000205DF875
:1009E00008FB00BF4DF808EDFFF7E0FF94BF0120C2
:1009F00000205DF808FB00BF4DF808EDFFF7CEFFC3
:100A000094BF012000205DF808FB00BF4DF808ED01
:100A1000FFF7C4FF34BF012000205DF808FB00BFD2
:100A20004FEA410C7FEA6C5C02D150EA013C0AD1EA
:100A30004FEA430C7FEA6C5C02D152EA033C02D1DC
:100A40004FF0000070474FF0010070474FEA41023D
:100A500012F5001215D211D56FF47873B3EB625210
:100A600012D94FEAC12343F0004343EA505311F037
:100A7000004F23FA02F018BF404270474FF00000C9
:100A8000704750EA013005D111F0004008BF6FF007
:100A9000004070474FF00000704700BF4FEA41022E
:100AA000B2F1E04324BFB3F5001CDCF1FE5C0DD9CC
:100AB00001F0004C4FEAC0024CEA5070B2F1004F16
:100AC00040EB830008BF20F00100704711F0804F19
:100AD00021D113F13872BCBF01F00040704741F4DE
:100AE00080114FEA5252C2F11802C2F1200C10FAE2
:100AF0000CF320FA02F018BF40F001004FEAC123C6
:100B00004FEAD32303FA0CFC40EA0C0023FA02F369
:100B10004FEA4303CCE77FEA625307D150EA01333F
:100B20001EBF4FF0FE4040F44000704701F000400F
:100B300040F0FE4040F40000704700BF80F00040ED
:100B400002E000BF81F0004142001FBF5FEA4103A5
:100B500092EA030F7FEA226C7FEA236C6AD04FEAA5
:100B60001262D2EB1363C1BFD218414048404140EA
:100B7000B8BF5B42192B88BF704710F0004F40F49C
:100B8000000020F07F4018BF404211F0004F41F4B8
:100B9000000121F07F4118BF494292EA030F3FD084
:100BA000A2F1010241FA03FC10EB0C00C3F1200397
:100BB00001FA03F100F0004302D5494260EB400026
:100BC000B0F5000F13D3B0F1807F06D340084FEA91
:100BD000310102F10102FE2A51D2B1F1004F40EB86
:100BE000C25008BF20F0010040EA030070474900EE
:100BF00040EB0000013A28BFB0F5000FEDD2B0FA8B
:100C000080FCACF1080CB2EB0C0200FA0CF0AABFAD
:100C100000EBC25052421843BCBFD040184370474B
:100C200092F0000F81F4000106BF80F40000013251
:100C3000013BB5E74FEA41037FEA226C18BF7FEA28
:100C4000236C21D092EA030F04D092F0000F08BF6A
:100C50000846704790EA010F1CBF0020704712F051
:100C60007F4F04D1400028BF40F00040704712F190
:100C700000723CBF00F50000704700F0004343F0F5
:100C8000FE4040F4000070477FEA226216BF08462B
:100C90007FEA23630146420206BF5FEA412390EAEE
:100CA000010F40F4800070474FF0000304E000BFE4
:100CB00010F0004348BF40425FEA000C08BF704795
:100CC00043F0964301464FF000001CE050EA010259
:100CD00008BF70474FF000030AE000BF50EA01026E
:100CE00008BF704711F0004302D5404261EB41015B
:100CF0005FEA010C02BF84460146002043F0B64380
:100D000008BFA3F18053A3F50003BCFA8CF2083AA4
:100D1000A3EBC25310DB01FA02FC634400FA02FCAD
:100D2000C2F12002BCF1004F20FA02F243EB0200B4
:100D300008BF20F00100704702F1200201FA02FC16
:100D4000C2F1200250EA4C0021FA02F243EB020009
:100D500008BF20EADC7070474FF0FF0C1CEAD0524D
:100D60001EBF1CEAD15392EA0C0F93EA0C0F6FD00E
:100D70001A4480EA010C400218BF5FEA41211ED0EC
:100D80004FF0006343EA501043EA5111A0FB0131D8
:100D90000CF00040B1F5000F3EBF490041EAD371AD
:100DA0005B0040EA010062F17F02FD2A1DD8B3F129
:100DB000004F40EBC25008BF20F00100704790F098
:100DC000000F0CF0004C08BF49024CEA502040EAEA
:100DD00051207F3AC2BFD2F1FF0340EAC2507047B0
:100DE00040F400004FF00003013A5DDC12F1190FEE
:100DF000DCBF00F000407047C2F10002410021FA60
:100E000002F1C2F1200200FA02FC5FEA310040F177
:100E1000000053EA4C0308BF20EADC70704792F0F0
:100E2000000F00F0004C02BF400010F4000F013A28
:100E3000F9D040EA0C0093F0000F01F0004C02BF23
:100E4000490011F4000F013BF9D041EA0C018FE792
:100E50000CEAD15392EA0C0F18BF93EA0C0F0AD098
:100E600030F0004C18BF31F0004CD8D180EA0100BE
:100E700000F00040704790F0000F17BF90F0004F57
:100E8000084691F0000F91F0004F14D092EA0C0F39
:100E900001D142020FD193EA0C0F03D14B0218BFCC
:100EA000084608D180EA010000F0004040F0FE4012
:100EB00040F40000704740F0FE4040F440007047AE
:100EC0004FF0FF0C1CEAD0521EBF1CEAD15392EA2D
:100ED0000C0F93EA0C0F69D0A2EB030280EA010C1D
:100EE00049024FEA402037D04FF0805343EA1111B6
:100EF00043EA10130CF000408B4238BF5B0042F114
:100F00007D024FF4000C8B4224BF5B1A40EA0C00B8
:100F1000B3EB510F24BFA3EB510340EA5C00B3EBEA
:100F2000910F24BFA3EB910340EA9C00B3EBD10FD8
:100F300024BFA3EBD10340EADC001B0118BF5FEA2A
:100F40001C1CE0D1FD2A3FF650AF8B4240EBC25053
:100F500008BF20F0010070470CF0004C4CEA502014
:100F60007F32C2BFD2F1FF0340EAC250704740F463
:100F700000004FF00003013A37E792F0000F00F055
:100F8000004C02BF400010F4000F013AF9D040EAD3
:100F90000C0093F0000F01F0004C02BF490011F467
:100FA000000F013BF9D041EA0C0195E70CEAD1535F
:100FB00092EA0C0F08D142027FF47DAF93EA0C0F46
:100FC0007FF470AF084676E793EA0C0F04D14B022A
:100FD0003FF44CAF08466EE730F0004C18BF31F0DC
:100FE000004CCAD130F000427FF45CAF31F00043D6
:100FF0007FF43CAF5FE700BF4FF0FF3C06E000BF6F
:101000004FF0010C02E000BF4FF0010C4DF804CD91
:101010004FEA40024FEA41037FEA226C18BF7FEAA1
:10102000236C11D001B052EA530C18BF90EA010FA3
:1010300058BFB2EB030088BFC81738BF6FEAE17032
:1010400018BF40F0010070477FEA226C02D15FEACE
:10105000402C05D17FEA236CE4D15FEA412CE1D03A
:101060005DF8040B704700BF844608466146FFE701
:101070000FB5FFF7C9FF002848BF10F1000F0FBDE3
:101080004DF808EDFFF7F4FF0CBF012000205DF8DC
:1010900008FB00BF4DF808EDFFF7EAFF34BF012061
:1010A00000205DF808FB00BF4DF808EDFFF7E0FFFA
:1010B00094BF012000205DF808FB00BF4DF808ED4B
:1010C000FFF7D2FF94BF012000205DF808FB00BFAE
:1010D0004DF808EDFFF7C8FF34BF012000205DF890
:1010E00008FB00BF4FEA4002B2F1FE4F0FD34FF0B2
:1010F0009E03B3EB12620DD94FEA002343F0004385
:1011000010F0004F23FA02F018BF404270474FF032
:101110000000704712F1610F01D1420205D110F0B9
:10112000004008BF6FF0004070474FF0000070476C
:1011300038B50022002304460D46FFF749FC28B9C4
:1011400020462946BDE8384000F00AB8204605F19F
:10115000004100F005F8404261EB410138BD00BF9D
:10116000D0B500220B4B06460F46FFF7BFF900F043
:1011700015F80446FFF740F90022074BFFF7B6F9D0
:1011800002460B4630463946FEF7F8FF00F006F8F7
:101190002146D0BD0000F03D0000F0414A0011D2D0
:1011A00012F5001211D20DD56FF47873B3EB6252C1
:1011B0000ED44FEAC12343F0004343EA505323FACD
:1011C00002F070474FF00000704750EA013002D142
:1011D0004FF0FF3070474FF00000704737B5154DA6
:1011E000154C284601F046FA144A1549154801F0F5
:1011F00041FA1549154801F03DFA1549154801F025
:1012000039FA2168144801F035FA6168134801F091
:1012100031FA636912480093A168D4E9032301F00D
:1012200029FA104801F026FA284603B0BDE83040FC
:1012300001F020BA28D800080000002064D8000877
:1012400070D8000879D8000897D80008A2D80008FC
:10125000C1D80008D1D80008F0D800080DD900087E
:101260002AD9000899D9000808B5084B682200213E
:1012700018460AF015FB4AF6AA22054940F8042C44
:10128000492214300AF09FFB08BD00BF0400002073
:10129000640B002038B5064D064C1B22294620461B
:1012A00006F0BAF900B138BD642002F0FDF8F4E7A9
:1012B0000000002000FC00081B220249024806F042
:1012C000DBB900BF0000002000FC000808B5FFF7F4
:1012D000F3FF4AF6AA22104B1968914213D00F4827
:1012E00001F0C8F9FFF7C0FFFFF7D4FFBFF34F8F3E
:1012F0000B490C4BCA6802F4E0621343CB60BFF3A6
:101300004F8F00BFFDE75A6801325A60FFF7C2FFF6
:10131000BDE8084006F05CB90000002069D900086B
:1013200000ED00E00400FA0508B54FF4FA7002F091
:10133000BBF800F04FF8FFF7C9FFBDE80840FFF722
:101340004DBF000010B5044600F054F800F0A0F8BE
:101350001CB11B21064800F0E1F8064BD3F8F43A23
:101360002BB1BDE810400021084600F0D7B810BDF1
:1013700077D900086C0000200020FFF7E3BF0000D1
:10138000124A10B5B2F900101388002905DB590480
:101390000CD50A2803D000231380002005E06FEA53
:1013A00043436FEA53430120138010BD0D2802D13F
:1013B00043F48043F0E7C3F30D0101339BB2044CC7
:1013C0003F2B60541380E6D8E7E700BF640F00208E
:1013D000240F002008B54022002104480AF060FADA
:1013E0000348032106F0D8FF08BD00BF240F0020EA
:1013F000680F00202DE9F047ADF5407D4FF40072F5
:10140000002140A80AF04CFA4FF4007140A807F000
:10141000AFF8064648B10027DFF86880DFF868902B
:10142000DFF868A040ACB74204DB00200DF5407D3A
:10143000BDE8F08714F8010BFFF7A2FFF8B11FAD6C
:101440008222002128460AF02BFA98F8002049460B
:101450000DF17E008DF87D200AF0B5FA762222A9E2
:1014600068460AF0B0FA95E80E00504606F0A9FF6B
:10147000002140224846A8F800100AF011FA01376E
:10148000D1E700BF640F0020240F0020680F002068
:1014900000B5A3B0054801A906F0C0FF18B10DF1D1
:1014A000060000F019F923B05DF804FB680F002076
:1014B00070B5184C0D46D4F8F43A5A18B2F5AF6F1F
:1014C0000BD204F5AF660A460146F0180AF07BFA23
:1014D000D4F8F43A2B44C4F8F43AD4F8F03A012B97
:1014E00016D10D49D4F8F42AA1F5AF600AF06BFAD1
:1014F000D4F8F41A074807F0D1F80022B4F8F41A27
:10150000044801F09FF80023C4F8F03AC4F8F43A14
:10151000002070BD6C000020E4050020FFF7C8BF6C
:1015200084B02DE9F04307AC84E80F000F9BBDF8B1
:101530001F80DDF82150DDF82540BDF829E0BDF819
:1015400033C0BDF83570BDF8376083F803804FEACB
:1015500018289DF81C9083F804804FEA25285D71B7
:1015600083F806804FEA25482D0EDDF82B109DF8F4
:101570001D0083F800901D729DF81E9025125C726C
:101580009D722514240EDDF82F20587083F80290E8
:1015900083F80780DD721C730C12D9731C740C1451
:1015A000090E99741112DA7419751114120E9A75C4
:1015B000002283F80DE083F817C04FEA1E2E4FEA91
:1015C0001C2C5F76DE763F0A360A5C7483F80EE0E8
:1015D000597583F818C09F761E775C1CE11A013993
:1015E000884208DC5A779DF83A2004309A77BDE8A3
:1015F000F04304B0704714F8011F4A40EEE70000C2
:1016000030B50268194B04469A42C1B02CD1012270
:101610001749184805F090FA23685868C0B2FFF7D8
:10162000AFFE08B3144D1FAC8222002120460AF001
:1016300037F92A7811490DF17E008DF87D200AF0E6
:10164000C2F922A9762268460AF0BDF994E80E0094
:101650000B4806F0B6FE002140220848298041B020
:10166000BDE830400AF01CB941B030BD003801403F
:10167000C812002080120020640F0020240F0020D8
:10168000680F00207047000038B50546A02009F01B
:101690005FFE0446D0B10E490AF08DF92946A01D1F
:1016A0000AF089F92846FEF75DFD06300949204415
:1016B0000AF081F92046FEF755FD81B22046FFF77A
:1016C0002DFF2046BDE8384009F04ABE38BD00BFB6
:1016D00093D9000899D900082DE9F04305468BB04D
:1016E0002022002102A80AF0DBF82B46264813F836
:1016F000012B815C1C7801F00301022908BF203A0C
:1017000003F8012C002CF2D15B1B019328461F49E2
:1017100008AB03AA0AF006F8A046DFF8749059F85F
:10172000346001943EB9029B012B27D0022B14D0C8
:101730000BB0BDE8F083314603A809EBC408FEF7FF
:1017400007FDC8B903A8FEF70DFD07463046FEF7B2
:1017500009FD874210D1022302932846D8F80430AD
:10176000089998470446099060B1FEF7FBFC81B2E6
:101770002046FFF7D3FEDBE70134D0E70548FFF74B
:1017800083FFD5E70448FAE743E800089CD900083E
:10179000CCDE0008A3D90008B6D90008BFF34F8FEC
:1017A0000549064BCA6802F4E0621343CB60BFF3FD
:1017B0004F8F00BFFDE700BF00ED00E00400FA0519
:1017C00008B5FFF7EBFF0000024B03481B68998048
:1017D000704700BFA11B002064DF0008024B0348D4
:1017E0001B68D980704700BFA11B002064DF000880
:1017F000024B03481B68D982704700BFA11B002021
:1018000064DF0008024B03481B681977704700BF6C
:10181000A11B002064DF0008024B03481B681983EA
:10182000704700BFA11B002064DF00087FB50A8A53
:101830004B680492CA8903928A8902924A88CDE948
:1018400000328B680A88034909F04AFF07B05DF847
:1018500004FB00BFC0D9000830B5A9B0A022002108
:1018600068460AF01DF80A4C0A4D54F8082B12B9C4
:10187000094829B030BD2946684609F031FF68465D
:10188000FEF770FC81B26846FFF748FEEDE700BF47
:10189000CCDE000811DA000864DF000800B591B062
:1018A00040220021684609F0FBFF084B084A09491D
:1018B000684609F015FF6846FEF754FC81B2684699
:1018C000FFF72CFE044811B05DF804FBC1D80008F6
:1018D00097D8000817DA000864DF000800B52F4B1E
:1018E000C3B018689B8800904FF48072002102A852
:1018F000ADF8043009F0D4FF45F65A22284902A871
:1019000009F0EEFE02A8FEF72DFC02AB25491844B3
:101910000AF051F802A8FEF725FC02AB2249184450
:101920000AF049F802A8FEF71DFC02AB6A461F49FF
:10193000184409F0D5FE02A8FEF714FC0DF1080CBE
:1019400060441B4B1B4A1C4909F0CAFE02A8FEF763
:1019500009FC02AB1844194A194909F0C1FE02A852
:10196000FEF700FC1749821F0DF10A0009F0B8FECE
:101970007B2302A88DF80E30FEF7F4FB02AB18446F
:1019800011490AF018F802A8FEF7ECFB81B202A890
:10199000FFF7C4FD0D4843B05DF804FBC1DA000851
:1019A00038DA00083FDA00084BDA000863DA00088A
:1019B00070D8000864D8000875DA000888DA0008D2
:1019C000B1DA00083ADA000899D9000864DF0008A3
:1019D00000B5C9B04FF48072002108A809F060FF7B
:1019E000114B1968B1F90600CB7E8A7E0690B1F9D9
:1019F00004000590088B0490C88A0390087F029029
:101A000008880190498808A80091084909F068FEF3
:101A100008A8FEF7A7FB81B208A8FFF77FFD0448DE
:101A200049B05DF804FB00BFA11B0020C7DA000825
:101A300064DF000808B5FFF72DFC06210248FFF718
:101A40006DFD024808BD00BF2CDB000864DF000804
:101A500008B5FFF709FCFFF71DFC642001F024FD29
:101A6000FFF79CFEF0B5A9B001F0F0FC054601F0CF
:101A7000E3FC0446A0220021684609F011FF24B3CC
:101A8000152262430A321F49684609F029FE68465A
:101A9000FEF768FB1C49684409F08DFF6846FEF7B5
:101AA00061FB81B26846FFF739FD184E184F083DBB
:101AB0006CB904211748FFF731FD174800F0DAFD33
:101AC00001F0DAFC154829B0F0BD0D22DBE755F82E
:101AD000083F314668466A6809F002FE012C06D0CC
:101AE0006846FEF73FFB3946684409F064FF6846E4
:101AF000FEF738FB013C81B26846FFF70FFDA4B248
:101B0000D6E700BF38DA000833DB00083FDB000807
:101B10005FDA00084CDB000851DB000864DF0008D6
:101B200030B5A9B0A0220021684609F0B9FE01F045
:101B3000FFFB054601F002FC0446002838D0294688
:101B40006846FFF773FE6846FEF70CFBC21C624353
:101B500009321849684609F0C3FD6846FEF702FBE2
:101B60001549684409F027FF6846FEF7FBFA81B281
:101B70006846FFF7D3FC2B889BB129466846FFF7E0
:101B800055FE012C06DD6846FEF7ECFA0B49684469
:101B900009F011FF6846FEF7E5FA81B26846FFF7E3
:101BA000BDFC04210648FFF7B9FC064829B030BD4A
:101BB0000C22CEE738DA00085BDB00085FDA0008A9
:101BC0004CDB000864DF00082DE9F0478146D0B007
:101BD0004FF48072002110A80DF132040CAD0DF10C
:101BE0002E060DF12C080DF12A070DF1280A09F037
:101BF00057FE48462449059404950396CDF808807D
:101C00000197CDF800A00DF126030DAA09F08AFD79
:101C1000082837D1BDF82630BDF8282013439BB2E1
:101C2000012B2FD8BDF82C0001282BD8174BBDF85D
:101C30002A7019689DF82E60B1F906C0BDF83050C1
:101C4000BDF83240CB7E8A7E08804F800E77CD82F1
:101C50000C83CDF818C0B1F90410CDE90070CDE9BE
:101C60000441CDE902650A4910A809F039FD10A820
:101C7000FEF778FA81B210A8FFF750FC054850B083
:101C8000BDE8F0870448FAE766DB0008A11B0020E6
:101C9000C7DA000864DF00085CDF000810B5B8B0E0
:101CA0000446A022002110A809F0FAFD0023CDE986
:101CB0000733CDE90933CDE90B330CAB04930BAB00
:101CC00003930AAB029309AB019308AB0093204640
:101CD00007AB2C490DAA09F025FD0A9B13B900207A
:101CE00038B010BD0B9B002BF9D00728F7D1DDE9E8
:101CF0000710BDF8242001F05BFB04460028EED05D
:101D00000A9B45F65A2283810B9B1F49C3810C9B7A
:101D1000038210A809F0E4FC10A8FEF723FA10AB28
:101D20001A49184409F047FE10A8FEF71BFA10AB39
:101D300018442146FFF77AFD10A8FEF713FA10ABFE
:101D40001844134909F037FE10A8FEF70BFA1149A1
:101D5000821F0DF1420009F0C3FC7B2310A88DF80F
:101D60004630FEF7FFF910AB0B49184409F023FE8B
:101D700010A8FEF7F7F981B210A8FFF7CFFB0748CC
:101D8000AEE700BF7FDB000838DA000898DB000808
:101D90000FDA00083ADA000899D9000864DF000871
:101DA00010B5B0B00446A022002108A809F078FDC3
:101DB0000023CDE9033304AB20490093204603AB55
:101DC00005AA09F0AFFCDDE90310B0F5803F71F121
:101DD00000032ED301F025FB45F65A22184908A826
:101DE00009F07EFC08A8FEF7BDF9DDE9032308AC85
:101DF0001449204409F074FC2046FEF7B3F9124957
:101E0000821F0DF1220009F06BFC7B2320468DF828
:101E10002630FEF7A7F90D49204409F0CCFD2046F5
:101E2000FEF7A0F981B22046FFF778FB084830B0F2
:101E300010BD80B201F0EAFACEE700BFA6DB0008D1
:101E400038DA0008B3DB00083ADA000899D900084C
:101E500064DF00080E4B07B55A690A2142F00102FF
:101E60005A615B69002203F0010301930E20019B7C
:101E700001F04EFC0E2001F07BFC00220A210F2015
:101E800001F046FC0F2003B05DF804EB01F070BCDC
:101E900000100240F0B5102789B03A460DEB07005C
:101EA000002109F0FDFC284B01249A6902253A43E0
:101EB0009A619A69254E3A400092009A9A69304692
:101EC00042F020029A619A69122102F020020192E6
:101ED000019A9A6942F004029A619A6902F0040236
:101EE0000292029A9A6942F008029A619B69012261
:101EF00003F008030393039B02F042F80DEB070184
:101F00003046CDE90454CDE9064501F0F1FE032346
:101F1000CDE904740027304604A9CDE9067301F029
:101F2000E7FE20220A4B04A90A48CDE904230695BE
:101F300001F0DEFE3A462146172001F0E9FB1720AA
:101F400001F016FC09B0F0BD00100240000801408D
:101F500000001110000C014008B50B480B4A0C4B57
:101F6000C0E9002300234FF48042C0E90233C0E9F6
:101F70000423C0E90633036202F05EF918B1BDE83C
:101F8000084000F0CDB808BDFC100020005400400F
:101F9000A086010010B5044686B01022002102A8D8
:101FA00009F07EFC2268114B9A421CD1104CC022D1
:101FB000A369104843F00803A361A36902A903F0D1
:101FC00008030093009B1223CDE90223032305930A
:101FD00001F08EFEE36943F40013E361E36903F467
:101FE00000130193019B06B010BD00BF00540040D8
:101FF00000100240000C014008B5642001F064FBB1
:1020000006F0A4F8FF2006F00FF9002008BD10B577
:102010000446FFF7F1FF00220121102006F092F99B
:1020200001222020114606F08DF9022201213020E4
:1020300006F088F903220121402006F083F92246A8
:10204000BDE8104002230121512006F007B930B548
:10205000102495B0224600210CA809F021FC14227E
:1020600000210DEB020009F01BFC2246002101A813
:1020700009F016FC02254FF480330922CDE91153F3
:10208000CDE90A2301224FF4E0130AA80E92109220
:10209000139303F0ADF808B172B6FEE70F23CDE954
:1020A00005354FF480630790CDE90830294605A82F
:1020B00003F060FA08B172B6FEE7049001A801943B
:1020C00003F014FB08B172B6FEE715B030BD000096
:1020D00008B501F0D5FAFFF7BAFFFFF7DBFEFFF70F
:1020E000B9FE00F01FF800F019FA00F0C3F9FFF78D
:1020F00033FF06F03BFA06F04BFA05F08BFA05F0D9
:10210000D5FAFFF711F901220349044804F014FD40
:1021100000F008FFFEE700BFC81200208012002078
:1021200072B6FEE770B5002486B0274B05949A6915
:10213000264842F004029A619A6902A902F0040258
:102140000092009A9A69102542F008029A612022B2
:102150009B69012603F008030193019B1C4BCDE909
:1021600002230223049301F0C3FD0323194802A9AB
:102170000593CDE9025601F0BBFD324629461548CC
:1021800001F0FEFE31461720224601F0C1FA4FF45D
:10219000827311481149C0E90244C0E900134FF4A9
:1021A0000073C0E906350A23C0E90444C0E90844C5
:1021B0008462C36203F0B6FB20B106B0BDE8704094
:1021C000FFF7AEBF06B070BD00100240000C01402A
:1021D000000011100008014054110020003001409F
:1021E000102210B5044688B00DEB0200002109F062
:1021F00057FB22681B4B9A4231D103F560439A6921
:10220000032442F480529A619A69174802F480527A
:102210000192019A9A6904A942F001029A619A69AD
:1022200002F001020292029A9A6942F004029A6153
:102230009B69A02203F004030393039B02230794EA
:10224000CDE9042301F054FD40210023CDE904131E
:102250000123054804A9CDE9063401F049FD08B081
:1022600010BD00BF003001400008014008B5026801
:102270000A4B9A4210D10A4AE0219369094823F493
:102280008053936101F008FE232001F07FFABDE83E
:102290000840172001F07ABA08BD00BF00300140A5
:1022A00000100240000801400E4B82B09A6942F0D3
:1022B00001029A619A6902F001020092009ADA69B9
:1022C00042F08052DA61DB69074A03F080530193E0
:1022D000019B536823F0E06343F00073536002B046
:1022E000704700BF0010024000000140BFF34F8F55
:1022F0000549064BCA6802F4E0621343CB60BFF3A2
:102300004F8F00BFFDE700BF00ED00E00400FA05BD
:10231000FEE7000008B5024800F0ACF9FFF7E6FF61
:1023200048DC000808B5024800F0A4F9FEE700BF49
:102330005BDC000808B5024800F09CF9FEE700BF2E
:102340006EDC000808B5024800F094F9FFF7CEFFF4
:1023500080DC0008704770477047000008B501F046
:10236000A1F9024A13680133136008BD501100201F
:10237000014801F003BB00BFF8110020014801F043
:10238000FDBA00BF3C120020014802F01DB900BF99
:10239000E02C002008B501F041F9BDE808402020FC
:1023A00001F0F4BD014803F0FEBD00BFB0110020F4
:1023B000014803F075BD00BF54110020FFF7E4BFD2
:1023C0000120704708B509F0C9FA162303604FF0E1
:1023D000FF3008BD08B509F0C1FA16230360FEE717
:1023E00070B50D4614460E46731B9C4201DC204618
:1023F00070BDAFF3008006F8010BF5E770B50D4630
:1024000014460E46731B9C4201DC204670BD16F834
:10241000010BAFF30080F5E74FF0FF3070474FF44A
:10242000005300204B607047012070470020704728
:102430000B4A0346116810B509B90A4911601068C2
:1024400009490A4C0344091B8B4206D909F086FA54
:102450000C2303604FF0FF3010BD1360FCE700BF9A
:10246000AC1100204832002000500020000800007D
:10247000704700007FB51022002102A809F010FA71
:1024800041F61F424FF0804114480023C0E900127A
:1024900040F2E732CDE90033C0E9032383608023B3
:1024A000836103F047FE08B1FFF73AFE4FF4805313
:1024B0000A4802A9029303F073FE08B1FFF730FE49
:1024C000002369460548CDE9003303F003FF08B156
:1024D000FFF726FE07B05DF804FB00BFB011002037
:1024E000036807B5B3F1804F15D103F50433DA69FA
:1024F0000B2142F00102DA61DB69002203F00103E3
:1025000001931C20019B01F003F91C2003B05DF82E
:1025100004EB01F02DB903B05DF804FB08B54FF4EE
:10252000E1330A480A4AC0E9002300230C22C0E92B
:102530000233C0E905230361C36103F095FF18B1BD
:10254000BDE80840FFF7ECBD08BD00BF80120020C9
:102550000038014070B5054686B01022002102A85F
:1025600009F09EF92A68314B9A425DD103F5584330
:102570009A694FF4007142F480429A619A692C483A
:1025800002F480420092009A9A69002642F0040206
:102590009A619B69274C03F004030193019B02237A
:1025A000CDE90213032302A9059301F0A1FB4FF427
:1025B00080631F4802A9CDE90236049601F098FB1A
:1025C0001D4B2020C4E900368023C4E903364FF4B4
:1025D0000053C4E906032046A660666101F0FCF8DA
:1025E00008B1FFF79DFD1023144AEC636562144C9B
:1025F000C4E9002300238022C4E90433C4E9023281
:10260000A3614FF400532046E36101F0E5F808B1FF
:10261000FFF786FD252000220521AC63656201F0ED
:1026200077F8252001F0A4F806B070BD003801400D
:10263000000801403C1200205800024044000240C3
:10264000F8110020012A10B50C4608D10A464FF0B7
:10265000FF330146064803F036FF204610BD0A4608
:102660000146034803F07EFF002818BF0024F4E76A
:10267000801200200FB413B5094C04AB53F8042B9F
:102680004FF480712046019309F0ECF8012281B2E9
:102690002046FFF7D7FF02B0BDE8104004B07047F6
:1026A000C91200200268044B9A4202BF0122034B68
:1026B000C3F8F02A704700BF003801406C000020CA
:1026C000014804F0A3B800BF80120020FFF7D0FE3D
:1026D0000B480C490C4A002302E0D458C450043380
:1026E000C4188C42F9D3094A094C002301E0136055
:1026F0000432A242FBD309F037F9FFF7E9FC704737
:1027000000000020080F0020B8E90008080F002092
:1027100044320020FEE710B5172000F075FF044694
:1027200010B1172001F032F8204610BD10B117206B
:1027300001F01EB87047000084B030B5A3B026ACDD
:1027400084E80F00274B2C9D1A6801321A6005237C
:1027500092FBF3F303EB83039A423ED14FF07C519B
:102760002998FEF7F1F9FEF7BDFC642290FBF2F325
:1027700002FB130040211C4A009002A808F07AFFD7
:102780000421022302AA084605F068FD2846FEF748
:10279000A9FC0446FEF78CFA01462846FEF7D2F95A
:1027A0001249FEF7D9FA4FF07C51FEF7CDF9FEF74A
:1027B00099FC0028B8BF40420928C4BF0A38013438
:1027C00040210B4A0090634212A808F053FF0223F5
:1027D0000621042012AA05F041FD23B0BDE83040D7
:1027E00004B07047CC13002094DC000800002041A6
:1027F000A6DC00082DE9F0410C4686B005464249AA
:10280000C068FEF75DFB21460646A868FEF79AF908
:102810003E490446FEF73EFC002867D020463C496E
:10282000FEF792F9044620463A49FEF795FA3A4BEC
:1028300080461B68DB7AA3B1384F01AC0FCF0FC4C1
:102840003B6837492360012401AF4046FEF784FA14
:1028500057F8041FFEF778F90134052C0146F4D12E
:10286000804630494046FEF72BFB4FF07E51044630
:10287000FEF72EFC002844D120462B49FEF70AFC27
:1028800000B1294C4FF07C514046FEF765FA0146F5
:102890003046FEF757F921468046FEF75DFA234998
:1028A000FEF752F91849FEF757FA214628612046EB
:1028B000FEF752FA01464FF07E50FEF743F9FDF75E
:1028C000BDFD0AF007FC06460F464046FDF7B6FD83
:1028D00032463B46FDF70AFE0022154BFDF706FE89
:1028E000FEF7DCF8686106B0BDE8F08120461149CA
:1028F000FEF7EEFB002896D020460549FEF722F9A8
:1029000090E74FF07E54BDE70000C842000034C39A
:102910000000B443AF4C0639A11B002008D80008C2
:1029200000F45DC6C364AA3C000080BFC3642A3CB7
:1029300000005940000034432DE9F04F05460F4692
:10294000934685B05F454ADA05EBC70318CBB84616
:10295000CDE900345C4605EBC40602E0013C444589
:1029600013D0DDE9002376E80201FEF74FF80028D6
:10297000F4D1444509DD05EBC403D3E9000105EBBF
:10298000C803C3E9000108F10108464605EBC80980
:10299000A642B046CA4613DADAE90001731C039373
:1029A000DDE9002309F10809FEF712F8A8B905EBE3
:1029B000C403013CA642DAE90001C3E90001CADB15
:1029C00005EBC603DDE900122846C3E900123946CB
:1029D000721EFFF7B1FF771CB4E7039ED8E705B07E
:1029E000BDE8F08F2DE9F04F4FF436755543DFF811
:1029F0000481074608EB0509D9F804000E461D2896
:102A00001446ADF5377D0CDDFDF706FD3A4B00228F
:102A10000AF038FBFEF71AF80123C9F8040008F899
:102A200005304FF436795B2509FB04F908EB090BF7
:102A3000DBF804A0386805FB04A56B1C08EBC30396
:102A40000193FDF7FBFC019B1F35C3E900013068D2
:102A5000FDF7F4FC0AF10103CBF8043018F8093053
:102A600008EBC505C5E90001002B3FD0234D6442AA
:102A700004F43674F022291902A808F0A4FF05F125
:102A8000F001F02221443EA808F09DFF05F5F07109
:102A9000F02221447AA808F096FF1D22002102A806
:102AA000FFF74AFFDDE91E23DDE92001FDF768FBA2
:102AB000134B0022FDF71AFDFDF7F0FF1D22002148
:102AC00038603EA8FFF738FFDDE95A23DDE95C01F5
:102AD000FDF756FB00220A4BFDF708FDFDF7DEFF70
:102AE0001D22306000217AA8FFF726FF0DF5377D03
:102AF000BDE8F08FD013002000003E40D813002026
:102B00000000E03F012A05D8034B1B68DB8A0BB1AC
:102B1000FFF768BF704700BFA11B002038B5D0F891
:102B20000E40D0F80A502146284600F011FCB8B3F8
:102B3000214B4268A3F10A041A6082685A604288F5
:102B40001A8100F0A0FA1D4BC01841F10001000AE3
:102B500040EA016008F028F800222146142007F01E
:102B600057F916200122002107F0A8F9012008F0EA
:102B70003BF880B90021442006F008F90306F9D596
:102B800044204FF48142002106F06CF9BDE8384042
:102B9000052000F089BC0A48BDE83840FFF76ABD4F
:102BA0002846214600F056FC28B128462146BDE8BB
:102BB000384000F089BA38BDF50B002068816D03FC
:102BC000B6DC0008000000002DE9F04F06469BB07F
:102BD000408900F0D5FB0446002800F0688100F031
:102BE00052FABF4BBF4DC3E90001BF4BC31841F1BF
:102BF00000011B0A43EA016007F0D6FF40F29E2065
:102C000007F0F0FB4FF4967008F096F9B7492B786F
:102C100000228B7063881520A1F80B30B44B1B6821
:102C2000C1F80D30B34B1B68C1F8113007F0F0F854
:102C300001220021172007F041F9052008F0BAF918
:102C4000032007F0D1FF013000F03181AA4F0021AD
:102C5000442006F09BF83842F9D02B7810F48041DC
:102C600003F101032B7000F0258144204FF48142D1
:102C7000002106F0F7F80DF1320007F0F7F900280F
:102C800000F0158100214C2006F080F8C0F3090106
:102C9000B1F5007F03D80022304607F07FF900230A
:102CA0000A2230469549B37008F0EAFD054600282F
:102CB00040F0FD8000F0D4F9914FDFF84882C7E979
:102CC000000100F0E0F9C8E9000106F10A000DA9D1
:102CD00000F0ECF906F10E000EA900F0E7F906F19C
:102CE00012000FA900F0E2F93E68DDE90D07381A7D
:102CF000FDF782FBCDE90601D8F80000801BFDF747
:102D00007BFB82460F988B46C01BFDF775FB744B0F
:102D1000CDE90801186810AF301AFDF76DFB524677
:102D20005B46CDE90A01DDE90601FDF7DFFBDDE9E0
:102D30000A2380468946DDE90801FDF7D7FB0246F4
:102D40000B4640464946FDF719FA524680468946E9
:102D5000DDE906015B46FDF713FADDE90823FDF71F
:102D60000FFADDE90A23FDF70BFA02460B4640464F
:102D70004946FDF7E5FCFEF7DBF9FDF789FB52A3B9
:102D8000D3E90023FDF7B2FB51A3D3E90023FDF7FC
:102D9000ADFBFDF783FE564EDFF86CA1306007F007
:102DA000F5F9804628222946384608F079FD404644
:102DB000FDF77EFF4FF06851FDF7CEFF5349FDF759
:102DC000CBFF5349FEF77CF8524912903068FDF76B
:102DD000C3FFDAF8003013908046B3F90400FDF722
:102DE00067FF01463846FFF705FD228815A914A89C
:102DF000FFF788FEE278A3786C4643EA0223464A4E
:102E0000ADF840301378591C11708DF8423000F045
:102E10003BFB159911901498FEF752F8FDF70EFB45
:102E20000AF07EF900223D4BFDF760FB2AA3D3E9AF
:102E30000023FDF785FCFDF731FE00231793DAF838
:102E400000301690B3F90620B3F90430B2FA82F2DA
:102E5000B3FA83F35B095209DB031995ADF86250AD
:102E600043EA823314ADADF8603081460FCD0FC414
:102E700095E8030084E8030097E80F0000F0ACF940
:102E8000EE460DF1500CBCE80F00AEE80F0095E8DF
:102E9000030084E8030097E80F00FFF74DFC154B93
:102EA00040461C49C3F80090FEF70AF830601BB09A
:102EB000BDE8F08F44201A4A1BB0BDE8F04F05F082
:102EC000D1BF00BFAFF30080FA48CE3B1835B13D0B
:102ED0000000001319DDB14100000060FB21094032
:102EE00098190020A01B002068816D03CA0B0020E8
:102EF000841900208019002000D02724B40B002062
:102F00009019002088190020A11B002000003443E4
:102F1000DB0F49400000C842C91300200080664012
:102F2000009027242DE9F0414148FFF770F841480F
:102F3000FFF7A0FB00F010FB00F0CAFA022000F03F
:102F4000B3FA07F0BBFA0028FBD0002005F0C4FF5D
:102F5000013003D13848FFF78DFBFEE7374806F014
:102F600097FB054618B13648FFF784FBFEE7354866
:102F700008F062F944F2010006F00CFF44F201008F
:102F800006F026FF032007F0A3FD032006F07EF8DD
:102F90002D48FFF76FFB2D4E2D4F05F065FB0020F0
:102FA00008F008F8002007F0C7FF002007F03AFFFC
:102FB0000021442005F0EAFE3042F9D010F48041AF
:102FC00030D04FF480420021442005F04BFF002117
:102FD0004C2005F0DBFEC0F30904B4F5007F04D8F3
:102FE000002221461B4806F0D9FFDFF868800A223C
:102FF0004046194988F8025008F042FC30B9214691
:103000004046FFF78BFDFEF7B7F9C6E70A224046B8
:10301000124908F035FC0028F5D121464046FFF75B
:10302000D3FDF0E73A46442005F01CFFEBE700BF74
:10303000C0DC0008C5DC0008E5DC0008120C00203C
:10304000F6DC0008240C002009DD000800D027244D
:1030500000902724A0190020FF0B0020DF0B002088
:1030600007B5684607F04CF80020042301461DF818
:1030700003200902013B41EA106142EA0020F6D236
:1030800003B05DF804FB07B5684607F013F90020AC
:10309000042301461DF803200902013B41EA1061A7
:1030A00042EA0020F6D203B05DF804FB002310B51D
:1030B00001380B6010F8014F0A689C400833224425
:1030C000202B0A60F6D110BD30B5A9B005460C46DC
:1030D000A0220021684608F0E3FB45F65A22144975
:1030E000684608F0FDFA6846FDF73CF82B46224694
:1030F0001049684408F0F4FA6846FDF733F80E49C1
:10310000821F0DF1020008F0EBFA7B2368468DF870
:103110000630FDF727F80949684408F04CFC68467A
:10312000FDF720F881B26846FEF7F8F929B030BD06
:1031300038DA000817DD00083ADA000899D90008E3
:1031400084B030B5AFB032AC84E80F009DF8CA301F
:1031500038988DF81A30BDF8C8306C46ADF81B3081
:10316000FDF7C0FFCDF81D003598FDF7BBFFBDF89A
:10317000E8300EADADF825300023CDF82730CDF87E
:103180002B30BDF8EA300495ADF82F30BDF8EC30A7
:10319000CDF82100ADF83130BDF8EE30ADF8333068
:1031A00023238DF8363041F62A33ADF818300AABB8
:1031B0000FCB07C424F8023B1B0C237006AB0FCBCC
:1031C000FEF7AEF981B22846FEF7A8F92FB0BDE8A8
:1031D000304004B07047000084B070B5C6B04AAC4F
:1031E00084E80F004FF48072002106A808F058FB15
:1031F000464B1B681B8B002B78D145F65A2244495D
:1032000006A808F06DFA06A8FCF7ACFF06AB41492A
:10321000184408F0D0FB06A8FCF7A4FF4B9B06ACB3
:10322000BDF828213C49009320449DF82A3108F03C
:1032300057FA2046FCF796FF04464C98FDF752FFDC
:1032400006464D98FDF74EFF06AB05464F981C44C9
:10325000FDF748FF01904E98FDF744FF2A4633469C
:103260002E490090204608F03BFA06A8FCF77AFFAA
:1032700004465198FDF736FFBDF94E31BDF848516F
:103280000293BDF94C3102460193BDF94A3106A8BB
:103290002349009320442B4608F022FA06A8FCF7A5
:1032A00061FF06AB18441F4908F085FB06A8FCF730
:1032B00059FF1D49821F0DF11A0008F011FA7B23F6
:1032C00006A88DF81E30FCF74DFF06AB17491844D1
:1032D00008F071FB06A8FCF745FF81B206A8FEF7CF
:1032E0001DF946B0BDE8704004B07047012BF8D11D
:1032F0006C464EAD0FCD0FC495E8030084E8030083
:103300004AAB0FCBFFF71CFFEBE700BFA11B002070
:1033100038DA00082FDD000838DD000855DD000828
:1033200076DD00080FDA00083ADA000899D90008BB
:10333000014B186836307047A11B0020034B1B68F7
:10334000D88E003818BF0120704700BFA11B002095
:1033500030B50A4B1A68D2F83A50D2F83E4002F122
:1033600036038C4208BF854205D1D28E002A14BF95
:103370001846002030BD0020FCE700BFA11B002044
:10338000054B1B681A8F824204D1D88E18B103F105
:103390003600704700207047A11B0020034B1B68BC
:1033A000D88EB0FA80F04009704700BFA11B002002
:1033B00070B514460646FFF7CBFF0D460246F0B93E
:1033C000FFF7ECFF01281AD12046FFF7D9FFC0B95B
:1033D00001210D4B1B6883F83610198E03F136025C
:1033E000A3F84210598E83F83700A3F84410998E41
:1033F0001C87C3F83A60C3F83E50A3F84610104645
:1034000070BD0134A4B2DFE7A11B002008B5FFF7AF
:10341000B7FF28B1BDE808401322002108F040BAE8
:1034200008BD08B5FFF794FF28B1BDE80840132296
:10343000002108F035BA08BD034AD2E9003213432F
:1034400014BF012000207047A81B002000487047CF
:10345000A81B0020074B10B5D3E90024A14208BFE8
:10346000904205D0224308BFC3E90001012010BDEE
:103470000020FCE7A81B002000200021014BC3E92D
:1034800000017047A81B0020014B1868704700BF5F
:1034900050110020034A116813685B1A8342FBD362
:1034A000704700BF50110020FFF7F4BF064B074ADA
:1034B0001B68B3FBF2F3002243439B089A4200D1FE
:1034C000704700BF0132F9E7B00B002040420F0007
:1034D000F0B50027012503260C4C85B0694620462F
:1034E000CDE900550297039600F002FC3A462946C2
:1034F000204600F045FD69462046019600F0F8FBA5
:103500000220FFF7C7FF05B0F0BD00BF0008014073
:1035100038B50F4C0546204602F05CFA4FF4827332
:103520000C4A2046C4E9002300234FF40072C4E98A
:103530000233C4E90433C4E90625C4E90833A362AD
:1035400002F0F0F918B1BDE83840FEF7E9BD38BD2A
:1035500054110020003001400820FFF7D9BF0000BF
:10356000F8B505460F4614461E46FFF7D4F800226C
:1035700010210C4800F004FD35B14FF0FF332A460E
:103580003946094802F03CFA34B14FF0FF33224685
:103590003146054802F0E0FB02480122102100F00C
:1035A000EFFCF8BD00080140541100202DE9F04166
:1035B0000546884614461F46FFF7ADF8002206462A
:1035C00010210F4800F0DCFC35B14FF0FF332A46E4
:1035D00041460C4802F014FA34B14FF0FF33224652
:1035E0003946084802F00CFA01221021044800F084
:1035F000C7FC3046FFF79AF80020BDE8F08100BF15
:103600000008014054110020034B1B68034214BF03
:1036100001200020704700BF0004014010B5054C98
:103620002021204600F0A6FC00B910BD06F08AFF5C
:10363000F6E700BF000C014038B50E4B05461A787E
:103640004FF47A73B3FBF2F30B4A1068B0FBF3F05C
:1036500000F0AEF8044658B90F2D09D802462946A5
:103660004FF0FF3000F054F82046044B1D6038BD89
:103670000120FCE7300C0020B00B0020340C0020AF
:10368000074A08B51368032043F01003136000F0E5
:103690002DF80520FFF7D0FFFEF706FE002008BD3D
:1036A00000200240034A044B11681B780B4413604E
:1036B000704700BFB01B0020300C0020014B186881
:1036C000704700BFB01B002038B50446FFF7F6FF77
:1036D0000546631C1EBF044B1B78E418FFF7EEFF82
:1036E000431BA342FAD338BD300C00200749030224
:1036F000CA6803F4E06322F4E0621204120C13437C
:1037000043F0BF6343F40033CB60704700ED00E04B
:10371000154B30B5DC68C4F30224C4F10703251D42
:10372000042B28BF0423062D4FF0FF3594BF00243F
:10373000033C05FA03F321EA0303A54022EA05024C
:10374000A340002843EA0203ACBF00F16040074AEF
:103750004FEA0313DBB2ABBF00F5614000F00F008E
:1037600080F80033135430BD00ED00E014ED00E0AC
:10377000002807DB01234109034A00F01F008340B2
:1037800042F82130704700BF00E100E000280CDB68
:1037900001220649430900F01F008240203341F80E
:1037A0002320BFF34F8FBFF36F8F704700E100E01E
:1037B0000138B0F1807F0BD24FF0E023F021054AB1
:1037C000586182F823100020072298611A6170471F
:1037D0000120704700ED00E0034610B530B30168EA
:1037E0001420134A0A44B2FBF0F292001A64114A00
:1037F000DA63022283F82120D3E901242243DC6822
:10380000086822431C696FF30D1022435C69224350
:103810009C692243DC69224302430A6000200122A2
:10382000986383F8200083F8212010BD0120FCE775
:10383000F8FFFDBF00000240F0B590F82040012CD9
:1038400034D0012480F8204090F82140012CE5B2CA
:103850004FF0000428D1022680F8216084630468B8
:10386000266826F001062660D0E90F67BD40756026
:1038700063604368102BC36A0BBFA260A160E16064
:10388000E2604BB1236843F00E03002023602368FD
:1038900043F001032360F0BD236823F00403236099
:1038A000236843F00A03F0E780F820400220F2E7A3
:1038B00090F821200346022A06D0042282630120C8
:1038C000002283F8202070470268C06B116821F045
:1038D0000E011160116821F00101116001211A6CC3
:1038E00001FA02F24260002083F82110E8E70000AC
:1038F00008B590F82130022B03D004238363012004
:1039000008BD03681A6822F00E021A601A6822F0D5
:1039100001021A60174A93421FD0143293421ED0FC
:10392000143293421DD0143293421DD0143293426C
:103930001DD01432934214BF4FF080734FF48013A4
:103940000D4A5360012380F82130002380F8203095
:10395000436B03B198470020D2E70123F0E710231F
:10396000EEE74FF48073EBE74FF48053E8E74FF452
:103970008033E5E7080002400000024070B40425EF
:10398000C66B026C3468036895402542196832D0D2
:103990004D0730D51A6896065EBF1A6822F00402F9
:1039A0001A603E4A934219D01432934218D014320E
:1039B000934217D01432934217D01432934217D047
:1039C0001432934214BF4FF080634FF48003344AA3
:1039D0005360C36A002B5ED070BC18470423F6E71F
:1039E0004023F4E74FF48063F1E74FF48043EEE7C0
:1039F0004FF48023EBE702259540254235D08D0713
:103A000033D51A68940606D41A6822F00A021A609E
:103A1000012280F82120214A934219D01432934286
:103A200018D01432934217D01432934217D0143264
:103A3000934217D01432934214BF4FF000734FF4E7
:103A40000013174A5360002380F82030836AC1E7CF
:103A50000223F6E72023F4E74FF40073F1E74FF475
:103A60000053EEE74FF40033EBE70825954025427D
:103A700011D009070FD5196821F00E011960012333
:103A800003FA02F27260836380F82130002380F829
:103A90002030036B9EE770BC704700BF08000240F7
:103AA00000000240114AD36813F0100305D01049FA
:103AB000CB6943F00203CB611023D268500706D5CF
:103AC0000B4943F00403CA6942F00102CA61074A84
:103AD000D169C90708D50648C16941F00401C1612F
:103AE000D16921F00101D161D3607047002002400B
:103AF000B81B0020064B186910F0800007D0054A5B
:103B00005A6002F188325A601869C0F3C0107047D9
:103B10000020024023016745034A0020136943F057
:103B200080031361704700BF0020024070B5054656
:103B3000FFF7C4FD0646114CE368D80712D4E368CA
:103B4000990644BF2023E360E368DA0606D4E369FC
:103B5000DB0703D4E06810F0040007D0FFF7A2FFF2
:103B6000012003E06B1CE7D00DB9032070BDFFF707
:103B7000A5FD801BA842DFD9F7E700BF0020024067
:103B80002DE9F84FDFF894A01F469AF81830054643
:103B9000012B884691463FD001234CF250308AF8E1
:103BA0001830FFF7C3FF90BB012D03D0022D14BFC7
:103BB0000425022500263346DFF864B03401C4F141
:103BC0002001A4F1200207FA01F129FA04F4CAF84D
:103BD0001C300C4327FA02F21443DBF81020A4B285
:103BE00042F00102CBF810204CF2503028F8164079
:103BF000FFF79CFFDBF8102022F00102CBF8102029
:103C000028B90136F2B295424FF00003D6D800230E
:103C10008AF81830BDE8F88F0220FBE7B81B0020B7
:103C2000002002400022064BDA61064B1A6942F07E
:103C300002021A6158611A6942F040021A61704723
:103C4000B81B0020002002402DE9F041264F054618
:103C50003B7E8846012B44D001243C7603684CF21D
:103C60005030022B1AD1FFF761FF20B10120002351
:103C70003B76BDE8F0811D4CF86123694CF2503071
:103C800043F004032361236943F040032361FFF7FA
:103C90004DFF236923F004032361E8E7FFF746FFA4
:103CA0000028E3D14FF0FF33C8F800302046AE685B
:103CB0000E4CD5E9023203EB8223B342D7D930460A
:103CC000FFF7B0FF4CF25030FFF730FF236923F0CD
:103CD0000203236110B1C8F80060C8E706F58066EA
:103CE000E7E70220C5E700BFB81B00200020024024
:103CF0002DE9F74F00244FF00F0E2646DFF884C160
:103D0000614B00F104080A6832FA06F502D103B0EB
:103D1000BDE8F08F012505FA06F702EA070537EA44
:103D2000020276D14A68032A07D8013A022A00F231
:103D30008380DFE802F091969C00122A00F09480C4
:103D400069D8112A00F08A80FF2D94BF8146C146B0
:103D50004FEA8602D9F8007088BF203A0EFA02FABC
:103D600027EA0A0704FA02F21743C9F80070D1F8EB
:103D7000049019F0805F4CD0DCF8182026F003077F
:103D800042F00102CCF81820DCF8182007F1804737
:103D900002F00102019207F5803706F0030A019A4A
:103DA0004FEA8A0ABA680EFA0AFB22EA0B0B374A74
:103DB000904260D002F5806290425ED002F580624F
:103DC00090425CD002F58062904214BF042203222C
:103DD00002FA0AF242EA0B02BA609A6819F4801FEA
:103DE00014BF2A43AA439A60DA6819F4001F14BF6B
:103DF0002A43AA43DA605A6819F4003F14BF2A43E1
:103E0000AA435A601A6819F4803F14BF2A43AA4390
:103E10001A60013677E7DFF878904A450CD014D85D
:103E2000A9F580194A4507D009F570294A4503D0FC
:103E3000A9F580194A4587D18A68D2B1012A4FF085
:103E400008040CBF076147617EE7DFF848904A45E8
:103E5000F2D009F58039EDE7CC6875E7CC68043419
:103E600072E7CC6808346FE7CC680C346CE7002448
:103E70006AE7042468E70022AAE70122A8E70222F1
:103E8000A6E700BF00100240000401400008014006
:103E900000002210000031102DE9F74F4FF0040B05
:103EA00000224FF0010A4FF00F0800EB0B030193C3
:103EB0002E4B31FA02F402D103B0BDE8F08F0AFABA
:103EC00002F70F4049D022F0030404F1804404F5C6
:103ED000803402F0030CA5684FEA8C0C08FA0CF948
:103EE00009EA050E224DA84239D005F58065A842A1
:103EF00037D005F58065A84235D005F58065A84224
:103F000014BF0425032505FA0CF575456FEA07066D
:103F10000FD11D6835401D605D6835405D60DD680E
:103F20003540DD609D6835409D60A56825EA09053E
:103F3000A560FF2F94BF0746019F4FEA82043D68AA
:103F400088BF203C08FA04FC25EA0C050BFA04F4AF
:103F500025433D60C4683440C4600132A9E70025B0
:103F6000D1E70125CFE70225CDE700BF00040140DE
:103F7000000801408368194214BF012000207047E7
:103F80000AB1016170470904FBE77047044A08B5AC
:103F90005169014202D05061FFF7F7FF08BD00BF31
:103FA00000040140016800224B6913F4806310D0C3
:103FB0006FF480634B612023026380F83D3080F80A
:103FC0003E20036C80F83C2043F00403036401208E
:103FD0007047184670472DE9F84606460F46914649
:103FE0001D464FEA114A3368BAF1010F0CBF5C69F4
:103FF0009C6927EA0404A4B2B4FA84F46409A145D4
:1040000001D0002025E06A1CEED0FFF757FB089B8B
:10401000C01AA84201D8002DE5D13368BAF1010FCA
:104020000CBF5B699B6927EA03039BB2B3FA83F376
:104030005B099945D7D1002320220120336386F8FC
:104040003D2086F83E30326C86F83C3042F020024B
:104050003264BDE8F8862DE9F04104460F46164665
:1040600098462568686927EA000080B2C0B16B698C
:104070005A0517D52B68202243F400732B606FF488
:1040800080636B610023236384F83D2084F83E3015
:10409000236C43F0040323640023012084F83C30A4
:1040A000BDE8F081731CDDD0FFF708FBA0EB080032
:1040B000B04201D8002ED4D123685A6927EA0202FF
:1040C00092B2002ACDD000232022236384F83D2021
:1040D00084F83E30236C1343DDE770B504460D468B
:1040E000164623685B691B0601D500201EE02046AA
:1040F000FFF758FFC8B96A1CF3D0FFF7DFFA801B3F
:10410000A84201D8002DECD123685B6913F080032D
:10411000E7D12022236384F83D2084F83E30226CCE
:1041200084F83C3042F020022264012070BD00007F
:104130002DE9F043154602689946136885B043F4AB
:1041400080731360DDE90C780E463B4600224FF089
:104150000111CDF800800446FFF73DFF236838B118
:104160001B68DB0502D54FF400732364032620E0AF
:1041700006F0FE061E613A46434620461849FFF700
:104180006AFFA8B9236803905A69394603929B696C
:10419000424603932046039BFFF79FFF064660B10C
:1041A000236C042B01BF2268136843F4007313606F
:1041B0000126304605B0BDE8F083B9F1010F236850
:1041C00002D1EDB21D61F4E72A0A1A61394642466E
:1041D0002046FFF782FF0028E2D12368F1E700BF05
:1041E0000200010070B504460D46164623685B695F
:1041F0005B0701D500201EE02046FFF7D3FEC8B9BB
:104200006A1CF3D0FFF75AFA801BA84201D8002D90
:10421000ECD123685B6913F00403E7D12022236308
:1042200084F83D2084F83E30226C84F83C3042F023
:1042300020022264012070BD70B5044608B9012037
:1042400070BD90F83D3003F0FF021BB980F83C20B0
:10425000FDF7A0FE242384F83D3023681A6822F07D
:1042600001021A601A6842F400421A601A6822F4C5
:1042700000421A6001F01AFA3F4B65689D4294BFF4
:104280003E4B3F4B98428CBF00230123002BD6D1DD
:10429000394E3C4BB542B0FBF3F388BF4FF49676F2
:1042A0002268516821F03F0141EA030182BF734354
:1042B0004FF47A76B3FBF6F35160116A013321F0C3
:1042C0003F010B431362D169431E2B4821F44F4138
:1042D000854221F0FF0132D86D00B3FBF5F340F6C3
:1042E000FC700133034242D0C3F30B031943D16185
:1042F0001168D4E9073021F0C00103430B43136078
:104300009168D4E9030321F40341034321F0FF0141
:104310000B439360D168D4E9053021F0FF010343DA
:104320000B43D3601368002043F001031360202384
:10433000206484F83D30206384F83E0080E7A06864
:1043400050B905EB4505B3FBF5F30133C3F30B039C
:104350007BB143F40043C9E719206843B3FBF0F392
:104360000133C3F30B0323B143F44043BEE70423FB
:10437000BCE70123BAE700BFA08601007F841E00CE
:10438000FF083D0040420F002DE9F74304469946DF
:104390000F4690460C9EFFF791F994F83D30054684
:1043A000202B03D0022003B0BDE8F0830090192336
:1043B000012220463A49FFF70EFE0028F2D194F878
:1043C0003C30012BEED00123206884F83C30036898
:1043D0004246D90758BF036839465CBF43F0010322
:1043E0000360036823F400630360212384F83D30F5
:1043F000402384F83E30002323640A9B20466362F6
:10440000BDF82C306385638D2385264BE3624B46D4
:10441000CDE90065FFF78CFE00282AD00120C2E715
:10442000FFF75BFE40B1236C042B01BF22681368C9
:1044300043F400731360F1E7636A27681A4612F8C1
:10444000011B39616262628D218D013A92B26285EF
:104450007A69481E80B2520720850AD548B15A7839
:1044600002333A616362638D0239013B9BB221855D
:104470006385238D2A4631462046002BD0D1FFF795
:10448000B1FE0028CFD12268136843F40073136093
:10449000202384F83C0084F83D3084F83E0082E715
:1044A000020010000000FFFFF8B50446E0B190F8EC
:1044B000913203F0FF021BB980F8902204F06EF9EC
:1044C000032384F8913200232546637155F8040BC9
:1044D00002F053FB95E80E00206802F03EFB014617
:1044E00028B1022384F8913201252846F8BD2068BE
:1044F00002F04DFB0028F4D102460127267904F191
:104500001003C1B28E4203F1280318D800210A46D5
:1045100004F5A873C8B2864203F128031BD895E8B6
:104520000E00206802F035FB05460028D9D1012392
:104530006073206884F8913202F0E0FDD5E743E92A
:10454000062203F8277C03F8281C03F8252C43F8DF
:10455000102C0130D5E743E9062203F8272C03F895
:10456000280C03F8252C43F8102C0131D2E738B57C
:1045700090F890320446012B10D0012580F890521B
:10458000006802F0F1FA2946204604F00EFA20688D
:1045900002F0B2FD002084F8900238BD0220FCE752
:1045A00010B590F890220446012A0AD001224173E6
:1045B00080F89022006802F099FD002084F89002B3
:1045C00010BD0220FCE700002DE9F04F044685B045
:1045D000006802F095FD10F4004500F04F84282596
:1045E000C64E2068B0F844301F0402D405B0BDE8C0
:1045F000F08FB0F8443013F00F0799B240F0C0804C
:1046000011F0100126D103889BB2334043F40043DC
:104610000380B0F85030227C9BB203EBC20300EB66
:104620004303B3F80434626AC3F309031A44E36230
:104630002046626204F0E1F8637B002BD1D0A26ACD
:104640002168002ACDD1637B43F08003A1F84C3070
:104650006273C6E70788BBB217F4006721D0B0F8D1
:10466000503094F850219BB203EBC20300EB43039C
:10467000B3F80C34B4F85621C3F30903C4F86C3111
:1046800004F5267102F087FF22682046138823F084
:1046900070031B051B0D43F08003138004F09EF88C
:1046A0009FE719049DD5038823F070031B051B0D9C
:1046B00043F080030380B0F8503094F850219BB24F
:1046C00003EBC20300EB4303B3F80C34C3F3090359
:1046D000C4F86C318BB1D4F8641171B1B4F85621BF
:1046E00002F059FFD4F86431D4F86C2139461344F0
:1046F0002046C4F8643104F077F821680A8893B240
:1047000012053FF56EAF03F44053B3F5405F3FF43D
:1047100068AFB1F8502001F20C4092B2835AC3F353
:1047200009038352D4F860313E2B1DD95F09DB06A3
:10473000835A08BF07F1FF379BB243EA87236FEA2A
:1047400043436FEA53439BB283520B8823F4804365
:1047500023F070031B041B0C83F4405343F4004309
:1047600043F080030B803CE70BB9835AE7E75F080F
:10477000DB07835A48BF01379BB243EA8723E2E74E
:1047800030F8273019041FFA83F840F1F68030F82A
:10479000273005FB074123F070031B051B0D43F079
:1047A000800320F8273091F85C3100F5806EBBB9AA
:1047B000B0F8503091F850219BB2063303EBC2039E
:1047C0003EF81390C9F30909B9F1000F00F0BA805F
:1047D0004B46B1F85621D1F8641102F0DCFEB1E08D
:1047E00091F8533191F85021022B40F08980B0F8B4
:1047F00050904FEAC20B1FFA89F918F4804AD1F899
:104800006831D94408F0400C3CD009F102093EF867
:104810001990C9F30909994513D90023C1F86831E2
:1048200030F8223023F4804323F070031B041B0C68
:1048300083F4005343F4004343F0800320F8223014
:1048400005E0A3EB0903C1F86831002BE8D0BCF107
:10485000000F0DD030F8223023F4E04323F0700332
:104860001B041B0C43F4004343F0C00320F8223028
:10487000B9F1000F66D0282101FB07414B46B1F882
:104880005821A8E709F106093EF81990C9F309096A
:10489000994512D9C1F868A130F8223023F4804339
:1048A00023F070031B041B0C83F4005343F40043F8
:1048B00043F0800320F8223005E0A3EB0903C1F8A0
:1048C0006831002BE8D0BCF1000F0DD130F8223058
:1048D00023F4E04323F070031B041B0C43F4004358
:1048E00043F0C00320F82230B9F1000F2AD028216C
:1048F00001FB07414B46B1F85A216CE70F8FFFFFD0
:1049000030F8223023F4E04323F070031B041B0C27
:1049100043F4004343F0C00320F8223091F85031B3
:1049200030F82320DB0012F4804FB0F8502092B210
:1049300054D0023213443EF81390C9F30909B9F177
:10494000000F9BD105FB07F16318D3F86C214A4493
:10495000C3F86C21D3F864214A44C3F86421D3F826
:1049600068211AB1D3F86031994541D205FB07435C
:10497000204693F8501103F037FF18F0800F20689D
:104980003FF42FAE30F8273005FB07FC9BB23340D5
:1049900043F4004320F8273004EB0C03DA7C012AAF
:1049A00056D1002107FB0552A1501A7F92B318F08F
:1049B00040085A7C36D012BBB0F850201B7C92B213
:1049C0001B0100F2044010441A5AC2F309021A52A1
:1049D0001A5A92B242F400421A521BE006321344B1
:1049E0003EF81390C9F30909B9F1000FAAD081E785
:1049F00001F5A8712068214402F098FBBDE7012A67
:104A000008D1B0F850201B7C92B200F204401B0188
:104A100010441952282303FB0743197C204603F056
:104A2000ECFEDEE53AB9B0F850201B7C92B21B01D7
:104A300000F20C40C7E7012AECD1B0F850201B7CF3
:104A400092B200F20C401B01104423F80080E1E711
:104A5000197C18F4807E9A6A4FEAC10A00F58069D1
:104A60001BD1B0F85070BFB25744023739F81770F5
:104A7000C7F30907974202D3C3F828E0CEE7D21B59
:104A80009A625A6A0CF110013A445A62DA6A214475
:104A90003A44DA6202F04AFBA3E5B0F850C018F0DD
:104AA000400E1FFA8CFCD44408F4804800F0F480D7
:104AB0000CF1020C39F81CC01FFA88F8CCF3090C71
:104AC00094452CBF0022A2EB0C029A62002A5BD113
:104AD000282303FB07435B7C002B41D1B0F8502017
:104AE00000F2044C92B20B0194443CF80320C2F350
:104AF00009022CF803203CF803206FEA42426FEAD7
:104B0000524292B22CF80320B0F8502000F20C4030
:104B100092B21044C25AC2F30902C252C25A6FEA98
:104B200042426FEA524292B2C252204603F065FE00
:104B3000B8F1000F00F0F480282303FB074322683C
:104B4000197C32F8213023F4E04323F070031B0476
:104B50001B0C43F4404343F0800322F82130DFE094
:104B6000012BE2D1B0F850E000F2044C1FFA8EFEA7
:104B7000F4440B012CF80320B0F850C000F20C40B4
:104B80001FFA8CFC6044CFE7B8F1000F0DD030F86D
:104B9000212022F4E04222F070021204120C42F4AE
:104BA000404242F0800220F821204FF0280808FB04
:104BB000074898F83420012A40F0B280D8F8242021
:104BC00002EB0C0EC8F824E0DA6A6244DA62D8F824
:104BD0003030D8F82020934235D39B1AC8F83030B3
:104BE000282303FB074393F811C093B2BCF1000FD5
:104BF00045D1B0F8508000F2044C1FFA88F8C44444
:104C000009013CF801803E2AC8F309082CF801800C
:104C100025D94FEA5218D2063CF8012008BF08F106
:104C2000FF3892B242EA88226FEA42426FEA524269
:104C300092B22CF80120282202FB0742128B714607
:104C400002F064FA6CE01BB9624688F83430C7E7BA
:104C5000002288F83420C8F830201A46C0E712B97C
:104C60003CF80120E0E74FEA5208D2073CF8012067
:104C700048BF08F1010892B242EA8822D8E7BCF1A5
:104C8000010FD8D1B0F850C000F204421FFA8CFCDA
:104C9000624409015352CEE70CF1060C39F81CC0EE
:104CA0001FFA88F8CCF3090C94458CBF7246A2EB2E
:104CB0000C029A62002A5DD1282303FB07435B7C28
:104CC000002B43D1B0F8502000F2044C92B20B01FB
:104CD00094443CF80320C2F309022CF803203CF86A
:104CE00003206FEA42426FEA524292B22CF803204C
:104CF000B0F8502000F20C4092B21044C25AC2F3F5
:104D00000902C252C25A6FEA42426FEA524292B25A
:104D1000C252204603F071FDB8F1000F3FF40CAF12
:104D2000282303FB07432268197C32F8213023F43F
:104D3000E04323F040031B041B0C83F0300343F4D7
:104D4000004343F0800322F821304AE4012BE0D1F4
:104D5000B0F850E000F2044C1FFA8EFEF4440B0150
:104D60002CF80320B0F850C000F20C401FFA8CFC65
:104D70006044CDE7B8F1000F0DD130F8212022F4C6
:104D8000E04222F070021204120C42F4404242F05F
:104D9000800220F821204FF0280808FB074898F8E7
:104DA0003420012ABCD1D8F8242002EB0C0EC8F81C
:104DB00024E0DA6A6244DA62D8F83030D8F8202089
:104DC000934232D39B1AC8F83030282303FB0743A1
:104DD00093F811C093B2BCF1000F42D1B0F85080EB
:104DE00000F20C4C1FFA88F8C44409013CF8018019
:104DF0003E2AC8F309082CF8018022D94FEA52183C
:104E0000D2063CF8012008BF08F1FF3892B242EA0E
:104E100088226FEA42426FEA524292B22CF8012095
:104E2000282202FB0742528B09E71BB9624688F829
:104E30003430CAE70022C8F8302088F834201A46F7
:104E4000C3E712B93CF80120E3E74FEA5208D20762
:104E50003CF8012048BF08F1010892B242EA8822DA
:104E6000DBE7BCF1010FDBD1B0F8502000F20C4CB5
:104E700092B294440A012CF80230D1E7460512D5CB
:104E800022682046B2F8443023F480631B041B0CD4
:104E9000A2F8443003F0BDFC2946204605B0BDE829
:104EA000F04FFFF77DBB41040AD52268B2F84430C9
:104EB00023F480431B041B0CA2F84430FFF796BB7D
:104EC000820405D52268B2F8443023F40053F1E798
:104ED000C30419D522682046B2F8403023F00403F9
:104EE0001B041B0CA2F84030B2F8403023F008033A
:104EF0001B041B0CA2F8403003F0AEFC2268B2F891
:104F0000443023F48053D5E7070548D56846236825
:104F1000064619461A4603F1200532F8047B9542ED
:104F200026F8027BF9D1B3F8402092B242F0010298
:104F3000A3F84020B3F8402022F001021204120C22
:104F4000A3F84020B3F844205605FBD5B3F844201D
:104F500022F480621204120CA3F8442030F8022BD1
:104F600021F8042B8D42F9D1B3F84020204692B2AB
:104F700042F00802A3F84020B3F8442022F4006273
:104F80001204120CA3F84420B3F8402092B242F06D
:104F90000402A3F8402003F04FFCFFF727BB820573
:104FA0000DD522682046B2F8443023F400731B0468
:104FB0001B0CA2F8443003F028FCFFF717BBC30515
:104FC0007FF514AB2268B2F8443023F4807371E7A4
:104FD00070B52824054601F00700444311F0800F06
:104FE00014BF04F1100104F5A87105EB040615BF08
:104FF00001240024747486F8514114BF49194919D9
:10500000022BCB7008BF0023087008BF0B710A6128
:1050100095F89032012B09D00123286885F8903249
:1050200001F0C8FD002085F8900270BD0220FCE769
:10503000282301F00702534311F0800F10B50446F6
:1050400018BF03F1100118440BBF03F5A871012329
:10505000002309190ABF0919437480F851310A70F5
:1050600094F89032012B09D00123206884F8903203
:1050700001F000FF002084F8900210BD0220FCE740
:1050800070B52824002601F007014C43051985F866
:10509000501104F5A8710144C5E95923C5F86C61A4
:1050A00085F85161006802F041F8304670BD282350
:1050B00001F0070103FB0100D0F86C01704770B5E7
:1050C000282501F007014D4344190026C4E90923AE
:1050D0000122217405F11001014484F83420236376
:1050E000E6626274006802F021F8304670BD38B59F
:1050F000037901F00705AB4204462AD311F0800F73
:105100004FF028031CD001226B4303F1100103442C
:1051100001445A7401230D708B7094F890229A42C6
:1051200019D0206884F8903201F077FF25B9206803
:1051300004F5267101F0E8FF002084F8900238BDE4
:1051400000224B4303F5A8710344014483F8512125
:10515000E0E70120F3E70220F1E738B5027901F03A
:105160000F039A42044626D3282301F00702534333
:1051700011F0800F14BF03F1100103F5A87118445A
:105180004FF0000515BF012300230919091914BFA9
:10519000437480F851318D700A7094F89032012B6D
:1051A0000BD00123206884F8903201F056FF284686
:1051B00084F8905238BD0120FCE70220FAE710B5D0
:1051C000282411F0800F1BBF01F0070104FB010030
:1051D00004FB0100103008BF00F5A87099B21AB99D
:1051E0000273C180002010BD012283600273F9E7C1
:1051F0002DE9F341054638B30368DB0710D42B686B
:105200009F075ED42B68190700F195802B685A0719
:1052100000F1C180EB69002B40F02C81002029E0D7
:10522000904C636803F00C03042B07D0636803F011
:105230000C03082B0AD16368DE0307D523689C039F
:10524000DDD56B68002BDAD1012013E06B68B3F574
:10525000803F12D1236843F480332360FEF72EFA97
:10526000064623689803CAD4FEF728FA801B6428F0
:10527000F7D9032002B0BDE8F0819BB9236823F47D
:1052800080332360236823F480232360FEF716FA1B
:10529000064623689903B2D5FEF710FA801B6428EE
:1052A000F7D9E6E7B3F5A02F236803D143F48023B1
:1052B0002360CFE723F480332360236823F4802323
:1052C000CBE7684C636813F00C0F07D0636803F0FA
:1052D0000C03082B10D16368DA030DD423689B07F5
:1052E00002D52B69012BAFD123686A6923F0F8033B
:1052F00043EAC203236085E72A695B4B6AB1012256
:105300001A60FEF7DBF9064623689F07ECD4FEF728
:10531000D5F9801B0228F7D9ABE71A60FEF7CEF962
:105320000646236898077FF56DAFFEF7C7F9801B27
:105330000228F6D99DE7AA694A4E4B4BE2B10122F9
:10534000C3F88024FEF7BAF90446736A9B070DD5AB
:105350004FF4FA52454B1B68B3FBF2F3019300BFC5
:10536000019B5A1E0192002BF9D14FE7FEF7A6F9D7
:10537000001B0228E9D97CE7C3F88024FEF79EF9D8
:105380000446736A9F077FF541AFFEF797F9001B4C
:105390000228F6D96DE7334CE369D80024D40127FD
:1053A000E36943F08053E361E36903F080530093C2
:1053B000009B2F4E3368D90518D5EB68012B26D1F9
:1053C000236A43F001032362FEF778F941F288383B
:1053D0000646236A9B073FD5002F3FF41BAFE369C6
:1053E00023F08053E36115E70027E2E7336843F4D5
:1053F00080733360FEF762F980463368DA05DCD4E7
:10540000FEF75CF9A0EB08006428F6D931E7ABB9E8
:10541000236A41F2883823F001032362236A23F0D0
:1054200004032362FEF74AF90646236A9807D3D598
:10543000FEF744F9801B4045F7D91AE7052B236A8C
:1054400003D143F004032362BAE723F0010323628C
:10545000236A23F00403B6E7FEF730F9801B4045CA
:10546000B7D906E70010024000004242B00B00200E
:10547000007000402A4C626802F00C02082A3ED0FC
:105480000022022B274B1A662CD1FEF717F906468D
:105490002368990120D42B6AB3F5803F05D1626857
:1054A000A96822F400320A436260696A62680B43A9
:1054B00022F474121343012263601A4B1A66FEF73A
:1054C000FDF8054623689A013FF5A8AEFEF7F6F809
:1054D000401B0228F6D9CCE6FEF7F0F8801B022824
:1054E000D6D9C6E6FEF7EAF8054623689B017FF5A4
:1054F00095AEFEF7E3F8401B0228F6D9B9E6012B7A
:105500003FF4A2AE60682B6A00F480329A427FF4C6
:105510009BAE6B6A00F47010C01A18BF0120A9E698
:1055200000100240000042420D4A536803F00C0193
:10553000082912D10B48C3F38341DB03405C09D532
:105540005368094AC3F340435043084AD35CB0FB55
:10555000F3F07047064B584370470348704700BF4D
:105560000010024083DF000800127A0081DF00088B
:1055700000093D002DE9F0410D46044610B9012017
:10558000BDE8F081444A136803F007038B4228D337
:1055900021688E0730D4CA0743D43F4A136803F00A
:1055A0000703AB4265D822683C4D12F0040F6CD162
:1055B000130706D56B68226923F4605343EAC203DC
:1055C0006B60FFF7B1FF6B68354AC3F30313D35C1D
:1055D000D840344B1860344B1868FEF72DF8002083
:1055E000CEE7136823F007030B431360136803F03F
:1055F00007038B42C3D1CBE7284B11F0040F1EBF2A
:105600005A6842F4E0625A60080742BF5A6842F49E
:1056100060525A605A68A06822F0F00202435A6051
:10562000B9E762681D4E012A33681AD113F4003FAE
:10563000A5D0736841F2883823F0030313437360E5
:10564000FEF73CF807467368626803F00C03B3EB9F
:10565000820FA2D0FEF732F8C01B4045F3D90320D9
:105660008EE7022A02D113F0007FE1E713F0020F68
:10567000DEE7136823F007032B431360136803F07E
:105680000703AB427FF47BAF8DE76B68E16823F4DF
:10569000E0630B436B608BE7002002400010024088
:1056A00071DF0008B00B0020340C0020044B054AC9
:1056B0005B68C3F30223D35C034A1068D840704789
:1056C0000010024069DF0008B00B0020044B054ABF
:1056D0005B68C3F3C223D35C034A1068D8407047A9
:1056E0000010024069DF0008B00B002003682DE9BC
:1056F000F3410546D80721D5364CE369D9002BD4B0
:105700000126E36943F08053E361E36903F08053CA
:105710000193019B304F3B68DA051FD5236A6A6805
:1057200013F440732ED1236A6A6823F44073134341
:1057300023621EB1E36923F08053E3612A68910775
:1057400006D52449A8684B6823F4404303434B60C3
:10575000D30636D4002012E00026DBE73B6843F492
:1057600080733B60FDF7AAFF80463B68DB05D5D41C
:10577000FDF7A4FFA0EB08006428F6D9032002B0CF
:10578000BDE8F08102F440729A42CCD00120134A65
:10579000236AC2F84004002023F44071DF07C2F8F6
:1057A00040042162BFD5FDF789FF41F288380746E2
:1057B000236A9807B7D4FDF781FFC01B4045F7D98E
:1057C000DCE7044AE968536823F480030B43536021
:1057D000C0E700BF001002400070004000004242DD
:1057E0002DE9F3471F46894690460446FDF766FFBC
:1057F0000A9D3D442D1AFDF761FF8246254B1E6828
:10580000C6F3CB366E4301962268936839EA0303E8
:105810000CBF01230023434501D100202EE07B1C57
:10582000F3D0FDF74BFFA0EB0A00A84229D3236871
:105830005A6822F0E0025A606268B2F5827F0AD1AB
:10584000A268B2F5004F02D0B2F5806F03D11A689A
:1058500022F040021A60A26AB2F5005F07D11A680E
:1058600022F400521A601A6842F400521A600123AE
:1058700084F851300023032084F8503002B0BDE892
:10588000F087019A019B002A03F1FF3308BF1546F8
:105890000193B9E7B00B002073B50B4600920D469B
:1058A0001646022101220446FFF79AFF024628B15C
:1058B000636D032043F02003636507E02B468021DE
:1058C00020460096FFF78CFF0028F1D102B070BD92
:1058D00037B50B4641680446B1F5827F18D181681F
:1058E000B1F5004F02D0B1F5806F11D12568B1F547
:1058F000806F286820F04000286009D100920121C3
:1059000000222046FFF76CFF30B9002003B030BD05
:10591000009280210022F4E7636D032043F020030E
:105920006365F3E710B50446002851D0436A002BA5
:105930004AD14268B2F5827F00D0C3610023A362DE
:1059400094F8513003F0FF0223B9204684F8502028
:10595000FCF746FC0223226884F851301368A068E3
:1059600023F040031360636800F4044003F482737F
:105970000343E068A16900F400600343206900F07C
:1059800002000343606900F00100034301F400706A
:105990000343E069090C00F038000343206A01F07A
:1059A000040100F080000343A06A00F400500343A8
:1059B00013605160D369002023F40063D361012395
:1059C000606584F8513010BD0023C0E90433B5E7A9
:1059D0000120F8E710B5044680B10223026880F880
:1059E0005130136823F040031360FCF73FFC0020A4
:1059F000606584F8500084F8510010BD0120FCE778
:105A00002DE9F74304461F460D469046FDF756FE26
:105A100094F851308146012BD8B240F09F80002D80
:105A200074D0B8F1000F71D094F85030012B00F011
:105A30009580032384F8513000236365C4E9103353
:105A4000A4F83680A363A387E387A3682668B3F529
:105A5000004F84F850002563A4F8348007D13368E0
:105A600023F040033360336843F48043336033688A
:105A7000E2685B065EBF336843F040033360B2F513
:105A8000006F636845D113B1B8F1010F07D135F844
:105A9000023BF3602563E38E013B9BB2E386E38E1A
:105AA0009BB2D3B94A4639462046FFF7F5FE002897
:105AB00051D1A36833B901932368DA6801929B68D6
:105AC0000193019B012384F851300023606D84F819
:105AD0005030C01A18BF012018E022689368980758
