:020000040800F2
:1000000098280020498E0008751B0008771B0008FF
:100010008D1B0008A31B0008B91B0008000000008E
:10002000000000000000000000000000CF1B0008DE
:10003000D11B000800000000D31B0008D51B0008DE
:10004000638E0008638E0008638E0008638E0008CC
:10005000638E0008638E0008F11B0008638E0008A1
:10006000638E0008638E0008638E0008638E0008AC
:10007000638E0008638E0008871000081D100008BA
:10008000638E0008638E0008638E0008638E00088C
:10009000E9540008638E0008638E0008E11B000825
:1000A000638E0008638E0008638E0008638E00086C
:1000B000F71B0008638E0008638E0008638E00083B
:1000C000638E0008638E0008638E0008638E00084C
:1000D000638E0008638E0008638E0008638E00083C
:1000E000638E0008638E0008ED54000800F002F8EB
:1000F00000F0B4F80AA090E8000C82448344AAF10E
:100100000107DA4501D100F0A9F8AFF2090EBAE80B
:100110000F0013F0010F18BFFB1A43F0010318473B
:1001200038CA000058CA00000A444FF0000C10F80A
:10013000013B13F0070408BF10F8014B1D1108BF65
:1001400010F8015B641E05D010F8016B641E01F805
:10015000016BF9D113F0080F1EBF10F8014BAD1C55
:100160000C1B09D16D1E58BF01F801CBFAD505E073
:1001700014F8016B01F8016B6D1EF9D59142D6D3CD
:10018000704700000023002400250026103A28BFF5
:1001900078C1FBD8520728BF30C148BF0B607047F9
:1001A0006E2909F0DA84702909F08B8066290BF03A
:1001B0001A8665290BF0178667290BF014866129CA
:1001C0000BF0138603681B0A28BF41F080016929E0
:1001D00008F0FC87642908F0F987752908F0F6878C
:1001E0006F2909F0D687782909F05780E92909F0A5
:1001F0007187E42909F06E87F52909F06B87EF29EB
:1002000009F0D387F82909F056800368DB0928BF75
:1002100041F08001632909F0F286732909F0F7861D
:10022000E3290AF05382F3290AF05882002070472C
:100230001FB59DE8030009F0EFFB0AF013F8040076
:10024000002000210BF018F9401C60600020002104
:100250000BF028F9E0601FBD10B510BD0AF0B3FC2B
:100260001146FFF7E5FF01F07FFC0AF0D1FC03B473
:10027000FFF7F2FF03BC09F0A5FB000070B50546CF
:10028000A02008F0ABFE040020D03FA109F053FAF3
:10029000284609F074FA10F1060F0BD22946A01D6A
:1002A00009F049FA284609F06AFA204439A1801D6C
:1002B00009F041FA204609F062FA81B2204600F0C6
:1002C00036FE2046BDE8704008F0B7BE70BD2DE98F
:1002D000F04389B005466C4600262421204609F0EB
:1002E00006FB0027019700970098285C08F0DFFEC6
:1002F000009968540098401C0090285C0028F3D1B5
:1003000004F1080204F11C03914623A1284609F0D8
:10031000A7F8DFF88C80009715E000BF08EBC20655
:10032000484609F00BFB58B9484609F028FA074639
:10033000306809F024FA874202D10220019008E0D7
:100340000098401C0090009A58F832100029E5D11E
:100350000198012810D002280BD17268079928460D
:100360009047089058B109F00AFA81B2089800F055
:10037000DEFD09B0BDE8F08321460AA001E0214678
:100380000DA0FFF77BFFF4E76572726F72200D0A14
:10039000000000000D0A00002539732025640000CC
:1003A000E0BE000820696E636F6D70617469626CF5
:1003B00065206D6F646500002066756E6374696FFB
:1003C0006E00000030B5A9B00024A021684609F0F5
:1003D0008EFAFE4D0BE0FEA1684608F091FE6846DD
:1003E00009F0CDF981B2684600F0A1FD641C55F812
:1003F0003420002AEFD1F54829B0103830BD00B5BF
:1004000091B04021684609F072FAF3A3F6A2F9A16F
:10041000684608F075FE684609F0B1F981B2684691
:1004200000F085FDE94811B0103800BD10B500F0AE
:10043000A0FB0621F8A000F07AFDE448103810BDBA
:1004400000F080FB00F095FB642000F0A3FE00F0BC
:1004500014FB00F012FB30B5F1A1C3B0D1E90001EB
:10046000CDE940014FF48071684609F040FA45F645
:100470005A22EDA1684608F043FE0546684609F099
:100480007EF96C462044EAA108F03AFE684609F07D
:1004900076F92044E9A108F033FE684609F06FF9C7
:1004A000204440AAEBA108F02BFE684609F067F94A
:1004B0002044EDA3EFA2F2A108F022FE684609F065
:1004C0005EF92044F3A2FEA108F01AFE684609F086
:1004D00056F9421BFEA1A01C08F012FE7B206055BD
:1004E000684609F04CF92044CCA108F009FE6846A2
:1004F00009F045F981B2684600F019FDB34843B0F0
:10050000103830BDF44800688180B048103870471A
:10051000F1480068C180AD4810387047EE48006867
:10052000C182AA4810387047EB4800680177A74895
:1005300010387047E84800680183A44810387047B5
:1005400070B5A8B001F0CFFD054601F0C4FD04462A
:10055000A021684609F0CBF90D221CB10A20152113
:1005600001FB0402B0A1684608F0CAFD684609F024
:1005700006F96E463044D9A108F0C2FD684609F07C
:10058000FEF881B2684600F0D2FC18E0D5E90032EE
:10059000D5A1684608F0B4FD012C06D9684609F0DB
:1005A000EEF83044AAA108F0ABFD684609F0E7F880
:1005B00081B2684600F0BBFC641EA4B20835002C72
:1005C000E4D10421CCA000F0B2FC01F0A2FD7F48F0
:1005D000103828B070BD70B5A8B0A021684609F0E9
:1005E00086F901F0C9FC054601F0CAFC041E4FF073
:1005F0000C020ADD2946684600F04CFA684609F00C
:10060000BEF80921C01C00FB041287A1684608F04F
:1006100077FD684609F0B3F86E463044B8A108F09B
:100620006FFD684609F0ABF881B2684600F07FFCC8
:10063000288898B12946684600F02CFA012C06DD7E
:10064000684609F09CF8304481A108F059FD6846DD
:1006500009F095F881B2684600F069FC0421A6A073
:1006600000F065FC59481038B3E770B5B8B00446DF
:100670000025A02105A809F03AF900202D902F901F
:10068000309031902E90329001AE32AB2EAA2DA92F
:1006900031A886E80F0030A800902FAB33AA9BA1A9
:1006A000204608F0DDFE2D99002949D02E99002919
:1006B00046D0072844D1DDE9300292B22F9901F0EB
:1006C000BBFC04003CD02D98A0812E98E08132988C
:1006D000208245F65A2254A105A808F011FD0646CD
:1006E00005A809F04CF805AD28448FA108F008FDD5
:1006F00005A809F044F82844214600F0CBF905A8E4
:1007000009F03DF828448CA108F0FAFC05A809F08E
:1007100036F8821B6EA1A81C08F0F2FC7B20A855BD
:1007200005A809F02CF828443CA108F0E9FC05A82C
:1007300009F025F881B205A800F0F9FB234D103D22
:1007400038B0284670BD30B5AFB00446A02101A82E
:1007500009F0CDF800212AA829912A91009029AB0F
:100760002BAA76A1204608F07BFEDDE929104FF682
:10077000FF7300221B1A8A4102D201F0A1FC02E0A1
:1007800080B201F092FC45F65A2227A101A808F098
:10079000B7FC054601A808F0F2FFDDE9292301AC0A
:1007A00020446AA108F0ACFC01A808F0E8FF421B55
:1007B00047A1A01C08F0A4FC7B20605501A808F00C
:1007C000DEFF204415A108F09BFCCDE0E0BE000850
:1007D0002573200D0A0000007630315F30305F3025
:1007E00030302878504129007630315F30305F302A
:1007F0003032000067657476657220736F667477B7
:100800006172653A25732C68617264776172653A2A
:1008100025730D0A00000000736176650D0A000063
:10082000342E312E300000004A5325303458000059
:100830007B22496E666F223A7B0D0A002244657660
:10084000696365223A2250444F41204E6F6465220D
:100850002C0D0A002256657273696F6E223A2225AA
:1008600073222C0D0A00000031353A32323A343707
:1008700000000000417567203231203230323500EF
:10088000224275696C64223A222573202573222C3A
:100890000D0A000044573330303020433020446587
:1008A0007669636520447269766572205665727355
:1008B000696F6E2030342E30302E30300000000052
:1008C00022447269766572223A222573227D7D0068
:1008D0002530345800000000A50C00207B22444C39
:1008E000697374223A5B2000222530386C58253019
:1008F000386C5822000000005D7D0D0A00000000E9
:100900007B224B4C697374223A5B000025387320BC
:10091000253038782530387820257820257820250E
:1009200078202578000000007B22546167416464D0
:100930006564223A200000007D0000002538732005
:100940002530387825303878000000007B2254614B
:100950006744656C65746564223A202225303878D6
:1009600025303878227D000001A808F008FF81B208
:1009700001A800F0DCFA2FB0504830BD70B54F4CE4
:10098000D2B00546641D4FF4807107A808F0AFFF90
:1009900002AE49AB48AA4EA94DA886E80F004CA963
:1009A0004BA8CDE900014AAB4FAA45A1284608F063
:1009B00057FD082836D1BDF82801012832D8BDF8E6
:1009C0002C0101282ED8BDF8341101292AD843481A
:1009D0000DF10C0C026811800268BDF830115180D5
:1009E000BDF838210068D3B20377BDF82021C28258
:1009F000BDF824410483B0F90660B0F904508CE8D6
:100A0000740002888DE80E00C37E827E344907A8F8
:100A100008F076FB07A808F0B2FE81B207A800F044
:100A200086FA264C52B0204670BD10B5C8B04FF4BF
:100A3000807107A808F05BFF28480DF10C0C0068D6
:100A4000C18AB0F90640B0F90430028B8CE81E0070
:100A50004188037F02888DE80E00C37E827E204994
:100A600007A808F04DFB07A808F089FE81B207A887
:100A700000F05DFA48B0114810BDBFF34F8F194820
:100A80000168194A01F4E06111430160BFF34F8F1F
:100A900000BFFDE730B585B04A880DF1040C0D8A22
:100AA000CC898B898CE83C004A6800928B680A8864
:100AB0000E4908F025FB05B030BD0000D0BE00088F
:100AC000253873202564202564202578202564207E
:100AD000256420256420256400000000A50C00206A
:100AE0002CC900080CED00E00400FA052CCA00082F
:100AF00038B5674800F007FC66A269A16BA000F05A
:100B000002FC73A175A000F0FEFB7CA17FA000F0A9
:100B1000FAFB864C86A0216800F0F5FB8CA061688A
:100B200000F0F1FB606900900834924894E80E00F0
:100B300000F0E9FB70A000F0E6FBBDE83840544847
:100B400000F0E1BB10B56C21784808F0D0FE774882
:100B50004AF6AA2149220160002141608160C160FA
:100B600001614161A0F64431BDE81040183008F041
:100B70006ABE10B5804C02E0642000F00BFB1B2223
:100B80006A49204600F011FD0028F5D010BD1B2257
:100B90006649794800F03ABD10B5FFF7F8FF6348A1
:100BA0000168A1F52A42AA3A13D074A000F0ABFB69
:100BB000FFF7C8FFFFF7DDFFBFF34F8F7A480168EB
:100BC0007A4A01F4E06111430160BFF34F8F00BF27
:100BD000FDE74168491C4160FFF7CBFFBDE81040CD
:100BE00001F0A3B910B54FF4FA7000F0D3FA00F099
:100BF000F1F8FFF7D1FFBDE8104079E710B50446E2
:100C000000F015F900F051F91CB11B2168A000F0AB
:100C10008EF96E48D0F8F40A002805D00021BDE80E
:100C20001040084600F083B910BD0020E6E770B51B
:100C3000674D0646002400BF15F82400022811D194
:100C400005EB84004088B6FBF0F100FB116149B967
:100C5000B6FBF0F0C007E0B201D0002100E00121B6
:100C600000F02CFA641C042CE6DB70BD57495039A7
:100C70000A6890420BD00860012806D0022806D1ED
:100C800002220221002000F04DBA0A22F9E7704743
:100C900080CA000841756720323120323032350079
:100CA00031353A32323A34370000000020202055E6
:100CB0005742204D6F64756C6520436F6D70696C91
:100CC00065642054696D652025732025730A000032
:100CD0007630315F30305F303032000020202055D8
:100CE0005742204D6F64756C6520535720566572CE
:100CF00073696F6EA3BA25730D0A00007630315FF9
:100D000030305F3030302878504129002020205585
:100D10005742204D6F64756C6520485720566572A8
:100D200073696F6EA3BA25730D0A0000480B00208B
:100D3000202020555742204D6F64756C6520466C0D
:100D4000616720626974A3BA253032580D0A000029
:100D5000202020555742204D6F64756C65205374D8
:100D6000617274757020436F756E74A3BA25640D3B
:100D70000A000000C8CA000800F80008546865208E
:100D800064657669636520697320706F7765726545
:100D900064206F6E207468652066697273742074B5
:100DA000696D650A000000000CED00E00400FA0522
:100DB000506C656173652053656E64204154204317
:100DC0006F6D6D616E642E2E2E0D0A005000002096
:100DD000B60B002010B54021B44808F088FDB34898
:100DE0000321403000F026FD10BD70B5B04900234E
:100DF0000A88140415D455041C4606D50A280FD1B8
:100E000042F40040088001230BE00D280BD0A74ED0
:100E1000C2F30D05521C705590B208803F2800D9CE
:100E20000C80184670BD42F480400880F9E7F0B5A8
:100E3000ADF53F7D4FF4007421463FA808F057FD03
:100E400021463FA800F0F1FC05002BD0002427E04C
:100E50003FA8005DFFF7C9FF08B384211EA808F072
:100E600046FD934F00268DF878603A788DF879200A
:100E70008E490DF17A0008F0A1FC762221A968467E
:100E800008F0E1FC0DF1780C88489CE80E00403039
:100E900000F024FD3E804021844808F028FD641CB9
:100EA000AC42D5DB0DF53F7DF0BD00B57F48A1B06C
:100EB0006946403000F046FD002803D00DF10200E5
:100EC000FFF705FA21B000BD2DE9F041794C0F463E
:100ED0000146D4F8F40A0026C21904F5AF65B2F54C
:100EE000AF6F08D228443A4608F068FCD4F8F40AF8
:100EF0003844C4F8F40AD4F8F00A012814D1D4F81C
:100F0000F42A29466B4804F52F6408F09CFC6948D4
:100F1000616800F08CFCA088002281B2654800F076
:100F2000B3F90020206060603046BDE8F081CBE777
:100F30000FB4F0B50D999DF8140008709DF81500D8
:100F400048709DF816208A70BDF81720CA70120AE2
:100F50000A719DF819204A71BDF81920120A8A7188
:100F6000DDF81920120CCA71DDF81920120E0A7270
:100F70009DF81D204A72BDF81D20120A8A72DDF804
:100F80001D20120CCA72DDF81D20120E0A73BDF866
:100F900021204A73120A8A73DDF82320CA73DDF810
:100FA0002320120A0A74DDF82320120C4A74DDF89B
:100FB0002320120E8A74DDF82720CA74DDF827205A
:100FC000120A0A75DDF82720120C4A75DDF8272071
:100FD000120E8A75BDF82B20CA75120A0A76BDF862
:100FE0002D204A76120A8A76BDF82F20CA76120A78
:100FF0000A771D2202250024234603E0EF18CE5D68
:1010000074405B1C06468342F8DB8C54521C9DF8EE
:1010100032308B54301DF0BC5DF814FB70B54FF4CA
:101020000036C0B0304605F0B6FF30B32248007835
:10103000FFF7DBFE08B384211EA808F058FC1C4D06
:1010400000248DF878402A788DF8792017490DF121
:101050007A0008F0B3FB762221A9684608F0F3FB7A
:101060000DF1780C11489CE80E00403000F036FC81
:101070002C8040210D4808F03AFC40B03046BDE8D5
:10108000704005F096BF10B54FF40054204605F0AF
:101090006AFF002808D007490120C1F8F00A20465D
:1010A000BDE8104005F06DBF10BD0000100F00201E
:1010B000B40B002050000020CC0B0020294A05284A
:1010C00018D2DFE800F0140F0F0F140002210BE01C
:1010D00001290FD1022102E001290BD10021104684
:1010E00006F0EDBA0029F7D1104606F0EABA002959
:1010F000EED1EBE7704708B50121042006F00DFEA4
:101100000220ADF8000010208DF8030003208DF8B8
:1011100002006946134806F064FA00210420FFF734
:10112000CDFF08BD10B5104B02290DD0042804D006
:1011300003F82010FFF7C2FF10BD0022521C03F875
:101140002010042AFADBF5E728B1012803D0022891
:1011500001D00328F0D1022103F8201003EB800016
:10116000428010BD00080140B60B002010B54FF4BE
:10117000407005F0F1FD00F032F800F015FAFFF7CD
:10118000BAFF00F0C0F900F0DEFABDE8104000F050
:1011900041BB00003A4908604FF0E020026942F08C
:1011A0000102026108680028FCD1704734480168D8
:1011B000002902D00168491E0160704708B51C2053
:1011C0008DF800000B208DF8010000208DF8020042
:1011D00001208DF80300684605F0C3FD08BDFEB58B
:1011E00028484FF47A710068B0FBF1F0401EB0F16E
:1011F000807F31D24FF0E024606166170F213046C6
:1012000000F02DF80025A56107202061052130465A
:1012100000F025F80121084606F088FD40F2E7308D
:10122000ADF8040041F61F40ADF800004FF08044D7
:10123000ADF80650ADF802506946204606F08EFF24
:1012400001221146204607F047FA0121204607F007
:101250002EFABDE8FE40B1E7FEE706F03EBC090706
:10126000090E002804DB00F1E02080F8001470472C
:1012700000F00F0000F1E02080F8141D704700001E
:10128000C80B0020FC0E00202DE9F0410E46074659
:10129000012A0FD0BE4C0021204605F04CFEBC4870
:1012A0004438866407650121204605F044FE304637
:1012B000BDE8F0810025B74C0BE021882046795D20
:1012C00007F027FD4021204607F084FD0028F9D0D3
:1012D0006D1CB542F1DBEAE72DE9F0410E46074609
:1012E0000025AD4C0BE021882046795D07F011FD0B
:1012F0004021204607F06EFD0028F9D06D1CB54254
:10130000F1DB3046D4E70FB44FF4807110B503AB76
:10131000A248029A07F0DAFE81B201229F48FFF745
:10132000B3FF10BC5DF814FB2DE9F04301218BB035
:10133000084606F0E9FCDFF85882404605F064FDF7
:10134000944D00242D1D102080260095CDE90446E3
:1013500047020290CDE90847069407946946404643
:101360000A9405F0BEFD01220221404605F0EEFD83
:10137000DFF8208201228021404607F096FCDFF84A
:10138000109209F11409484605F03EFD8448009585
:10139000CDE9010403A9012081E851002020069431
:1013A000CDE90740CDE909746946484605F099FD45
:1013B00001220221484605F0C9FD0121484605F0F9
:1013C000BAFD01224021404607F06FFC0BB0BDE89A
:1013D000F0832DE9F04301218BB0084606F094FC20
:1013E000DFF8AC8108F13C08404605F00DFD6A4D80
:1013F00000242D1D102080260095CDE904464702CB
:101400000290CDE9084706940794694640460A943D
:1014100005F067FD01220221404605F097FDDFF847
:10142000788101228021404607F03FFCDFF860917F
:1014300009F12809484605F0E7FC59480095401C89
:10144000CDE9010403A9012081E851002020069480
:10145000CDE90740CDE909746946484605F041FDEC
:1014600001220221484605F071FD0121484605F0A0
:1014700062FD01224021404607F017FCA6E708B5AF
:101480000E208DF800000A208DF8010000208DF854
:10149000020001208DF80300684605F062FC08BDDB
:1014A00008B50F208DF800000A208DF801000020FB
:1014B0008DF8020001208DF80300684605F051FC0C
:1014C00008BD08B511208DF800000A208DF8010034
:1014D00000208DF8020001208DF80300684605F019
:1014E00040FC08BD08B510208DF800000A208DF8DA
:1014F000010000208DF8020001208DF803006846ED
:1015000005F02FFC08BD1FB5012144F2040006F0D0
:1015100004FC4FF40070ADF8000003208DF80200C9
:101520001820204C8DF803006946204606F059F833
:101530002015ADF8000004208DF803006946204610
:1015400006F04FF84FF4E13000900020ADF80400B1
:10155000ADF80600ADF80800ADF80C000C200D4CFD
:10156000ADF80A006946204607F00AFB012240F266
:101570002551204607F081FB0121204607F073FB2F
:10158000FFF7D2FEFFF77BFFBDE81F4088E70000B2
:10159000440002400038014000440040E4100020B4
:1015A000CC0B0020000801407047F8B50546042028
:1015B00016460F4600248DF8000005F096FD3520F4
:1015C00005F0A1FF284605F0CBFD8DF800009DF841
:1015D000000004280AD015E057F82410284605F02A
:1015E0005EFE8DF80000641CE4B22D1DB44203D2EF
:1015F0009DF800000428EFD005F083FD9DF8000061
:10160000042801D00020F8BD0120F8BD10B500234A
:1016100004E010C841F823405B1CDBB29342F8D3CE
:1016200010BD000008B517208DF8000001208DF8CE
:10163000010000208DF802008DF80300684605F0D7
:1016400090FB08BD1CB50521012006F082F8202082
:10165000009000208DF8040008208DF8050001207E
:101660008DF80600684605F0C1FCFFF7DBFF1CBDE6
:10167000F0B5354E87B0304606F09EFB01210803D9
:1016800006F04BFB01210D2006F047FB0021ADF8D1
:1016900004104FF48270ADF80600ADF80C10701510
:1016A000ADF80E001024ADF80810ADF8104007207A
:1016B000ADF80A10ADF81210ADF8140001A93046CB
:1016C00006F09EFBA020ADF8000018208DF8030066
:1016D0001E4F03258DF802506946384605F081FFFC
:1016E0004020ADF8000048208DF8030069463846D8
:1016F00005F077FFADF800408DF803408DF80250FB
:101700006946384605F06DFF0021304606F02DFC95
:101710000121304606F0F1FB1021384605F0CFFFDD
:101720000121082006F0F9FA2020ADF80000282059
:101730008DF803006946064805F053FFFFF782FF66
:1017400007B00020F0BD93E70030014000080140E1
:10175000000C014010B5012186B0480506F0E6FAFC
:101760000121082006F0D9FAC020ADF810000320AE
:101770008DF812001C208DF8130004A91C4805F0F8
:1017800030FF1C4C204606F00BF80020ADF804009A
:101790004BF6FF70ADF806003020ADF808002015BC
:1017A000ADF80A000001ADF80C00134800900121CB
:1017B000204606F06FF86946204606F004F805F06A
:1017C00074F9FF2005F0DCF906B0002010BD10B55B
:1017D000FFF7C0FF022309A20121062005F004FA49
:1017E00002230321BDE8104008A22A2005F0FCB91D
:1017F000000C014000540040801A06004D616B65EA
:1018000072666162732D416F412D00002D54616736
:101810002D00000010B503F0ADFA03F0DAFA03F082
:10182000EFFABDE8104004F01BBC03F017BB03F057
:1018300027BB00000022C0F88821C0E9632170475F
:1018400070B5D0F888110446D0F88C210D468DA0D3
:10185000FFF759FD1BE0294690A0FFF754FD05EB6B
:10186000851690A014F81610FFF74DFD04EB460600
:101870008FA07178FFF747FD8FA0FFF744FDB11CE3
:101880008FA0FFF740FD8FA0FFF73DFD6D1CD4F842
:10189000900195FBF0F100FB1150D4F88C118842B7
:1018A000D9D1BDE8704087A0FFF72DBD00F5C67106
:1018B000D0F8880106C9491C91FBF2F302FB131111
:1018C000814201D10120704700207047D0E96210A9
:1018D000814201D101207047002070470FB410B53C
:1018E0000446FFF7E3FF18B1002010BC5DF814FBBD
:1018F000D4F88C119DF80C0001EB811104F8110053
:10190000D4F88C119DF80D0001EB811104EB41011D
:101910004870D4F88C019DF80D2000EB801004EB8A
:1019200040000DF10E01801C07F048FF04F5C67061
:1019300003C8401C90FBF1F201FB1200C4F88C01BB
:101940000120D2E770B50D460446FFF7BFFF08B18E
:10195000002070BDD4F88801822200EB801004EBD7
:101960004001284607F02AFFD4F88801822100EBC5
:10197000801004EB400007F098FFD4F88801D4F8F9
:101980009011401C90FBF1F201FB1200C4F8880199
:101990006878802803D94CA0FFF7B5FCD8E7012070
:1019A00070BD30B5002288B05FF00A03B0FBF3F4DD
:1019B00003FB1404B0FBF3F030348C54521C0028A9
:1019C000F4D1885410006B4604D40C5C151A401EE8
:1019D0005C55FAD5012004E01C5C0D18401C05F88C
:1019E000014C9042F8DD08B030BD2DE9F0411746BA
:1019F0008846064600241DE0305D07F058FBC5B25E
:101A00003019407807F053FBC0B2392D01D9373D6A
:101A100000E0303DE9B2392801D9373800E03038EC
:101A2000C0B204EBD47240EA011008EB6201A41CBE
:101A3000087024B2BC42DFDBBDE8F081F8B5154682
:101A40000E46074600240AE03A5D24A1684607F0E6
:101A500057FB06EB4400BDF800100180641CAC424B
:101A6000F2DBF8BD0821042201EA501102EAD0128B
:101A70000A43022101EA50211143C0F3C020084368
:101A800070470000512D3E66726F6E74203A2564D7
:101A90002C726561723A2025640A000069203A259B
:101AA00064000000666C61673A2564200000000055
:101AB0006C656E3A256420006D7367203A00000063
:101AC000257320000A0000006572726F7220717524
:101AD000657565206D73670A000000002530325877
:101AE0000000000010B586B006F00CF84FF480340A
:101AF000204606F020F806F04BF828B3102005F039
:101B0000EBFA022005F0D8FA002006F079F8002060
:101B100006F084F8A01106F07AF8601006F093F849
:101B20004FF4E011204606F054F8012006F059F871
:101B3000392006F018F80028FAD0022006F054F8F0
:101B400006F059F80828FBD1684606F09DF806B063
:101B500010BD10B507F0E8F9FFF7C4FFFFF706FB6B
:101B6000BDE81040FFF73EB8FFF7F3FF00F098F82C
:101B7000FEE70000704731A0FFF7C5FB34488168DD
:101B8000491C8160FEF7F5FF00F04AF831A0FFF72D
:101B9000BAFB2F48C168491CC160FEF7EAFF00F09C
:101BA0003FF831A0FFF7AFFB29480169491C0161EB
:101BB000FEF7DFFF00F034F830A0FFF7A4FB244865
:101BC0004169491C4161FEF7D4FF00F029F87047D4
:101BD000704770472E480168491C0160FFF7E6BA5C
:101BE00010B500F088F9BDE81040202005F05CBA7F
:101BF000012005F059BA10B501218C07204606F0E6
:101C000080FF00280BD00121204606F086FF2149E5
:101C10000888421C0A80BDE81040FFF708B810BDD4
:101C2000BFF34F8F1C4801681C4A01F4E061114367
:101C30000160BFF34F8F00BFFDE700004861726491
:101C40004661756C745F48616E646C65720A000071
:101C5000480B00204D656D4D616E6167655F4861A1
:101C60006E646C65720A00004275734661756C742F
:101C70005F48616E646C65720A00000055736167AD
:101C8000654661756C745F48616E646C65720A00CC
:101C9000F00B0020CE0B00200CED00E00400FA0554
:101CA000AFF3008003480249016002F038BE000033
:101CB0001F490008D00B00209548006870479449E0
:101CC0000A6810440A68121A002AFBDD7047F6E71A
:101CD00000EB40008100002001E000BF401C884272
:101CE000FBD37047F8B50124ADF8004010208DF803
:101CF0000300884E03258DF802506946304605F0F2
:101D000070FC0121304605F0DCFCADF800400020FD
:101D10008DF803008DF802506946304605F061FCED
:101D20000220FFF7CCFFF8BD30B57B4D044685B0EF
:101D3000284606F041F80021ADF800104FF48270FB
:101D4000ADF80200ADF808106815ADF80A00ADF85E
:101D50000410ADF80C400720ADF80610ADF80E10D9
:101D6000ADF810006946284606F04AF801212846D9
:101D700006F0C3F805B030BD2020D5E70020D3E73A
:101D800010B5644C1021204605F09BFC0120FFF7A4
:101D900096FF1021204605F092FCBDE81040072078
:101DA0008DE78CE75D49024600200968114200D0AA
:101DB000012070477FB501250024564A0826ADF85A
:101DC000085030B304208DF80B0002A9104605F02E
:101DD00008FC0021084605F0BCFC8DF804408DF895
:101DE000056000958DF80650684605F0FFF84FF441
:101DF000407004F0B1FF06208DF80C000F208DF824
:101E00000D008DF80E408DF80F5003A804F0A9FFC7
:101E10007FBD8DF80B4003208DF80A0002A9104603
:101E200005F0DFFB8DF804408DF8056000958DF816
:101E30000640684605F0DAF87FBD2DE9F041984686
:101E400015460F460646002400F06CF9024631485C
:101E5000102314300360304806E0395D8181018928
:101E6000C907FCD08189641CB442F6DB002107E07D
:101E700018F8014084810489E407FCD08489491C56
:101E8000A942F5D3234810300360104600F05BF9F7
:101E90000020BDE8F0812DE9F0411D461646884638
:101EA0000746002400F03EF902461A481023143079
:101EB0000360194809E000BF18F804108181018906
:101EC000C907FCD081892970641CBC42F4DB002165
:101ED0000C4606E084810789FF07FCD087896F5490
:101EE000491CB142F6D30B4810300360104600F095
:101EF0002AF90020CDE710B5094C01E001F0D2FD30
:101F00002021204605F0C7FB0028F7D110BD0000B6
:101F1000F00B0020000801400030014000040140A7
:101F2000000C01400C480068704738B50B480A495E
:101F3000A0F118040860208E0090E38D34F91C2F66
:101F40000748B4F90210FFF7DEF9A28E618EBDE8F2
:101F5000384004A0FFF7D7B9A50C0020600B002083
:101F600014CB0008736C6F743A25642C616464723E
:101F70003A253034580A0000684800683630704707
:101F8000664900200968C98E002900D001207047E9
:101F9000624813210068363007F087BCF0B55F4A0D
:101FA000012713680022363302EB420404EB0214CB
:101FB000E6187468B56844404D402C4307D1348816
:101FC0002CB102EB420000EB02101844F0BD521C91
:101FD000BA42E9DB0020F0BD30B5504901230A6860
:101FE0000021363201EB410404EB011414446588EE
:101FF000854207D124882CB101EB410000EB011090
:10200000104430BD491C9942ECDB002030BD4348F0
:10201000012201680020363100EB400303EB00137E
:102020000B4400F101001B8823B100B29042F3DBA6
:102030000020704780B270472DE9F04316460746EE
:102040008C46FFF7ABFF04002CD1DFF8D090D9F815
:10205000000000F13608FFF7DAFF05B2002D21DDA0
:10206000012D02DD1EE0761CB6B23046FFF7B4FF4C
:102070000028F8D105EB450000EB051101EB080441
:1020800024F8135D66806760C4F808C0D9F80010B2
:10209000098EA181D9F80010498EE181D9F800009C
:1020A000808E20822046BDE8F08310B5FFF794FFB4
:1020B000002804D0BDE81040132107F0F6BB10BD86
:1020C00010B5FFF76BFF002804D0BDE810401321C6
:1020D00007F0EBBB10BD124A0020D2E900121143F9
:1020E00000D0012070470E487047F0B50C4C012518
:1020F000D4E9002382EA000683EA01073E4302D0C6
:102100001A4302D003E0002501E0C4E9000128469B
:10211000F0BD03480021016041607047A50C00201C
:10212000F80B002010B51720FFF73CFE002809D05F
:102130004FF0E0224FF40001C2F88011BFF34F8F3F
:10214000BFF36F8F10BD002805D04FF0E0214FF492
:102150000000C1F8000170474FF48020704710B1B3
:102160004FF0FF307047FF49FD480860002070477E
:1021700038B50024009400F018F838BD08B589B2CD
:102180006B460122FFF7F4FF9DF8000008BD30B553
:10219000F34D00230446403503E0E05C50405B1CF7
:1021A0002A5C8B42F9DB104630BD2DE9F843064628
:1021B00017463144C1F304420898984601F07F0164
:1021C0001F2A27D87F2925D8B7F5445F22D24FF49C
:1021D000004C48F2010360450AD048B1984207D04C
:1021E000A0F50044023C03D0A0F50044033C11D10B
:1021F000520242EA810240EA0204240A00F0030586
:102200008DF8004015438DF801500FB151B10CE02D
:10221000604501D007F058FA812141EA46018DF866
:10222000001012E060450ED068B144F040018DF816
:1022300000100224C11ACB4D98420DD007DC20B308
:10224000604508D108E08DF800400124F2E701293B
:1022500002D0022900D0FEE72868007D70B100227C
:1022600021466846FFF793FF024639464046FFF78E
:102270008EFFBDA0FFF747F8BDE8F88343463A4616
:1022800069462046FFF7D9FDF6E743463A466946D8
:102290002046FFF700FE2868007D0228ECD1182EAA
:1022A000EAD0002221466846FFF771FF0246394610
:1022B0004046FFF76CFF044600211820FFF75EFF41
:1022C0008442D9D02868406A0028D5D08047D3E717
:1022D00038B54FF400440094FFF767FF38BDFFF7AF
:1022E0004FBD38B5002489B26B460422FFF740FF8A
:1022F00003216846425C491E02EB0424FAD52046BD
:1023000038BD08B589B26B460222FFF731FF9DF850
:1023100000009DF8011000EB012080B208BD38B527
:1023200000236C46E254120A5B1C042BFADB89B2D0
:1023300023460422FFF7CCFF38BD08B589B28DF8DB
:102340000020120A8DF801206B460222FFF7C0FF21
:1023500008BD07B589B202AB0122FFF7B9FF0EBD78
:102360003EB5140A8DF804208DF80540140C8DF844
:102370000640120E8DF807208DF808301A0A8DF8E5
:1023800009201A0C8DF80A201A0E8DF80B2048F23D
:102390000302009289B201AB0822FFF706FF3EBD9F
:1023A0001CB589B28DF80420120A8DF805208DF82D
:1023B00006301A0A8DF8072048F20202009201AB9B
:1023C0000422FFF7F2FE1CBD1CB589B28DF8042073
:1023D00048F201028DF80530009201AB0222FFF7AE
:1023E000E4FE1CBD2DE9F0415E4D0E4604001FD0F9
:1023F0004023FF2200211020FFF7E6FF022C01D12D
:1024000028684662564E002207234036D1B2082083
:102410000F0602D583EA410100E04900401EC9B21F
:1024200010F0FF00F4D1B154521CFF2AEEDD05E09C
:102430000023BF2219461020FFF7C6FF2868047545
:10244000BDE8F08170B54F4D0446012200212846B9
:10245000FFF773FF22460021281FFFF76EFF0222BD
:1024600000212846FFF769FFBDE87040454800217C
:10247000083036E70021084633E710B5FFF7FAFFCA
:102480004149884205D040491039884201D0881717
:1024900010BD002010BD2DE9F041324C064600254C
:1024A00020680221C5730182057545758572C57264
:1024B0008562C56205634563C5638563FFF7DDFF1C
:1024C00008B1681EBCE70420FFF7BCFF804605206A
:1024D000FFF7B8FF07460A20FFF7B4FFC0F3044137
:1024E0002068B8F1000F017203D017B109B102F0F2
:1024F00023F82020FFF7A6FF2449884203D1216852
:102500000120487201E020684572F00604D40620DC
:10251000FFF798FF21680860B00604D40720FFF792
:1025200091FF21684860700604D50820FFF78AFFF4
:1025300021688872300604D50920FFF783FF2168DF
:10254000C8722068C17A09B98521C172817A09B936
:10255000742181721F20FFF775FF2168487317E00F
:10256000E4110020000C00204E4F4E4520535049EE
:10257000207772697465746F7370697769746863C2
:1025800072630A0008000B001203CADE400200104A
:102590001E20FFF757FF10F07F012068817301D1E3
:1025A0002E218173CAB20021FE48FFF7D2FE00201F
:1025B00046E72DE9F041FC4C012818D0271F2505DE
:1025C0006FF48076022819D00123FF2200213846BB
:1025D000FFF7FAFE2B46324600212046FFF7C0FEE9
:1025E00000237F2202212046BDE8F041ECE60520D1
:1025F00001F0C9FF0123FF221946F4E70323FF225C
:1026000000213846FFF7E0FE2B46324600212046E7
:10261000FFF7A6FE00237F2202212046FFF7D4FE0B
:10262000BDE8F041052001F0AEBFDF4800214FF4C6
:1026300080334FF0FF32001F92E6DC480068407B99
:102640007047D94B083308B1D94A00E0D94A022172
:10265000184664E670B504464FF4A02500212846CC
:10266000FFF73FFED44900EA0102E00701D042F43F
:102670008022A00701D542F41042600701D542F044
:1026800012022846BDE87040002148E60021CB48F0
:1026900074E5C6480068807A7047C4480068C07A0C
:1026A0007047C248006800687047C04800684068CA
:1026B00070472DE9F041C14F0D4606464FF0FF34FB
:1026C0002C374FF00823224600213846FFF748FEFA
:1026D0004FF06013224600213846FFF741FE4FF4C9
:1026E000E020052E0DD0B64B22460021FFF738FE24
:1026F000002D08D0BDE8F041B0480021B14A0838AB
:102700000DE6B14BF0E79BE670B504460D4601209F
:1027100001F039FF00212846FFF7CBFF284601F0E2
:1027200074FFC4F30B020021A848FFF706FEA74C74
:1027300003230C3CFF2200212046FFF745FE002129
:102740002046FFF71BFDC007F9D101F059FF00201B
:1027500001F029FF052001F016FF00219748FFF73F
:102760000DFD00F03F0070BD70B50446008990B1CA
:10277000052500219648FFF701FDC00700D0092577
:1027800020892946FFF7C0FF6268BDE87040904885
:1027900000210838C3E5227800218848FFF7D9FDD9
:1027A000F2E710B50446026800218A48FFF7B7FD3A
:1027B00088480021001D6268FFF7B1FD85480021AF
:1027C0000830A268FFF7ABFD8248E2680021BDE84F
:1027D00010400C30A3E510B5044602687D48002186
:1027E0001030FFF79CFD7B48002114306268FFF732
:1027F00096FD784800211830A268FFF790FD7548D3
:10280000E2680021BDE810401C3088E571480123D2
:10281000FF2200210838D7E52DE9F04705283FD0F1
:10282000704E704D3F366C4ADFF8B091DFF8B081E2
:102830006C4F77352C4600216B48FFF770FD6A48D6
:102840004A460021001DFFF76AFD67484246002105
:102850000830FFF764FD64483A4600210C30FFF76A
:102860005EFD6148324600211030FFF758FD5E489A
:102870002A4600211430FFF752FD5B482246002112
:102880001830FFF74CFD5848584A00211C38FFF714
:1028900046FDBDE8F04754480021554A18383EE54A
:1028A000564F574D564CC0377F35524ADFF8489146
:1028B000DFF84881524EBF34BDE770B53B4D05246B
:1028C0002868007A08B101F037FE3C481422012143
:1028D0003430FFF73EFD182200214A48FFF71FFD64
:1028E0004848E8220021001DFFF719FD28686FF411
:1028F000C052007C00F0E0014348202902D060294A
:1029000008D102E04FF4806301E04FF440630021FE
:10291000FFF726FD00212E48FFF7F3FCF82101EA1E
:10292000D00109390F290ED8C00700D00924286822
:10293000407A0128204602D0BDE870406CE7BDE82F
:10294000704001F00DBE70BD10B5044617486FF41D
:10295000304200210068447504F00B00030310208E
:10296000FFF7FEFCE0438107284804D0284ABDE871
:1029700010400021D3E4274AF9E72DE9F041154A38
:10298000254F00240B3A21463846FFF7C8FC102398
:10299000FF2200213846FFF717FD0025DFF8788079
:1029A0003CE000001400090008001100000C0020A9
:1029B0007488D2041000D200C00FE0FF1C00070092
:1029C000001C000200110101003C00021C00080074
:1029D000140001000C000200FEA8020036AC020048
:1029E000FEA502003EAF02003800030040020010C6
:1029F00089A46D1BFDC001003EC40100BEC60100DC
:102A000036CF01000C001F0008000B000C00060070
:102A10004C585FAFCC355FAF0C00040008F11408D0
:102A2000661E1420FFF754F900214046FFF7A6FB6D
:102A3000012804D06D1CEDB2032DF2D334460022E0
:102A400011463846FFF785FC012200214046FFF77A
:102A500080FC0123FF2202213846FFF7B5FC00214C
:102A6000FE48FFF73EFC6FF06045A84200D13446B7
:102A7000FA4800210830FFF734FCA84200D1344660
:102A80002046DDE42DE9F041F54D044601280CD146
:102A900000212846FFF735FC064640F205134FF6A5
:102AA000FF7200212846FFF77BFCFFF766FF074611
:102AB000012C05D10023324619462846FFF770FC49
:102AC0003846BDE402460121282042E42DE9F05FAA
:102AD000044690F800800079182802D8E078182879
:102AE00001D9012000E000208346E079012864D06C
:102AF000002082466078012863D004285FD0052832
:102B000063D007285FD04FF48075DFF85893D9F869
:102B10000060308A20F0E0003082E0793073617B21
:102B20000120891C884087B2F80009F007F8CE49D7
:102B300009F018F808F0CEFF7082207B7075A07B3A
:102B4000217B000401F00B0140EA0133207A2021AF
:102B500001EA4010034343EA0A03C44A002110205B
:102B6000FFF7FEFB5FEA0B00C14EDFF808B36FF41E
:102B7000C05A2CD0D9F800004FF440635246018A65
:102B800041F06001018200215846FFF7E9FB40F265
:102B900006320021B01FFFF7C2FB00221146301F92
:102BA000FFF7BDFBB44A00213046FFF7B8FB7D229A
:102BB0000021301DFFF7CDFB38E0102099E72025DC
:102BC000A3E74025A1E748259FE780259DE7207BD7
:102BD000A8B1A07BA94901281CD0D8B1607B0422F0
:102BE00031F81000102101F021FD00F07F0305EB0A
:102BF000C7054FF6807202213046FFF7D1FBFF2D4B
:102C00000DDDD9F800004FF48063018A41F0200106
:102C1000018206E0607B032231F81000E2E74FF406
:102C2000A053524600215846FFF79AFB4FF4C025A7
:102C3000A378FC2200212846FFF7C6FB7F1EFAB2CC
:102C400000214FF40030FFF784FB6078072817D08D
:102C50005FF00000FFF736FF207BC0438107884804
:102C600010D0884A0021FFF75AFB874E00213046DA
:102C7000FFF737FB6FF30C00B8F1090F04D005E044
:102C80000820E7E7814AEDE740F0010021794FF4A1
:102C9000F85202EA01210143E0780622C00641EA27
:102CA0001060617902EA4102024300213046FFF7D9
:102CB00036FBA0796178800240EA01336FF47442F8
:102CC00000212420FFF74CFB608908B98120608136
:102CD00082B202212846FFF730FB61484FF41025ED
:102CE0002C38B8F1090F42D0694A0021FFF717FBD1
:102CF00041F63C7200212846FFF71FFB584814227A
:102D000001210830FFF725FB55480E2202213038FB
:102D1000FFF71FFB812200215E48FFF71AFB02220A
:102D200000214420FFF715FB0120FFF742FC00259E
:102D30000120FEF7CCFF00214420FFF71FFA800797
:102D400026D52079544C09380F282ED8D9F8000000
:102D5000407A012824D04046FFF75EFD4FF4C84377
:102D600048F2FF1200212046FFF71AFB23E04B4AEE
:102D70000021FFF7D4FA40F63C7200212846FFF705
:102D8000DCFA3748464A00213838FFF7C8FAB5E779
:102D90006D1CEDB2062DCBD34FF0FF30BDE8F09F98
:102DA0004FFA88F001F0DCFBD8E70023FE22194639
:102DB0002046FFF709FBBDE8F05F012062E602460E
:102DC00000214FF46020FFF7B8BA02462E480021D8
:102DD0001038FFF7B2BA70B50546501914460E46C2
:102DE000B0F5806F1BD27F2C05D80B462A462146B2
:102DF0004FF4A0100FE0142200212A48FFF78FFAA9
:102E0000284822460021001DFFF789FA33462A464A
:102E100000214FF4E810FFF75BFA002070BD4FF07F
:102E2000FF3070BD10B5204C7F290AD840EA014020
:102E300040EAC22322460021BDE810402420FFF7CB
:102E40008FBA4FF4000303EB0141014341EAC2236F
:102E5000224600212420FFF783FA27E01400040013
:102E600048000700000C00206666663FCF4FFCFF5D
:102E700012000E0008000B000A5A0C0070BF000878
:102E80000C0006004C585FAF14000100CC355FAF5A
:102E90003411071C08000900180003003400011C4D
:102EA00033A8B50804001F0000F400FCBDE8104082
:102EB00000214FF40020FFF761B930B414460A46F0
:102EC0002146034630BC4FF4B010FFF751B970B53E
:102ED0000646FF4814460D460068C07B03280BD009
:102EE0004FF490106119B1F5806F1CD27F2C06D879
:102EF00033462A46214612E04FF49810F2E7020CBE
:102F00000021F448FFF70BFAF24822460021001D89
:102F1000FFF705FA33462A4600214FF4E810BDE8D2
:102F20007040FFF725B970BD2DE9F041EA4E144617
:102F30000D46074648F240034FF6FF720021304627
:102F4000FFF72EFA601943F20101884222D87F2C44
:102F500005D83B462A4621464FF4A8100FE015221B
:102F60000021DC48FFF7DBF9DA4822460021001D8A
:102F7000FFF7D5F93B462A4600214FF4E810FFF74A
:102F8000F7F83046BDE8F041002347F6BF72194616
:102F9000FFF706BA06F098FBCD4810B50068C07B75
:102FA000012808D0032802D00021CC4805E00C21DC
:102FB0004FF4F01001E00021C948FFF7A2F9C0F377
:102FC0000C00C10401D540F4604000B210BD38B51A
:102FD00000246B4603222146C248FFF7C9F80220AD
:102FE00069460A5C401E02EB0424FAD5E00201D5D2
:102FF000BD480443204638BD10B504460021BB48F7
:10300000FFF77FF9C0F30B01080501D541F47041CA
:1030100008B2AF4920800968B1F91210401A10BDFA
:1030200070B50025044601290DD0AD484FF00C12B3
:103030002030A7490968C97B01290ED0032907D090
:10304000022110460AE0A648A44A28300C3AF0E7CC
:10305000A74901444FF4F01000E00221FFF751F9B5
:10306000C00920800004000C01D04FF0FF35284635
:1030700070BDF0B5964E0446BBB030684FF4C01733
:103080006D46C17B01297CD0807D032910D0C1070A
:103090004FF4402005F16C072B4673D06C220021C1
:1030A000FFF766F86C223B4600214FF4502001E107
:1030B00001074FF4F017F3E02B46E82202E0382234
:1030C00000E0202200213846FFF752F8002029189E
:1030D0002218097C401C11770628F8DBBDF80C008B
:1030E000C0F30C00A084BDF81600C0F30D0060848E
:1030F000810402D540F440406084BDF81C00C0F358
:103100000B00A4F842003268907D80077DD4002037
:10311000291811F8203F235423180E7A1E72097CB7
:10312000401C99740528F3DB9DF822006071BDF8FE
:103130002100E0809DF82A00E081BDF8290020826E
:103140009DF832002083BDF831006083907D4007F8
:103150005BD49DF83800DDF8391040EA012020F0FA
:10316000604044F8280F9DF83C00DDF83D1040EA2F
:10317000012020F0004060609DF84000BDF8411043
:1031800001E08BE094E040EA0120C0F31000A06071
:103190009DF84400BDF8451040EA0120C0F3150039
:1031A000E0609DF84800BDF8491040EA0120C0F3F6
:1031B000150020619DF84C00BDF84D1040EA01203B
:1031C000C0F315006061BDF85C0020839DF86C00C1
:1031D000DDF86D1040EA012020F04040E061BDF8CC
:1031E000700020849DF87400BDF8751040EA01203D
:1031F000C0F3150060629DF87800BDF8791040EAD0
:103200000120C0F31500A06200E045E09DF87C00BD
:10321000BDF87D1040EA0120C0F31500E062BDF862
:103220008C00C0F30E002086BDF89C00C0F30B009C
:1032300060869DF8B400DDF8B51040EA012020F06A
:1032400040406063BDF8B80020879DF8BC00BDF821
:10325000BD1040EA0120C0F31500E0639DF8C000F6
:10326000BDF8C11040EA0120C0F3150020649DF8AC
:10327000C400BDF8C51040EA0120C0F31500606429
:10328000BDF8D400C0F30E00A4F84800BDF8E40077
:10329000C0F30B00A4F84A003BB0F0BD807D0107ED
:1032A0000029FFF609AF40072B467FF50AAF06E776
:1032B00028220021FEF75CFF0020295C21542918F8
:1032C00022180B7A13720B7C9374097E117711E02C
:1032D000000C002004001F000400110020000C005E
:1032E0000C001800290006000000F0FF0800020092
:1032F0000200E8FF401C0528DFDB9DF81D0084F874
:1033000021009DF807006071BDF80500E0809DF880
:103310000F009DF80E100843C009E081BDF80D00B4
:1033200020829DF817009DF80E100843C0092083E5
:10333000BDF815006083BDF81E00C0F30D00608469
:10334000810402D540F440406084BDF82000C0F301
:103350000C00A0849DF82400DDF8251040EA01202F
:1033600020F06040A0623068807DC00794D09DF856
:103370002800DDF8291040EA012020F0004044F840
:103380002C0F9DF82C00BDF82D1040EA0120C0F351
:10339000100060609DF83000BDF8311040EA012057
:1033A000C0F31500A0609DF83400BDF8351040EA68
:1033B0000120C0F31500E0609DF83800BDF8391019
:1033C00040EA0120C0F315002061BDF84800A0824A
:1033D000BDF85800C0F30B00E0829DF85C00DDF8FA
:1033E0005D1040EA012020F04040A061BDF860007F
:1033F000A0839DF86400BDF8651040EA0120C0F389
:10340000150020629DF86800BDF8691040EA0120AF
:10341000C0F3150060629DF86C00BDF86D1040EAC5
:103420000120C0F31500A062BDF87C00C0F30E00BF
:10343000A085BDF88C00C0F30B00E0859DF8A400CA
:10344000DDF8A51040EA012020F040402063BDF8DF
:10345000A800A0869DF8AC00BDF8AD1040EA0120A0
:10346000C0F31500A0639DF8B000BDF8B11040EAAC
:103470000120C0F31500E0639DF8B400BDF8B5105D
:1034800040EA0120C0F315002064BDF8C400C0F379
:103490000E00A4F84400BDF8D400C0F30B00A4F85B
:1034A0004600F9E60346052200217420FEF760BEBF
:1034B00001217420FEF715BF00217420FEF711BF13
:1034C000FE4810B50068C07B012808D0032802D050
:1034D0000221FB4805E016214FF4F01001E0022123
:1034E000F848FEF70EFFC0F30D00810402D540F44A
:1034F000404000B210BD10B504460346F048062215
:103500000021001FFEF734FE607900F001006071B9
:1035100010BDEA490968C97B01290BD0032903467C
:103520004FF0050202D00021642008E004214FF48E
:10353000F01004E00346E348052200211038FEF7AE
:1035400017BE00210170431C04227020FEF710BE3C
:10355000DA490968C97B01290CD0032903464FF0D9
:10356000050203D000214FF4402008E020214FF451
:10357000F01004E00346D348052200210C30FEF78A
:10358000F7BDCE490968C97B01290CD00329034640
:103590004FF0050203D0CA480021143808E0282162
:1035A0004FF4F01004E00346C64805220021143011
:1035B000FEF7DEBD01216420FEF793BE00216420EA
:1035C000FEF78FBE00211C20FEF78BBE03460422AF
:1035D00000211C20FEF7CCBD10B50C4602280CD0F3
:1035E0000023FE2219461020FEF7EEFE00220021E5
:1035F000BDE810401420FEF7A0BE0123FF220021E9
:103600001020FEF7E1FE2246F1E7024602210C20DF
:10361000FEF793BE024600210C20FEF78EBE034645
:10362000082200210420FEF753BE03460822002191
:103630000420FEF79DBD10B502460021A248FEF70A
:103640007CFEA14C8822083C00212046FEF781FE2A
:10365000002211462046FEF77CFE0021201DBDE819
:103660001040FEF78BBD70B500240D46FF2800D931
:103670002024024600219448FEF75FFE92482A4625
:103680000021001DFEF765FE44F090028E4C0021E3
:10369000083C2046FEF75DFE2046BDE87040002253
:1036A0001146FEF756BE2DE9F04115460E46074677
:1036B000002406E0381980B2FEF7C4FE46F8240064
:1036C000641CAC42F6DBBDE8F08170B5044680B204
:1036D00040F400724FF4302500212846FEF72DFEFD
:1036E000A2B22846BDE870400021FEF726BE2DE9B3
:1036F000F047DFF8D8810E46044600214046FEF729
:10370000F0FD82464FF470434FF0FF3200214046F7
:10371000FEF726FEDFF8B891182200214846FEF792
:103720000CFE2520FFF7D1FF0220FFF7CEFF4FF45C
:10373000FE70FFF7CAFFF0B240F48070FFF7C5FFDC
:103740004FF480763046FFF7C0FF0020FFF7BDFF43
:103750000220FFF7BAFF4FF4E070FFF7B6FF46EA2A
:10376000146060F30F05C4F3074040F48077C4F39E
:10377000072040F48076E0B240F48070FFF7A5FFA8
:103780003046FFF7A2FF3846FFF79FFF28B2FFF74A
:103790009CFF0020FFF799FF3A20FFF796FF40F2C9
:1037A000FF10FFF792FF4FF48570FFF78EFF0020A8
:1037B000FFF78BFF3A20FFF788FF40F20110FFF779
:1037C00084FF4FF43024022200212046FEF7B5FD8D
:1037D000002211462046FEF7B0FD0220FEF7E1FA76
:1037E0003A20FFF772FF4FF48170FFF76EFF02225D
:1037F00000212046FEF7A1FD002211462046FEF7DB
:103800009CFD002211464846FEF797FD5246404671
:10381000BDE8F0470021FEF782BD70B50D460446B5
:10382000FFF765FF2846FEF70DFEA04201D10020FC
:1038300070BD4FF0FF3070BD10B5022805D10023D8
:10384000FE2201212348FEF7BFFD1F4C0022083C49
:1038500011462046FEF77DFD20460222BDE81040BD
:103860000021FEF776BD10B50446C1B24FF4817059
:10387000FFF7F9FE210ABDE8104040F20310F2E61E
:1038800070B5124D10232D1DFF2200212846FEF792
:103890009BFD4FF4827600213046FFF7E4FE0421C1
:1038A0003046FFF7E0FE0220FEF77BFA4FF4877008
:1038B000FFF7C1FE044640F20F100DE0000C00209F
:1038C0001C000C00140018000C000A004400070043
:1038D00008000B0008001100FFF7ADFE44EA0024C9
:1038E00000213046FFF7BFFE0023EF22194628468D
:1038F000FEF76AFD204670BD10B50C46FE4909680A
:103900000A8A02430A8200214FF42020FEF715FDA7
:103910002246BDE810400021F848FEF71ABD10B558
:10392000002211464FF42020FEF707FD0022114629
:10393000F248FEF70EFDF14C0022103C11462046E5
:10394000FEF707FD20460222BDE810400021FEF7E9
:1039500000BD30B4EA4C20B14FF400634FF6FF7263
:1039600002E000234FF2FF72204630BC0021FEF738
:1039700017BD10B50446C1074FF4602002D00023E4
:10398000EF2201E01023FF220221FEF71DFD620855
:103990000021DC48FEF7DDFCD7480068847510BDC7
:1039A00010B50246D7480C4603212038FEF7D1FC5B
:1039B0004CB10021BDE810404FF481234FF0FF329D
:1039C0001020FEF7CDBC0023BDE810404FF2FF727F
:1039D00019461020FEF7E4BC002310B51A4619461C
:1039E0001320FEF775FCC4480068C17B032902D090
:1039F0000321C17310BD0121FBE770B50E46BE491E
:103A000000256C1E0A6868B108250020D073CEB16D
:103A100024F480642B462246BDE87040002110202B
:103A2000FEF79EBC0120D0736FF00804182200211D
:103A3000B548FEF774FCB448E8220021001DFEF7EB
:103A40006EFCE4E745F48065E4E770B5AD4D0446EF
:103A5000203D00212846FEF744FC6FF31300C4F319
:103A6000130202432846BDE870400021FEF757BC10
:103A700070B5A14CDDE904562468283484E86F0051
:103A800070BD10B500214420FEF778FB00F0010066
:103A900010BD10B502214420FEF733FC0004C0F332
:103AA000006010BD2DE9F04700214FF4F810FEF73B
:103AB00065FB064600214420FEF713FC8E4C0546AC
:103AC00020688561407DC043800703D1A80401D5EB
:103AD00046F00806300628D500214820FEF711FCE4
:103AE000014620688183027D12B1007E400702D426
:103AF00011F4606F0FD0042200214420FEF70FFC68
:103B00004FF4606200214820FEF717FC2068816BAB
:103B100009B1183088472068808BC00505D54FF45F
:103B2000807200214820FEF708FCF00709D0F82237
:103B300000214420FEF70DFC2068816A09B118308D
:103B4000884770060AD52068C16B09B118308847CC
:103B50004FF4C07202214420FEF7EFFB30077DD501
:103B600020680027DFF89C9180F82070C07BB84661
:103B7000A9F10409A0B100214846FEF7FFFA216827
:103B8000C97B032900D10009C10701D045F4804554
:103B9000810701D545F40055400701D545F48065FE
:103BA00020686903856108D590F820104FF48027BC
:103BB00041F0080180F8201007E0690505D590F86C
:103BC000201041F0040180F82010E90007D590F89A
:103BD000201047F0805741F0100180F82010A90410
:103BE00003D5417DC943890709D0690431D5C07B1C
:103BF000012817D003280CD000214C201AE010F81F
:103C0000201F47F4004741F00201017020F8028CA8
:103C10001FE0F02200214846FEF79BFB00214FF4F5
:103C2000F01007E00F2200214846FEF792FB00212A
:103C30004FF4C010FEF765FB21680A7BB2B3C0F3F6
:103C40000902CA83000404D511F8200F40F00100D6
:103C50000870002147F4DE42442000E00BE0FEF74C
:103C60005EFB2068C16A09B1183088472068C07BB4
:103C700008B1FFF7B1FEF00609D5244A002144201F
:103C8000FEF74DFB2068416B09B118308847B0063C
:103C900010D5222202214420FEF75BFB2068016B35
:103CA000002907D0BDE8F04718300847FFE700F0CB
:103CB0007F02C6E7BDE8F08770B50446C107144E21
:103CC0006FF47C624FF4A02031D04FF410730021C8
:103CD000FEF746FB0A484FF404034FF0FF32002181
:103CE000001FFEF73DFB3513A00700D5094D00214D
:103CF0002A46304610E00000000C002014000A00A4
:103D000008001100280001000C001F00009005248D
:103D10001600110010010F00FEF701FBA00713D5DC
:103D2000AAB23046BDE870400021FEF7F8BA002381
:103D30001946FEF715FB3046BDE8704000234FF6EC
:103D4000FF621946FEF72CBB70BD024600213020F1
:103D5000FEF7E5BA024600212C20FEF7E0BA70B566
:103D6000002410F0050F03D1010701D4C10647D587
:103D7000C10709D04FF0000380071A46194601D544
:103D80000D2024E0032022E0010709D54FF00003B5
:103D900080071A46194601D50F2018E0072016E0C3
:103DA000C1064FEA807009D54FF0000300281A467B
:103DB000194601DA0E200AE0052008E04FF0000362
:103DC00000281A46194601DA102000E00920FEF703
:103DD0007FFA03214420FEF7D1F900074FF0FF35A9
:103DE00006D40021FA48FEF77CFAB0F5502F20D116
:103DF00000231A4619461846FEF76AFA2C4618E0C0
:103E000081064FEA807009D54FF0000300281A465A
:103E1000194601DA11200AE00B2008E04FF00003F8
:103E200000281A46194601DA0C2000E00120FEF7AE
:103E30004FFA204670BD10B5FEF774F90023044612
:103E40001A4619461846FEF743FA2046BDE81040C8
:103E5000FEF779B9DF4B20B141EA022020F0F002F1
:103E600000E0002200211846FEF767BA70B5040092
:103E70000CD024F002004FF0FF3501280DD00428AB
:103E800010D008282AD0102826D12CE000231A466A
:103E900019460220FEF71CFA2AE000231A461946AA
:103EA000042003E000231A4619460A20FEF710FA00
:103EB00003214420FEF762F9000719D500231A46B2
:103EC00019461846FEF704FAA00705D400231A463F
:103ED00019460220FEF7FCF9284670BD00231A4659
:103EE00019460820E2E700231A4619460620DDE7B6
:103EF000002070BD10B548B1024600213420FEF705
:103F00000EFA4FF400734FF6FF7202E000234FF6F3
:103F1000FF520021BDE810401020FEF741BA0246D2
:103F20000021AD48FEF709BA2DE9F04116460C46CE
:103F30000546FEF7F7F80746022E12D0012E1BD0D9
:103F40000023EA4319463C20FEF70AFA0023E24325
:103F500000214020FEF704FA3846BDE8F041FEF7A4
:103F6000F2B82A4600213C20FEF7D9F9224600216A
:103F70004020FEF7D4F9EFE72B464FF0FF352A46F5
:103F800000213C20FEF7ECF923462A46E0E770B515
:103F900004464FF47025022200212846FEF7D9F985
:103FA000002C06D02846BDE8704001220021FEF713
:103FB000D0B970BD10B50446854800212C38FEF7F5
:103FC00090F9C0F30B012180C0F30B406080804862
:103FD00000212838FEF785F9C0F30B01A180C0F35A
:103FE0000B40E0807A4800212438FEF77AF92072ED
:103FF000000C6072764800212038FEF772F9C0F399
:104000000B41A181C0F30B006081714800211C3875
:10401000FEF767F9C0F30B412182A0736C480021C1
:104020001838FEF75EF9A074000CE07468480021AF
:104030001438FEF756F9C0F30B00A08210BD10B57E
:10404000FFF76DFC0120FDF7ACFE62480323FF2261
:1040500000211638FEF7B8F9002211464FF48810F7
:10406000FEF777F90120FDF79CFE5C48012100680E
:10407000C1730021018210BD00F03F0257480021AA
:10408000006882735648FEF764B954480068807B24
:10409000704770B504460D460020FEF7D2FA0F2D8A
:1040A00000DD0F25601E032800D304241022E24007
:1040B00000214C48FEF733F9A000001F05FA00F27A
:1040C000BDE8704000214848FEF729B910B5044604
:1040D0003F481023FF2200210C38FEF775F9042C0D
:1040E00000D2042422460021BDE810402C20FEF717
:1040F00016B910B504460121FEF7DBFA204600F0A0
:1041000084FA012000F03FFA0F21BDE810400120A1
:10411000BFE770B50D46044601212846FEF7C9FAEF
:10412000284600F072FA012000F02DFA2046BDE882
:104130007040CBE72DE9F0472A4C0021203420467F
:10414000FEF71CF881460223FF2200212046FEF7DD
:104150003BF9244E04220C3600213046FEF7F9F8D4
:104160004FF40028012200214046FEF7F2F808F142
:10417000040500212846FEF701F8C007F9D0002108
:104180004FF00810FEF7BDF8C5B2070A002211462D
:104190004046FEF7DEF8002211463046FEF7D9F819
:1041A0004A4600212046FEF7D4F845EA072081E57B
:1041B0000A4910B50968C97A401A07F0A7FC0B49EB
:1041C00007F0D0FCBDE81040094907F059BB0000DA
:1041D00030000F001A00110004000600000C00203F
:1041E0001400090028000700180008006666863FD2
:1041F0000000A041F94910B50968897A401A07F012
:1042000085FCF74907F0AEFC042107F022FEF549D2
:1042100007F09EFBBDE81040F34907F031BB0121D8
:104220004FF00810FDF7AABF00214FF00810FDF76E
:10423000A5BF70B504460D46012000F0A4F9002189
:104240002846FEF736FA284600F0DFF904F03F0270
:104250000021E648FEF77DF8E54C0123FF2200210E
:104260002046FEF7B1F800212046FDF787FFC00782
:10427000F9D1DF480021001DFEF743F8C0F30B041D
:1042800000F0BEF9002000F08EF9052000F07BF967
:10429000204670BDC179827941EA4201427941EA02
:1042A000C201027941EA8211C27841EAC2118278E0
:1042B00041EA02214278007841EAC22141EA003015
:1042C00082B20021CB48FEF738B8002118B1FF2197
:1042D00001EB5000C1B20846704710B504460268B1
:1042E000C44800212430FEF71AF8C24800212830C3
:1042F0006268FEF714F8BF4800212C30A268FEF770
:104300000EF8BC48E2680021BDE810403030FEF7EE
:1043100006B82DE9FF470446C07CFF284AD0B54EB9
:10432000361DE9B32068E1896B46827A8DF800205A
:10433000427A8DF80120027A8DF80220C2798DF838
:10434000032082798DF8042042798DF805200279C6
:104350008DF80620C2788DF8072082788DF8082025
:1043600042788DF8092002788DF80A208DF80C101B
:104370000022090A8DF80B208DF80D10017B8DF8B5
:104380000E10C07A8DF80F00102200213046FDF784
:104390009FFF227BE089A17C13184FF4B01600E048
:1043A0000BE04FF4A01859B1012912D06FF00100B1
:1043B00004B07FE46FF00200FAE70C222368E4E720
:1043C000207C18B14FF48060454608E07F203546D8
:1043D00005E0607C10B140F2FF3000E07F20E77C18
:1043E000C01B801E984202D24FF0FF30E0E751B967
:1043F000002128466368FDF76BFFE289217B284690
:10440000A368FDF765FF207C744D012801D00228C8
:1044100004D12868C07B032808D00120617C0129D1
:1044200006D0022904D004290AD00FE00220F5E7C3
:104430002968C97B032901D0012107E0022105E099
:10444000E289102A02D96FF00300B1E740EA413255
:10445000684800211430FDF762FF207B6FF4FC01F7
:1044600000F07F02E08901EAC010024361480021A8
:104470001830FDF754FF5F48012200211C30FDF782
:1044800068FFDFF8709109F1200900214846FDF727
:1044900075FE074610F0050FF7D03A460021484652
:1044A000FDF757FF07F03F0727F03000012825D11F
:1044B000A07C012822D1607C012804D0022802D0EF
:1044C00003280AD00AE02868C07B032802D04FF4F2
:1044D000901603E04FF4981600E0464663682BB14F
:1044E000227B1AB100213046FDF742FEA3682BB1B2
:1044F000E2891AB1217B3046FDF73AFE384657E78C
:104500003C4B183B59B1012904D01B1D022906D090
:10451000032907D1024602211846FDF70EBF0246C5
:104520000021F9E77047062101EA4003CA433148F8
:1045300000211C38FDF714BF10B54FF4C0734FF6BF
:10454000FF7200212C48FDF72BFF24484FF6E07244
:1045500000210068037ABDE810402848FDF720BF1D
:1045600030B4254C6FF40052052808D0092808D132
:104570004FF40153204630BC0021FDF7F1BE40232B
:10458000F8E730BC70471D4B1B3B012807D00528BE
:1045900008D14FF4007200211846FDF7CEBE41F657
:1045A0002202F8E7704710B5044610480022114671
:1045B0002C30FDF7B4FE002211464FF4E020FDF749
:1045C000AEFE002C08D009480021BDE810404FF095
:1045D000E0520838FDF7A3BE10BD0000000C00201B
:1045E000CDCCCC3E00007F43000040401C000700C3
:1045F000100008003000010008000B001F0011002F
:10460000002211461148FDF78ABE30B40F4C4FF01E
:10461000FF32052807D00928B3D10D4B204630BC06
:104620000021FDF79DBE0B4BF8E7AAE74843032A9C
:1046300002D1B5214843C009C0F30A01C00A01F5FF
:104640008061B1F5006F00D3401C70470400070083
:10465000001C0002003C000230B5E148A1B01C463D
:10466000C168269D491CC160052091FBF0F200FB4A
:104670001210002829D14021684605F038F920465B
:1046800007F0D2F80022D74B06F022FF02460B4675
:10469000D5A1684604F034FD042102236A46084689
:1046A00002F0A2FA402110A805F021F9284607F0EF
:1046B000BBF802460B46D0A110A804F021FD02234E
:1046C00010AA0621042002F08FFA21B030BD38B5BF
:1046D0004FF0FF3200214420FDF721FEC04C0022A4
:1046E00004F1480120788870A069C4F85200E0699C
:1046F000C4F856001220FEF76EFB012200211420A0
:10470000FEF790FB40F2B220FFF79FF94FF496704E
:10471000FFF7F0FB0520FFF702FC0220FFF71FFB6D
:10472000B94D00214420FDF7DCFD28426060F8D03F
:104730002078401C2070A088400432D54FF481427C
:1047400000214420FDF7EBFD6846FEF755FC0028EC
:1047500026D000214C20FDF7C4FD00F07F01282960
:1047600003D80022A948FEF7B2FB9D490A225A311C
:10477000A64804F0B4FF002812D1A44998480822A2
:104780000A31183004F0ABFF002809D10120607015
:104790000020A0609D48418A61809DA0FCF7B3FD88
:1047A00038BDA0A0FCF7AFFDBDE838400021AB4A02
:1047B0004420FDF7B4BDF8B54FF0FF32002144208E
:1047C000FDF7ADFD864C002204F16E012078887063
:1047D0006088A4F878000C20FEF7FDFA0122002181
:1047E0000E20FEF71FFB0220FFF7B9FA864D0021CD
:1047F0004420FDF776FD28426060F8D02078401C08
:104800002070A08840047DD54FF4814200214420CF
:10481000FDF785FD6846FEF7EFFB002877D0002105
:104820004C20FDF75EFD00F07F01282903D800220F
:104830007648FEF74CFB754E69490027B7700A228F
:104840007A31304604F04BFF002860D164490222DF
:10485000891C06F10B0004F042FF002857D100F03C
:104860002EFAC4E9080100F03FFA7D4AC4E90A01C2
:10487000801841F10001050A45EA01652846FFF765
:1048800069FA25F00100010E000244F201028018CD
:1048900041F10001C4E90C015148D4E908239130E9
:1048A00000F045FA4E48D4E90A23953000F03FFA6B
:1048B0004B48D4E90C23993000F039FA4849207864
:1048C0008731002288701620FEF785FA0122002128
:1048D0001820FEF7A7FA0120FFF741FA002816D1A9
:1048E00000214420FDF7FDFC0006F9D580220021BF
:1048F0004420FDF714FDA7602078401C207056F876
:104900000D0F01E004E002E0206170686061F8BD15
:10491000BDE8F8400021514A4420FDF700BDFCF7F6
:1049200056FF50A0FCF7EFFCFDF728FAFDF7DAF987
:104930000220FDF7CCF900BFFFF7ABF80028FBD051
:104940000020FDF7A8FD401C08D025483830FEF7B0
:10495000BDF838B149A0FCF7D6FCFEE74CA0FCF747
:10496000D2FCFEE74F48FDF7FFFE44F2010420466B
:10497000FEF725FA2046FEF728FA40F2B220FFF7AC
:1049800064F84FF49670FFF7B5FA0520FFF7C7FA01
:104990000320FFF791F9FDF788FE04460025FDF797
:1049A00080FE2A1844EB05000D4C0146C4E90620A0
:1049B0003DA0FCF7A8FC4FF4FA7760780A2658B1BE
:1049C000FFF7F9FEA068411CA160322800DD657088
:1049D0003046FDF77CF9F0E7FFF779FE3E46F7E752
:1049E000080C0020000059402044203A2025332E96
:1049F0003266206D202020002041203A2025332ED1
:104A0000316620202000000000D02724241300203D
:104A100047657420546167204944A3BA253034584F
:104A20000A0000004A6F696E206E6574776F726BC2
:104A3000206661696C65642C2072656365697665C2
:104A40002074696D656F7574206F7220726563657F
:104A5000697665206572726F72210A0000902724C2
:104A600060015A034D616B657266627320414F416C
:104A7000207461672076312E300D0A00434F4E4678
:104A80004947204641494C45442020202020000031
:104A9000494E4954204641494C454420202020207D
:104AA00000000000D40B002054616720636F6E6625
:104AB000696775726174696F6E207375636365737E
:104AC0007366756C2025303878253038580A000018
:104AD00038B50C460021ADF80010410402D4A16A9B
:104AE000491CA162C10302D56168491C6160C1040F
:104AF00002D5A168491CA160810202D52169491C27
:104B00002161810002D5216A491C2162810404D5FA
:104B1000410402D42168491C216010F4081F02D00E
:104B20006169491C6161410102D5E168491CE1608C
:104B3000C00035D5606B0021401C60636846FEF7FD
:104B40006FFABDF80000C10502D5A16B491CA16335
:104B5000010602D5E16B491CE163410602D5216CD7
:104B6000491C2164810602D5616C491C6164C1063F
:104B700002D5A16C491CA164010702D5E16C491C56
:104B8000E164410702D5216D491C2165810702D5E9
:104B9000616D491C6165C00702D0A06D401CA06515
:104BA00038BD7249002049780E2909D2DFE801F0AA
:104BB00008080C1508080F080807120808098020C3
:104BC00070474FF4C07070474FF4607070474FF4F7
:104BD000B06070474FF4F06070474FF478607047F2
:104BE000624900208979002900D1C82070474A789D
:104BF0000E2A1ED2DFE802F01D09151B070D180B47
:104C00001D0F1B1D1D12203813E0403811E04838DD
:104C10000FE080380DE0A0F580700AE0A0F500708C
:104C200007E0A0F5806004E0A0F5C06001E0A0F519
:104C30000060497B0822891C8A4010444FF69A1173
:104C40004843000AFFF786B810B50B460246FFF747
:104C5000C7FF8418FFF7A5FF597B204400F5FA70C1
:104C6000072909D2DFE801F0080808040404040059
:104C70000822891C8A401044BDE81040FFF73AB969
:104C80003A4910B54A7B0821921C914001EBD17141
:104C900000EB610200213648FDF741FBBDE8104002
:104CA000FDF7B4BD10B500220A60835CD400A340B8
:104CB0000C68521C23440B60042AF6DB10BD7CB543
:104CC000002425466846FEF7EDFB042069462D02C8
:104CD00045EA146522020C5C401E144340B20028D1
:104CE000F5DA204629467CBD7CB500242546684679
:104CF000FEF70FFC042069462D0245EA14652202E6
:104D00000C5C401E144340B20028F5DA20462946C8
:104D10007CBD10B500220A60835CD400A3400C68FF
:104D2000521C2344D2B20B60042AF5D310BD10B537
:104D300000214254120A42EA0362491C1B0AC9B20A
:104D40000429F6D310BD2DE9F04115461E4607464D
:104D50000024E2002846314604F096F93855641CD8
:104D6000E4B2042CF5D3BDE8F0810000E00B002094
:104D70001C00020038B55E498022A1F1200000F03D
:104D8000C5F85B494FF4C8728031A1F1900000F082
:104D9000BDF80121082002F0C0FF0220ADF800009C
:104DA00003208DF8020010208DF803006946514859
:104DB00002F017FC4FF48024204602F075F94E49AA
:104DC00008200C60487101208871084602F00EF935
:104DD00038BD10B5002002F032FF0121BDE81040BF
:104DE000C80502F0A3BF4549032008607047444846
:104DF000817A424809B1052100E001210160704734
:104E000038B514208DF8000002208DF80100002430
:104E10008DF8024001208DF80300684601F0A1FFE3
:104E20002A208DF800008DF80140684601F099FFB6
:104E300038BD304A00284FF00201104601D002F080
:104E40003EBC02F03EBC10B5FFF794FFFFF7C1FF78
:104E5000FFF7D6FFBDE8104001F002B90A4601464F
:104E60002348203800F070B80A4601462048203810
:104E700000F052B80A4601461D48103800F064B8E8
:104E80000A4601461A48103800F046B8F0B500232B
:104E90000A24302537261F4611E000BFB4EB107FEF
:104EA00002D905EB107C01E006EB107C01F813C081
:104EB00001EB430C00015B1C8CF80170DBB29342E8
:104EC000ECD3F0BD0F4810B50168001D0468001D4B
:104ED000006808180AD008220B49FFF7D7FF0A49D3
:104EE00020460422BDE810401031CFE710BD00007D
:104EF0006C130020000C0140AC0C0020BC0D002005
:104F00001C160020E8F7FF1FB60C00200260C160ED
:104F1000416081600020704770B5002483680FE015
:104F2000C56806685B1C35449D4200D8C368456867
:104F30009D4207D011F8015B866835708360641C60
:104F40009442EDD3204670BD30B500230DE0446897
:104F5000651C45602478CC54C46805682C444568B9
:104F60005B1CAC4201D8C468446045688468A542B3
:104F700004D0934202D204689C42E8D8184630BD5F
:104F800010B50021426807E0C3680468491C234447
:104F9000521C934200D8C2688368934202D00368CF
:104FA0008B42F1D8084610BDF0B54468059E0568EF
:104FB0000AE027788F420CD0C768D0F800C0641C84
:104FC0006744A74200D8C4688768A74201D06D1E15
:104FD000EFD28168A14228D0691C26D0C768D0F8DA
:104FE00000C0611C674409E0C16809E00F7897427E
:104FF0000BD0C768D0F800C0491C67448F42F3D972
:1050000087688F4201D06D1EF0D282688A420CD030
:105010006A1C0AD0C268076817444A1C974200D825
:10502000C26801684D1B00210DE00020F0BD00BFEB
:1050300014F8017B5F54C768D0F800C0491C67446E
:10504000A74200D8C468944206D0B14204D207688F
:105050008F4201D96D1EEBD242600846F0BDF0B51B
:105060004468066809E025788D420BD0C56807685A
:10507000641C3D44A54200D8C4688568A54201D09F
:10508000761EF0D28568A54227D0751C25D0C5684C
:1050900007682F44651C09E0C56809E02F788F4236
:1050A0000BD0C768D0F800C06D1C6744AF42F3D97D
:1050B0008768AF4201D0761EF0D28168A9420CD039
:1050C000711C0AD0C16807686D1C3944A94200D818
:1050D000C56801688E1B00210DE00020F0BD00BFF7
:1050E00014F8017B5754C768D0F800C0491C6744C6
:1050F000A74200D8C468AC4206D0994204D20768DF
:105100008F4201D9761EEBD2022908DCC268002149
:10511000641E944203D2C2680368D418641E4460BB
:105120000846F0BDF0B54468056809E026788E426F
:105130000BD0C6680768641C3E44A64200D8C46809
:105140008668A64201D06D1EF0D28168A1420CD0C3
:105150006D1C0AD0C1680568641C2944A14200D8AE
:10516000C4684168066800250DE00020F0BD00BF5E
:1051700011F8017B5755C768D0F800C06D1C674413
:105180008F4200D8C168A14203D09D4201D2761E51
:10519000EED241602846F0BDF0B54468059E002778
:1051A00005680EE0B94202D1277897420FD014F873
:1051B000017BD0F80CC0D0F800E0F444A44500D83E
:1051C000C468D0F808C0A44501D06D1EEAD2816839
:1051D000A1420CD06D1C0AD0C1680268641C114445
:1051E000A14200D8C4684168056800220DE0002093
:1051F000F0BD00BF11F8017B9F54C768D0F800C014
:10520000521C67448F4200D8C168A14203D0B24209
:1052100001D26D1EEED241601046F0BD0360B2FBBC
:10522000F3F24260016100218160C160084670476D
:105230002DE9F041C568174688460446002614E06B
:1052400060686D1C854200D30025A068A8420ED07E
:105250002069E168226801FB02002268414604F0EF
:10526000ADFA2168E5608844761CBE42E8D330463A
:10527000BDE8F0812DE9F041002590460E46044638
:105280002F4612E02069A168226801FB0201226812
:10529000304604F093FA20680644A068401CA060E1
:1052A00061686D1C884200D3A760A068E1688842ED
:1052B00004D06068A84201D94545E3D32846D7E722
:1052C0000021826805E04368491C521C9A4200D3C1
:1052D0000022C368934202D043688B42F3D8084649
:1052E0007047000070B5294D2878012815D140215C
:1052F0002748FFF7BFFD0404240C4FF000060DD033
:105300002246C021224800F0A1FF2146012001F0E1
:1053100086F9012001F05CF86E6070BD2E7070BDE2
:105320001B4910B54031032001F02BFB81B2184816
:105330004030FFF799FDBDE81040032001F058B858
:1053400070B51448006805281FD1104C207800283B
:105350001BD16068411C6160052816D10020606087
:1053600040210B48FFF786FD05042D0C0DD02A4681
:10537000C021074800F06AFF2946012001F04FF9DB
:10538000012001F025F80120207070BDDC0C002008
:105390007C150020BC0D00202DE9F0414C4E88B05A
:1053A000002430684B4D688068884B4F398808402E
:1053B000800507D54FF6FF5030602878401C2870D4
:1053C000FFF7BEFF688839880840000401D500F067
:1053D0005BFE688839884FF6FF380840400504D5E1
:1053E000C6F800803D484068804769883888014099
:1053F000890402D54DF6FF71316069880140C80407
:1054000005D54EF6FF703060002000F0F0F9688896
:105410003988084000050BD53148007810B100F0FC
:1054200082F902E0022000F0E2F94FF2FF703060F2
:10543000688839880840C00546D54FF6FF6030605F
:105440002348001D00684FF00002000438D568684A
:10545000401C68606868032833D91D48001F016834
:1054600009072ED4016889B2A9601E494FEA0D03CD
:1054700001EB8407D7F8007CBFB243F82470641CAA
:10548000082CF5D3AC6844F00104AC60AC68A4B25D
:105490000460AC6824F00104AC60AC68A4B20460A1
:1054A00030684005FCD5C6F80080002053F8204045
:1054B00001EB8006A4B2C6F8004C401C0828F5D3C6
:1054C0006A60072000F093F908B0BDE8F0810000A1
:1054D000445C0040E40C0020E00D0020440D00205E
:1054E000C00D002000500040FFF756BF4FF4802051
:1054F00001F0DABD10B5FFF7E5FC7648002400683E
:10550000847200F0F1F801F01DFA7348046010BDD8
:10551000704810B50068714A00218172D2794272D8
:10552000C172084600F0D4FE4FF40071002000F074
:10553000E7FE1021002000F0F8FE4021002001F0DD
:105540004AF88021002001F03AF8002000F07CFFAA
:10555000634890F82C10002001F07FF8002000F044
:1055600047FF0021012000F0CBFEC021012001F007
:1055700026F82021012000F0D8FE0021012000F0B3
:10558000EAFE4FF4C061022000F0BAFE4FF48071D1
:10559000022001F014F80021022000F0DCFE20219E
:1055A000022000F0C2FE0021032000F0A9FE4FF40B
:1055B0008871032001F00FF84021032001F04DF81D
:1055C0004FF44051032000F0C6FE0021032000F0FC
:1055D000ACFE002000F084FC3F490120086010BDB3
:1055E0004048807A002802D03B4905200860704777
:1055F000394904200860704739481C38017820294F
:1056000001D1002101707047704710B1344818383B
:10561000704730490820096808820020704710B19F
:105620002F48183870472B49082009680882002045
:105630007047284A10B500211268212802D020287E
:1056400008D019E0107800F07F00212814D1AFF2C3
:1056500031010AE0107800F07F00212801D1AFF27B
:1056600055011F4B20201C3B187029B1002091616F
:1056700050828847002010BD022010BD15490968DE
:10568000097801F07F01212903D1022803D02228C3
:1056900001D002207047002070471149103900F0F6
:1056A00049BA0F49083900F045BA0A490968C9786A
:1056B000042901D900207047094A303202EBC101A8
:1056C00000F038BA09B9012801D90220704700203A
:1056D00070470000D40D0020BC0D002090BF0008D2
:1056E000440D00201C16002010B50120FFF7A1FB7F
:1056F0006248012101600021614A0160031D1960B7
:105700004FF4E05111800160002010BD10B55B4CDA
:1057100001202060211D00200860FFF78AFB032084
:105720002060002010BDF8B55449002000900A68A0
:10573000544B554C92B200BF03EB8005D5F8005C8A
:10574000ADB244F82050401C0828F5D342F48060E4
:10575000086040F00100086020F001050D60474A34
:10576000121D10684005FCD54FF6FF301060002078
:1057700054F8206003EB8007B6B2C7F8006C401CF9
:105780000828F5D345F008000860086880B240F0AA
:10579000040008603D4B18680090186820F0030072
:1057A00040F0010018603A48046844F004040460C2
:1057B0001468E40409D54EF6FF7414600A6892B2C6
:1057C00022F008020A6000991960016821F00401C2
:1057D0000160F8BD10B5294C206880B220F00400AB
:1057E0002060FFF704FB4FF43F40206010BD2DE91F
:1057F000F041284C072800D020702278254D06273C
:10580000052104261D48062A0BD2DFE802F0030C0E
:1058100011161E27686810B12170BDE8F081FFF7EE
:10582000D9FF2770F9E7FFF7D5FF2670012022E0A6
:105830000220607003202070EFE76078401E6070E7
:1058400060780028E9D12670E7E7026892B242F05A
:105850001002026021700A206070DEE76178491E44
:10586000617061780029D8D1016889B221F01001F6
:105870000160277000206860CFE70000405C0040B6
:10588000E00D002000500040FC150020007000409A
:1058900010ED00E0C40D002010B5FB4C30B1FB480A
:1058A00000680068804720680A3010BD2168012028
:1058B0000882002010BDF44810B50068F44AC17891
:1058C0005278914203D882780AB982880AB10220BC
:1058D00010BD8172ED48006840688047002010BD0F
:1058E00010B5E94C30B1E94800688068804720680D
:1058F0000C3010BD216801200882002010BD10B5B9
:10590000E14CE44A20681268C17892694079904776
:1059100021688A7A22B118B9087908B9887808B15B
:10592000022010BDD9480068C068804720684179CE
:10593000C172C1780173002010BDD34910B5096848
:1059400060B1D548002202800A7853060AD002F0DE
:105950007F02012A16D0022A16D001E00220088216
:10596000002010BD497A8A06027802D542F0020270
:1059700001E002F0FD0249060270D1B211D401F03B
:10598000FE0110E0C44810BD4A7911071306C34A4E
:1059900002EB9161D1F8001C07D5C1F3011106E0BB
:1059A000017841F00101017003E0C1F301310129E7
:1059B000F6D0B648006800698047E3E72DE9F0417A
:1059C000B1480068017811F07F0102D0022905D0AA
:1059D00066E0417A01F0DF0141724EE04188002922
:1059E0005ED10179F1BB4179AC4D21F080040A060A
:1059F00005EB8402A64BD2F8002C03D5C2F30112AA
:105A0000120102E0C2F3013212031E782346A642BD
:105A100046D93AB3807A28B308064FEA84000ED5F7
:105A20002844D0F8000CC0F30110012821D11846F9
:105A300000F09CFD2046302100F077FC19E046196B
:105A4000D6F8000CC0F30130012812D14BF68F7745
:105A500048F28008A4B1184600F076FDD6F8000C94
:105A6000384000E01CE080F4405040EA0800C6F8EE
:105A7000000C86480068406980470020BDE8F0813E
:105A8000874890F82C10002000F0E7FDD5F8000CB6
:105A9000384080F4405040EA0800C5F8000CE8E7C0
:105AA0000220EBE770B578487C4D0368597921F006
:105AB000800005EB80000C06D0F8004C21F080023D
:105AC00003D5C4F30114240102E0C4F30134240318
:105AD0006F4D2D78954210D95A8872B96CB19A7A67
